{
	"contracts/LiskGarden.sol": {
		"LiskGarden": {
			"abi": [
				{
					"inputs": [],
					"stateMutability": "nonpayable",
					"type": "constructor"
				},
				{
					"anonymous": false,
					"inputs": [
						{
							"indexed": true,
							"internalType": "uint256",
							"name": "plantId",
							"type": "uint256"
						}
					],
					"name": "PlantDied",
					"type": "event"
				},
				{
					"anonymous": false,
					"inputs": [
						{
							"indexed": true,
							"internalType": "uint256",
							"name": "plantId",
							"type": "uint256"
						},
						{
							"indexed": true,
							"internalType": "address",
							"name": "owner",
							"type": "address"
						},
						{
							"indexed": false,
							"internalType": "uint256",
							"name": "reward",
							"type": "uint256"
						}
					],
					"name": "PlantHarvested",
					"type": "event"
				},
				{
					"anonymous": false,
					"inputs": [
						{
							"indexed": true,
							"internalType": "address",
							"name": "owner",
							"type": "address"
						},
						{
							"indexed": true,
							"internalType": "uint256",
							"name": "plantId",
							"type": "uint256"
						}
					],
					"name": "PlantSeeded",
					"type": "event"
				},
				{
					"anonymous": false,
					"inputs": [
						{
							"indexed": true,
							"internalType": "uint256",
							"name": "plantId",
							"type": "uint256"
						},
						{
							"indexed": false,
							"internalType": "uint8",
							"name": "newWaterLevel",
							"type": "uint8"
						}
					],
					"name": "PlantWatered",
					"type": "event"
				},
				{
					"anonymous": false,
					"inputs": [
						{
							"indexed": true,
							"internalType": "uint256",
							"name": "plantId",
							"type": "uint256"
						},
						{
							"indexed": false,
							"internalType": "enum LiskGarden.GrowthStage",
							"name": "newStage",
							"type": "uint8"
						}
					],
					"name": "StageAdvanced",
					"type": "event"
				},
				{
					"inputs": [],
					"name": "HARVEST_REWARD",
					"outputs": [
						{
							"internalType": "uint256",
							"name": "",
							"type": "uint256"
						}
					],
					"stateMutability": "view",
					"type": "function"
				},
				{
					"inputs": [],
					"name": "PLANT_PRICE",
					"outputs": [
						{
							"internalType": "uint256",
							"name": "",
							"type": "uint256"
						}
					],
					"stateMutability": "view",
					"type": "function"
				},
				{
					"inputs": [],
					"name": "STAGE_DURATION",
					"outputs": [
						{
							"internalType": "uint256",
							"name": "",
							"type": "uint256"
						}
					],
					"stateMutability": "view",
					"type": "function"
				},
				{
					"inputs": [],
					"name": "WATER_DEPLESSION_TIME",
					"outputs": [
						{
							"internalType": "uint256",
							"name": "",
							"type": "uint256"
						}
					],
					"stateMutability": "view",
					"type": "function"
				},
				{
					"inputs": [],
					"name": "WATER_DEPLETION_RATE",
					"outputs": [
						{
							"internalType": "uint8",
							"name": "",
							"type": "uint8"
						}
					],
					"stateMutability": "view",
					"type": "function"
				},
				{
					"inputs": [
						{
							"internalType": "uint256",
							"name": "plantId",
							"type": "uint256"
						}
					],
					"name": "calculateWaterLevel",
					"outputs": [
						{
							"internalType": "uint8",
							"name": "",
							"type": "uint8"
						}
					],
					"stateMutability": "view",
					"type": "function"
				},
				{
					"inputs": [],
					"name": "deposit",
					"outputs": [],
					"stateMutability": "payable",
					"type": "function"
				},
				{
					"inputs": [],
					"name": "getBalance",
					"outputs": [
						{
							"internalType": "uint256",
							"name": "",
							"type": "uint256"
						}
					],
					"stateMutability": "view",
					"type": "function"
				},
				{
					"inputs": [
						{
							"internalType": "uint256",
							"name": "plantId",
							"type": "uint256"
						}
					],
					"name": "getPlant",
					"outputs": [
						{
							"components": [
								{
									"internalType": "uint256",
									"name": "id",
									"type": "uint256"
								},
								{
									"internalType": "address",
									"name": "owner",
									"type": "address"
								},
								{
									"internalType": "enum LiskGarden.GrowthStage",
									"name": "stage",
									"type": "uint8"
								},
								{
									"internalType": "uint256",
									"name": "plantedDate",
									"type": "uint256"
								},
								{
									"internalType": "uint256",
									"name": "lastWatered",
									"type": "uint256"
								},
								{
									"internalType": "uint8",
									"name": "waterLevel",
									"type": "uint8"
								},
								{
									"internalType": "bool",
									"name": "exists",
									"type": "bool"
								},
								{
									"internalType": "bool",
									"name": "isDead",
									"type": "bool"
								}
							],
							"internalType": "struct LiskGarden.Plant",
							"name": "",
							"type": "tuple"
						}
					],
					"stateMutability": "view",
					"type": "function"
				},
				{
					"inputs": [
						{
							"internalType": "address",
							"name": "user",
							"type": "address"
						}
					],
					"name": "getUserPlants",
					"outputs": [
						{
							"internalType": "uint256[]",
							"name": "",
							"type": "uint256[]"
						}
					],
					"stateMutability": "view",
					"type": "function"
				},
				{
					"inputs": [
						{
							"internalType": "uint256",
							"name": "plantId",
							"type": "uint256"
						}
					],
					"name": "harvestPlant",
					"outputs": [],
					"stateMutability": "nonpayable",
					"type": "function"
				},
				{
					"inputs": [],
					"name": "owner",
					"outputs": [
						{
							"internalType": "address",
							"name": "",
							"type": "address"
						}
					],
					"stateMutability": "view",
					"type": "function"
				},
				{
					"inputs": [],
					"name": "plantCounter",
					"outputs": [
						{
							"internalType": "uint256",
							"name": "",
							"type": "uint256"
						}
					],
					"stateMutability": "view",
					"type": "function"
				},
				{
					"inputs": [],
					"name": "plantSeed",
					"outputs": [
						{
							"internalType": "uint256",
							"name": "",
							"type": "uint256"
						}
					],
					"stateMutability": "payable",
					"type": "function"
				},
				{
					"inputs": [
						{
							"internalType": "uint256",
							"name": "",
							"type": "uint256"
						}
					],
					"name": "plants",
					"outputs": [
						{
							"internalType": "uint256",
							"name": "id",
							"type": "uint256"
						},
						{
							"internalType": "address",
							"name": "owner",
							"type": "address"
						},
						{
							"internalType": "enum LiskGarden.GrowthStage",
							"name": "stage",
							"type": "uint8"
						},
						{
							"internalType": "uint256",
							"name": "plantedDate",
							"type": "uint256"
						},
						{
							"internalType": "uint256",
							"name": "lastWatered",
							"type": "uint256"
						},
						{
							"internalType": "uint8",
							"name": "waterLevel",
							"type": "uint8"
						},
						{
							"internalType": "bool",
							"name": "exists",
							"type": "bool"
						},
						{
							"internalType": "bool",
							"name": "isDead",
							"type": "bool"
						}
					],
					"stateMutability": "view",
					"type": "function"
				},
				{
					"inputs": [
						{
							"internalType": "uint256",
							"name": "plantId",
							"type": "uint256"
						}
					],
					"name": "updatePlantStage",
					"outputs": [],
					"stateMutability": "nonpayable",
					"type": "function"
				},
				{
					"inputs": [
						{
							"internalType": "address",
							"name": "",
							"type": "address"
						},
						{
							"internalType": "uint256",
							"name": "",
							"type": "uint256"
						}
					],
					"name": "userPlants",
					"outputs": [
						{
							"internalType": "uint256",
							"name": "",
							"type": "uint256"
						}
					],
					"stateMutability": "view",
					"type": "function"
				},
				{
					"inputs": [
						{
							"internalType": "uint256",
							"name": "plantId",
							"type": "uint256"
						}
					],
					"name": "waterPlant",
					"outputs": [],
					"stateMutability": "nonpayable",
					"type": "function"
				},
				{
					"inputs": [],
					"name": "withdraw",
					"outputs": [],
					"stateMutability": "nonpayable",
					"type": "function"
				},
				{
					"stateMutability": "payable",
					"type": "receive"
				}
			],
			"devdoc": {
				"kind": "dev",
				"methods": {},
				"version": 1
			},
			"evm": {
				"assembly": "    /* \"contracts/LiskGarden.sol\":57:5601  contract LiskGarden {... */\n  mstore(0x40, 0x80)\n    /* \"contracts/LiskGarden.sol\":1252:1301  constructor() {... */\n  callvalue\n  dup1\n  iszero\n  tag_1\n  jumpi\n  revert(0x00, 0x00)\ntag_1:\n  pop\n    /* \"contracts/LiskGarden.sol\":1284:1294  msg.sender */\n  caller\n    /* \"contracts/LiskGarden.sol\":1276:1281  owner */\n  0x03\n  0x00\n    /* \"contracts/LiskGarden.sol\":1276:1294  owner = msg.sender */\n  0x0100\n  exp\n  dup2\n  sload\n  dup2\n  0xffffffffffffffffffffffffffffffffffffffff\n  mul\n  not\n  and\n  swap1\n  dup4\n  0xffffffffffffffffffffffffffffffffffffffff\n  and\n  mul\n  or\n  swap1\n  sstore\n  pop\n    /* \"contracts/LiskGarden.sol\":57:5601  contract LiskGarden {... */\n  dataSize(sub_0)\n  dup1\n  dataOffset(sub_0)\n  0x00\n  codecopy\n  0x00\n  return\nstop\n\nsub_0: assembly {\n        /* \"contracts/LiskGarden.sol\":57:5601  contract LiskGarden {... */\n      mstore(0x40, 0x80)\n      jumpi(tag_1, lt(calldatasize, 0x04))\n      shr(0xe0, calldataload(0x00))\n      dup1\n      0x8da5cb5b\n      gt\n      tag_22\n      jumpi\n      dup1\n      0xcfc9a5f8\n      gt\n      tag_23\n      jumpi\n      dup1\n      0xcfc9a5f8\n      eq\n      tag_17\n      jumpi\n      dup1\n      0xd0e30db0\n      eq\n      tag_18\n      jumpi\n      dup1\n      0xddd42596\n      eq\n      tag_19\n      jumpi\n      dup1\n      0xe38f8448\n      eq\n      tag_20\n      jumpi\n      dup1\n      0xed0b1f5f\n      eq\n      tag_21\n      jumpi\n      jump(tag_2)\n    tag_23:\n      dup1\n      0x8da5cb5b\n      eq\n      tag_12\n      jumpi\n      dup1\n      0x8dd2361c\n      eq\n      tag_13\n      jumpi\n      dup1\n      0x9886bcfa\n      eq\n      tag_14\n      jumpi\n      dup1\n      0x9c471749\n      eq\n      tag_15\n      jumpi\n      dup1\n      0xbacb5ebd\n      eq\n      tag_16\n      jumpi\n      jump(tag_2)\n    tag_22:\n      dup1\n      0x51f9efde\n      gt\n      tag_24\n      jumpi\n      dup1\n      0x51f9efde\n      eq\n      tag_7\n      jumpi\n      dup1\n      0x74119a38\n      eq\n      tag_8\n      jumpi\n      dup1\n      0x754e150d\n      eq\n      tag_9\n      jumpi\n      dup1\n      0x891c0785\n      eq\n      tag_10\n      jumpi\n      dup1\n      0x8aee578b\n      eq\n      tag_11\n      jumpi\n      jump(tag_2)\n    tag_24:\n      dup1\n      0x09d572fa\n      eq\n      tag_3\n      jumpi\n      dup1\n      0x12065fe0\n      eq\n      tag_4\n      jumpi\n      dup1\n      0x30cec0eb\n      eq\n      tag_5\n      jumpi\n      dup1\n      0x3ccfd60b\n      eq\n      tag_6\n      jumpi\n      jump(tag_2)\n    tag_1:\n      jumpi(tag_2, calldatasize)\n      stop\n    tag_2:\n      revert(0x00, 0x00)\n        /* \"contracts/LiskGarden.sol\":746:804  uint256 public constant WATER_DEPLESSION_TIME = 30 seconds */\n    tag_3:\n      callvalue\n      dup1\n      iszero\n      tag_27\n      jumpi\n      revert(0x00, 0x00)\n    tag_27:\n      pop\n      tag_28\n      tag_29\n      jump\t// in\n    tag_28:\n      mload(0x40)\n      tag_30\n      swap2\n      swap1\n      tag_31\n      jump\t// in\n    tag_30:\n      mload(0x40)\n      dup1\n      swap2\n      sub\n      swap1\n      return\n        /* \"contracts/LiskGarden.sol\":1427:1524  function getBalance() public view returns (uint256) {... */\n    tag_4:\n      callvalue\n      dup1\n      iszero\n      tag_32\n      jumpi\n      revert(0x00, 0x00)\n    tag_32:\n      pop\n      tag_33\n      tag_34\n      jump\t// in\n    tag_33:\n      mload(0x40)\n      tag_35\n      swap2\n      swap1\n      tag_31\n      jump\t// in\n    tag_35:\n      mload(0x40)\n      dup1\n      swap2\n      sub\n      swap1\n      return\n        /* \"contracts/LiskGarden.sol\":5209:5327  function getUserPlants(address user) external view returns (uint256[] memory) {... */\n    tag_5:\n      callvalue\n      dup1\n      iszero\n      tag_36\n      jumpi\n      revert(0x00, 0x00)\n    tag_36:\n      pop\n      tag_37\n      0x04\n      dup1\n      calldatasize\n      sub\n      dup2\n      add\n      swap1\n      tag_38\n      swap2\n      swap1\n      tag_39\n      jump\t// in\n    tag_38:\n      tag_40\n      jump\t// in\n    tag_37:\n      mload(0x40)\n      tag_41\n      swap2\n      swap1\n      tag_42\n      jump\t// in\n    tag_41:\n      mload(0x40)\n      dup1\n      swap2\n      sub\n      swap1\n      return\n        /* \"contracts/LiskGarden.sol\":5333:5538  function withdraw() external {... */\n    tag_6:\n      callvalue\n      dup1\n      iszero\n      tag_43\n      jumpi\n      revert(0x00, 0x00)\n    tag_43:\n      pop\n      tag_44\n      tag_45\n      jump\t// in\n    tag_44:\n      stop\n        /* \"contracts/LiskGarden.sol\":690:740  uint256 public constant STAGE_DURATION = 1 minutes */\n    tag_7:\n      callvalue\n      dup1\n      iszero\n      tag_46\n      jumpi\n      revert(0x00, 0x00)\n    tag_46:\n      pop\n      tag_47\n      tag_48\n      jump\t// in\n    tag_47:\n      mload(0x40)\n      tag_49\n      swap2\n      swap1\n      tag_31\n      jump\t// in\n    tag_49:\n      mload(0x40)\n      dup1\n      swap2\n      sub\n      swap1\n      return\n        /* \"contracts/LiskGarden.sol\":1530:2126  function plantSeed() external payable returns (uint256) {... */\n    tag_8:\n      tag_50\n      tag_51\n      jump\t// in\n    tag_50:\n      mload(0x40)\n      tag_52\n      swap2\n      swap1\n      tag_31\n      jump\t// in\n    tag_52:\n      mload(0x40)\n      dup1\n      swap2\n      sub\n      swap1\n      return\n        /* \"contracts/LiskGarden.sol\":2132:2690  function calculateWaterLevel(uint256 plantId) public view returns (uint8) {... */\n    tag_9:\n      callvalue\n      dup1\n      iszero\n      tag_53\n      jumpi\n      revert(0x00, 0x00)\n    tag_53:\n      pop\n      tag_54\n      0x04\n      dup1\n      calldatasize\n      sub\n      dup2\n      add\n      swap1\n      tag_55\n      swap2\n      swap1\n      tag_56\n      jump\t// in\n    tag_55:\n      tag_57\n      jump\t// in\n    tag_54:\n      mload(0x40)\n      tag_58\n      swap2\n      swap1\n      tag_59\n      jump\t// in\n    tag_58:\n      mload(0x40)\n      dup1\n      swap2\n      sub\n      swap1\n      return\n        /* \"contracts/LiskGarden.sol\":632:684  uint256 public constant HARVEST_REWARD = 0.003 ether */\n    tag_10:\n      callvalue\n      dup1\n      iszero\n      tag_60\n      jumpi\n      revert(0x00, 0x00)\n    tag_60:\n      pop\n      tag_61\n      tag_62\n      jump\t// in\n    tag_61:\n      mload(0x40)\n      tag_63\n      swap2\n      swap1\n      tag_31\n      jump\t// in\n    tag_63:\n      mload(0x40)\n      dup1\n      swap2\n      sub\n      swap1\n      return\n        /* \"contracts/LiskGarden.sol\":444:491  mapping(address => uint256[]) public userPlants */\n    tag_11:\n      callvalue\n      dup1\n      iszero\n      tag_64\n      jumpi\n      revert(0x00, 0x00)\n    tag_64:\n      pop\n      tag_65\n      0x04\n      dup1\n      calldatasize\n      sub\n      dup2\n      add\n      swap1\n      tag_66\n      swap2\n      swap1\n      tag_67\n      jump\t// in\n    tag_66:\n      tag_68\n      jump\t// in\n    tag_65:\n      mload(0x40)\n      tag_69\n      swap2\n      swap1\n      tag_31\n      jump\t// in\n    tag_69:\n      mload(0x40)\n      dup1\n      swap2\n      sub\n      swap1\n      return\n        /* \"contracts/LiskGarden.sol\":530:550  address public owner */\n    tag_12:\n      callvalue\n      dup1\n      iszero\n      tag_70\n      jumpi\n      revert(0x00, 0x00)\n    tag_70:\n      pop\n      tag_71\n      tag_72\n      jump\t// in\n    tag_71:\n      mload(0x40)\n      tag_73\n      swap2\n      swap1\n      tag_74\n      jump\t// in\n    tag_73:\n      mload(0x40)\n      dup1\n      swap2\n      sub\n      swap1\n      return\n        /* \"contracts/LiskGarden.sol\":399:438  mapping(uint256 => Plant) public plants */\n    tag_13:\n      callvalue\n      dup1\n      iszero\n      tag_75\n      jumpi\n      revert(0x00, 0x00)\n    tag_75:\n      pop\n      tag_76\n      0x04\n      dup1\n      calldatasize\n      sub\n      dup2\n      add\n      swap1\n      tag_77\n      swap2\n      swap1\n      tag_56\n      jump\t// in\n    tag_77:\n      tag_78\n      jump\t// in\n    tag_76:\n      mload(0x40)\n      tag_79\n      swap9\n      swap8\n      swap7\n      swap6\n      swap5\n      swap4\n      swap3\n      swap2\n      swap1\n      tag_80\n      jump\t// in\n    tag_79:\n      mload(0x40)\n      dup1\n      swap2\n      sub\n      swap1\n      return\n        /* \"contracts/LiskGarden.sol\":3039:3500  function waterPlant(uint256 plantId) external {... */\n    tag_14:\n      callvalue\n      dup1\n      iszero\n      tag_81\n      jumpi\n      revert(0x00, 0x00)\n    tag_81:\n      pop\n      tag_82\n      0x04\n      dup1\n      calldatasize\n      sub\n      dup2\n      add\n      swap1\n      tag_83\n      swap2\n      swap1\n      tag_56\n      jump\t// in\n    tag_83:\n      tag_84\n      jump\t// in\n    tag_82:\n      stop\n        /* \"contracts/LiskGarden.sol\":497:524  uint256 public plantCounter */\n    tag_15:\n      callvalue\n      dup1\n      iszero\n      tag_85\n      jumpi\n      revert(0x00, 0x00)\n    tag_85:\n      pop\n      tag_86\n      tag_87\n      jump\t// in\n    tag_86:\n      mload(0x40)\n      tag_88\n      swap2\n      swap1\n      tag_31\n      jump\t// in\n    tag_88:\n      mload(0x40)\n      dup1\n      swap2\n      sub\n      swap1\n      return\n        /* \"contracts/LiskGarden.sol\":810:856  uint8 public constant WATER_DEPLETION_RATE = 2 */\n    tag_16:\n      callvalue\n      dup1\n      iszero\n      tag_89\n      jumpi\n      revert(0x00, 0x00)\n    tag_89:\n      pop\n      tag_90\n      tag_91\n      jump\t// in\n    tag_90:\n      mload(0x40)\n      tag_92\n      swap2\n      swap1\n      tag_59\n      jump\t// in\n    tag_92:\n      mload(0x40)\n      dup1\n      swap2\n      sub\n      swap1\n      return\n        /* \"contracts/LiskGarden.sol\":577:626  uint256 public constant PLANT_PRICE = 0.001 ether */\n    tag_17:\n      callvalue\n      dup1\n      iszero\n      tag_93\n      jumpi\n      revert(0x00, 0x00)\n    tag_93:\n      pop\n      tag_94\n      tag_95\n      jump\t// in\n    tag_94:\n      mload(0x40)\n      tag_96\n      swap2\n      swap1\n      tag_31\n      jump\t// in\n    tag_96:\n      mload(0x40)\n      dup1\n      swap2\n      sub\n      swap1\n      return\n        /* \"contracts/LiskGarden.sol\":1364:1400  function deposit() public payable {} */\n    tag_18:\n      tag_97\n      tag_98\n      jump\t// in\n    tag_97:\n      stop\n        /* \"contracts/LiskGarden.sol\":3506:4280  function updatePlantStage(uint256 plantId) public {... */\n    tag_19:\n      callvalue\n      dup1\n      iszero\n      tag_99\n      jumpi\n      revert(0x00, 0x00)\n    tag_99:\n      pop\n      tag_100\n      0x04\n      dup1\n      calldatasize\n      sub\n      dup2\n      add\n      swap1\n      tag_101\n      swap2\n      swap1\n      tag_56\n      jump\t// in\n    tag_101:\n      tag_102\n      jump\t// in\n    tag_100:\n      stop\n        /* \"contracts/LiskGarden.sol\":4286:4952  function harvestPlant(uint256 plantId) external {... */\n    tag_20:\n      callvalue\n      dup1\n      iszero\n      tag_103\n      jumpi\n      revert(0x00, 0x00)\n    tag_103:\n      pop\n      tag_104\n      0x04\n      dup1\n      calldatasize\n      sub\n      dup2\n      add\n      swap1\n      tag_105\n      swap2\n      swap1\n      tag_56\n      jump\t// in\n    tag_105:\n      tag_106\n      jump\t// in\n    tag_104:\n      stop\n        /* \"contracts/LiskGarden.sol\":4999:5203  function getPlant(uint256 plantId) external view returns (Plant memory) {... */\n    tag_21:\n      callvalue\n      dup1\n      iszero\n      tag_107\n      jumpi\n      revert(0x00, 0x00)\n    tag_107:\n      pop\n      tag_108\n      0x04\n      dup1\n      calldatasize\n      sub\n      dup2\n      add\n      swap1\n      tag_109\n      swap2\n      swap1\n      tag_56\n      jump\t// in\n    tag_109:\n      tag_110\n      jump\t// in\n    tag_108:\n      mload(0x40)\n      tag_111\n      swap2\n      swap1\n      tag_112\n      jump\t// in\n    tag_111:\n      mload(0x40)\n      dup1\n      swap2\n      sub\n      swap1\n      return\n        /* \"contracts/LiskGarden.sol\":746:804  uint256 public constant WATER_DEPLESSION_TIME = 30 seconds */\n    tag_29:\n        /* \"contracts/LiskGarden.sol\":794:804  30 seconds */\n      0x1e\n        /* \"contracts/LiskGarden.sol\":746:804  uint256 public constant WATER_DEPLESSION_TIME = 30 seconds */\n      dup2\n      jump\t// out\n        /* \"contracts/LiskGarden.sol\":1427:1524  function getBalance() public view returns (uint256) {... */\n    tag_34:\n        /* \"contracts/LiskGarden.sol\":1470:1477  uint256 */\n      0x00\n        /* \"contracts/LiskGarden.sol\":1496:1517  address(this).balance */\n      selfbalance\n        /* \"contracts/LiskGarden.sol\":1489:1517  return address(this).balance */\n      swap1\n      pop\n        /* \"contracts/LiskGarden.sol\":1427:1524  function getBalance() public view returns (uint256) {... */\n      swap1\n      jump\t// out\n        /* \"contracts/LiskGarden.sol\":5209:5327  function getUserPlants(address user) external view returns (uint256[] memory) {... */\n    tag_40:\n        /* \"contracts/LiskGarden.sol\":5269:5285  uint256[] memory */\n      0x60\n        /* \"contracts/LiskGarden.sol\":5304:5314  userPlants */\n      0x01\n        /* \"contracts/LiskGarden.sol\":5304:5320  userPlants[user] */\n      0x00\n        /* \"contracts/LiskGarden.sol\":5315:5319  user */\n      dup4\n        /* \"contracts/LiskGarden.sol\":5304:5320  userPlants[user] */\n      0xffffffffffffffffffffffffffffffffffffffff\n      and\n      0xffffffffffffffffffffffffffffffffffffffff\n      and\n      dup2\n      mstore\n      0x20\n      add\n      swap1\n      dup2\n      mstore\n      0x20\n      add\n      0x00\n      keccak256\n        /* \"contracts/LiskGarden.sol\":5297:5320  return userPlants[user] */\n      dup1\n      sload\n      dup1\n      0x20\n      mul\n      0x20\n      add\n      mload(0x40)\n      swap1\n      dup2\n      add\n      0x40\n      mstore\n      dup1\n      swap3\n      swap2\n      swap1\n      dup2\n      dup2\n      mstore\n      0x20\n      add\n      dup3\n      dup1\n      sload\n      dup1\n      iszero\n      tag_115\n      jumpi\n      0x20\n      mul\n      dup3\n      add\n      swap2\n      swap1\n      0x00\n      mstore\n      keccak256(0x00, 0x20)\n      swap1\n    tag_116:\n      dup2\n      sload\n      dup2\n      mstore\n      0x20\n      add\n      swap1\n      0x01\n      add\n      swap1\n      dup1\n      dup4\n      gt\n      tag_116\n      jumpi\n    tag_115:\n      pop\n      pop\n      pop\n      pop\n      pop\n      swap1\n      pop\n        /* \"contracts/LiskGarden.sol\":5209:5327  function getUserPlants(address user) external view returns (uint256[] memory) {... */\n      swap2\n      swap1\n      pop\n      jump\t// out\n        /* \"contracts/LiskGarden.sol\":5333:5538  function withdraw() external {... */\n    tag_45:\n        /* \"contracts/LiskGarden.sol\":5394:5399  owner */\n      0x03\n      0x00\n      swap1\n      sload\n      swap1\n      0x0100\n      exp\n      swap1\n      div\n      0xffffffffffffffffffffffffffffffffffffffff\n      and\n        /* \"contracts/LiskGarden.sol\":5380:5399  msg.sender == owner */\n      0xffffffffffffffffffffffffffffffffffffffff\n      and\n        /* \"contracts/LiskGarden.sol\":5380:5390  msg.sender */\n      caller\n        /* \"contracts/LiskGarden.sol\":5380:5399  msg.sender == owner */\n      0xffffffffffffffffffffffffffffffffffffffff\n      and\n      eq\n        /* \"contracts/LiskGarden.sol\":5372:5413  require(msg.sender == owner, \"Not owner\") */\n      tag_118\n      jumpi\n      mload(0x40)\n      0x08c379a000000000000000000000000000000000000000000000000000000000\n      dup2\n      mstore\n      0x04\n      add\n      tag_119\n      swap1\n      tag_120\n      jump\t// in\n    tag_119:\n      mload(0x40)\n      dup1\n      swap2\n      sub\n      swap1\n      revert\n    tag_118:\n        /* \"contracts/LiskGarden.sol\":5424:5436  bool success */\n      0x00\n        /* \"contracts/LiskGarden.sol\":5442:5447  owner */\n      0x03\n      0x00\n      swap1\n      sload\n      swap1\n      0x0100\n      exp\n      swap1\n      div\n      0xffffffffffffffffffffffffffffffffffffffff\n      and\n        /* \"contracts/LiskGarden.sol\":5442:5452  owner.call */\n      0xffffffffffffffffffffffffffffffffffffffff\n      and\n        /* \"contracts/LiskGarden.sol\":5460:5481  address(this).balance */\n      selfbalance\n        /* \"contracts/LiskGarden.sol\":5442:5486  owner.call{value: address(this).balance}(\"\") */\n      mload(0x40)\n      tag_121\n      swap1\n      tag_122\n      jump\t// in\n    tag_121:\n      0x00\n      mload(0x40)\n      dup1\n      dup4\n      sub\n      dup2\n      dup6\n      dup8\n      gas\n      call\n      swap3\n      pop\n      pop\n      pop\n      returndatasize\n      dup1\n      0x00\n      dup2\n      eq\n      tag_125\n      jumpi\n      mload(0x40)\n      swap2\n      pop\n      and(add(returndatasize, 0x3f), not(0x1f))\n      dup3\n      add\n      0x40\n      mstore\n      returndatasize\n      dup3\n      mstore\n      returndatasize\n      0x00\n      0x20\n      dup5\n      add\n      returndatacopy\n      jump(tag_124)\n    tag_125:\n      0x60\n      swap2\n      pop\n    tag_124:\n      pop\n        /* \"contracts/LiskGarden.sol\":5423:5486  (bool success, ) = owner.call{value: address(this).balance}(\"\") */\n      pop\n      swap1\n      pop\n        /* \"contracts/LiskGarden.sol\":5504:5511  success */\n      dup1\n        /* \"contracts/LiskGarden.sol\":5496:5531  require(success, \"Transfer failed\") */\n      tag_126\n      jumpi\n      mload(0x40)\n      0x08c379a000000000000000000000000000000000000000000000000000000000\n      dup2\n      mstore\n      0x04\n      add\n      tag_127\n      swap1\n      tag_128\n      jump\t// in\n    tag_127:\n      mload(0x40)\n      dup1\n      swap2\n      sub\n      swap1\n      revert\n    tag_126:\n        /* \"contracts/LiskGarden.sol\":5362:5538  {... */\n      pop\n        /* \"contracts/LiskGarden.sol\":5333:5538  function withdraw() external {... */\n      jump\t// out\n        /* \"contracts/LiskGarden.sol\":690:740  uint256 public constant STAGE_DURATION = 1 minutes */\n    tag_48:\n        /* \"contracts/LiskGarden.sol\":731:740  1 minutes */\n      0x3c\n        /* \"contracts/LiskGarden.sol\":690:740  uint256 public constant STAGE_DURATION = 1 minutes */\n      dup2\n      jump\t// out\n        /* \"contracts/LiskGarden.sol\":1530:2126  function plantSeed() external payable returns (uint256) {... */\n    tag_51:\n        /* \"contracts/LiskGarden.sol\":1577:1584  uint256 */\n      0x00\n        /* \"contracts/LiskGarden.sol\":615:626  0.001 ether */\n      0x038d7ea4c68000\n        /* \"contracts/LiskGarden.sol\":1604:1613  msg.value */\n      callvalue\n        /* \"contracts/LiskGarden.sol\":1604:1628  msg.value >= PLANT_PRICE */\n      lt\n      iszero\n        /* \"contracts/LiskGarden.sol\":1596:1647  require(msg.value >= PLANT_PRICE, \"Need 0.001 ETH\") */\n      tag_130\n      jumpi\n      mload(0x40)\n      0x08c379a000000000000000000000000000000000000000000000000000000000\n      dup2\n      mstore\n      0x04\n      add\n      tag_131\n      swap1\n      tag_132\n      jump\t// in\n    tag_131:\n      mload(0x40)\n      dup1\n      swap2\n      sub\n      swap1\n      revert\n    tag_130:\n        /* \"contracts/LiskGarden.sol\":1657:1669  plantCounter */\n      0x02\n      0x00\n        /* \"contracts/LiskGarden.sol\":1657:1671  plantCounter++ */\n      dup2\n      sload\n      dup1\n      swap3\n      swap2\n      swap1\n      tag_133\n      swap1\n      tag_134\n      jump\t// in\n    tag_133:\n      swap2\n      swap1\n      pop\n      sstore\n      pop\n        /* \"contracts/LiskGarden.sol\":1705:1986  Plant({... */\n      mload(0x40)\n      dup1\n      0x0100\n      add\n      0x40\n      mstore\n      dup1\n        /* \"contracts/LiskGarden.sol\":1729:1741  plantCounter */\n      sload(0x02)\n        /* \"contracts/LiskGarden.sol\":1705:1986  Plant({... */\n      dup2\n      mstore\n      0x20\n      add\n        /* \"contracts/LiskGarden.sol\":1762:1772  msg.sender */\n      caller\n        /* \"contracts/LiskGarden.sol\":1705:1986  Plant({... */\n      0xffffffffffffffffffffffffffffffffffffffff\n      and\n      dup2\n      mstore\n      0x20\n      add\n        /* \"contracts/LiskGarden.sol\":1793:1809  GrowthStage.SEED */\n      0x00\n        /* \"contracts/LiskGarden.sol\":1705:1986  Plant({... */\n      0x03\n      dup2\n      gt\n      iszero\n      tag_135\n      jumpi\n      tag_136\n      tag_137\n      jump\t// in\n    tag_136:\n    tag_135:\n      dup2\n      mstore\n      0x20\n      add\n        /* \"contracts/LiskGarden.sol\":1836:1851  block.timestamp */\n      timestamp\n        /* \"contracts/LiskGarden.sol\":1705:1986  Plant({... */\n      dup2\n      mstore\n      0x20\n      add\n        /* \"contracts/LiskGarden.sol\":1878:1893  block.timestamp */\n      timestamp\n        /* \"contracts/LiskGarden.sol\":1705:1986  Plant({... */\n      dup2\n      mstore\n      0x20\n      add\n        /* \"contracts/LiskGarden.sol\":1919:1922  100 */\n      0x64\n        /* \"contracts/LiskGarden.sol\":1705:1986  Plant({... */\n      0xff\n      and\n      dup2\n      mstore\n      0x20\n      add\n        /* \"contracts/LiskGarden.sol\":1944:1948  true */\n      0x01\n        /* \"contracts/LiskGarden.sol\":1705:1986  Plant({... */\n      iszero\n      iszero\n      dup2\n      mstore\n      0x20\n      add\n        /* \"contracts/LiskGarden.sol\":1970:1975  false */\n      0x00\n        /* \"contracts/LiskGarden.sol\":1705:1986  Plant({... */\n      iszero\n      iszero\n      dup2\n      mstore\n      pop\n        /* \"contracts/LiskGarden.sol\":1682:1688  plants */\n      0x00\n        /* \"contracts/LiskGarden.sol\":1682:1702  plants[plantCounter] */\n      0x00\n        /* \"contracts/LiskGarden.sol\":1689:1701  plantCounter */\n      sload(0x02)\n        /* \"contracts/LiskGarden.sol\":1682:1702  plants[plantCounter] */\n      dup2\n      mstore\n      0x20\n      add\n      swap1\n      dup2\n      mstore\n      0x20\n      add\n      0x00\n      keccak256\n        /* \"contracts/LiskGarden.sol\":1682:1986  plants[plantCounter] = Plant({... */\n      0x00\n      dup3\n      add\n      mload\n      dup2\n      0x00\n      add\n      sstore\n      0x20\n      dup3\n      add\n      mload\n      dup2\n      0x01\n      add\n      exp(0x0100, 0x00)\n      dup2\n      sload\n      dup2\n      0xffffffffffffffffffffffffffffffffffffffff\n      mul\n      not\n      and\n      swap1\n      dup4\n      0xffffffffffffffffffffffffffffffffffffffff\n      and\n      mul\n      or\n      swap1\n      sstore\n      pop\n      0x40\n      dup3\n      add\n      mload\n      dup2\n      0x01\n      add\n      exp(0x0100, 0x14)\n      dup2\n      sload\n      dup2\n      0xff\n      mul\n      not\n      and\n      swap1\n      dup4\n      0x03\n      dup2\n      gt\n      iszero\n      tag_138\n      jumpi\n      tag_139\n      tag_137\n      jump\t// in\n    tag_139:\n    tag_138:\n      mul\n      or\n      swap1\n      sstore\n      pop\n      0x60\n      dup3\n      add\n      mload\n      dup2\n      0x02\n      add\n      sstore\n      0x80\n      dup3\n      add\n      mload\n      dup2\n      0x03\n      add\n      sstore\n      0xa0\n      dup3\n      add\n      mload\n      dup2\n      0x04\n      add\n      exp(0x0100, 0x00)\n      dup2\n      sload\n      dup2\n      0xff\n      mul\n      not\n      and\n      swap1\n      dup4\n      0xff\n      and\n      mul\n      or\n      swap1\n      sstore\n      pop\n      0xc0\n      dup3\n      add\n      mload\n      dup2\n      0x04\n      add\n      exp(0x0100, 0x01)\n      dup2\n      sload\n      dup2\n      0xff\n      mul\n      not\n      and\n      swap1\n      dup4\n      iszero\n      iszero\n      mul\n      or\n      swap1\n      sstore\n      pop\n      0xe0\n      dup3\n      add\n      mload\n      dup2\n      0x04\n      add\n      exp(0x0100, 0x02)\n      dup2\n      sload\n      dup2\n      0xff\n      mul\n      not\n      and\n      swap1\n      dup4\n      iszero\n      iszero\n      mul\n      or\n      swap1\n      sstore\n      pop\n      swap1\n      pop\n      pop\n        /* \"contracts/LiskGarden.sol\":1997:2007  userPlants */\n      0x01\n        /* \"contracts/LiskGarden.sol\":1997:2019  userPlants[msg.sender] */\n      0x00\n        /* \"contracts/LiskGarden.sol\":2008:2018  msg.sender */\n      caller\n        /* \"contracts/LiskGarden.sol\":1997:2019  userPlants[msg.sender] */\n      0xffffffffffffffffffffffffffffffffffffffff\n      and\n      0xffffffffffffffffffffffffffffffffffffffff\n      and\n      dup2\n      mstore\n      0x20\n      add\n      swap1\n      dup2\n      mstore\n      0x20\n      add\n      0x00\n      keccak256\n        /* \"contracts/LiskGarden.sol\":2025:2037  plantCounter */\n      sload(0x02)\n        /* \"contracts/LiskGarden.sol\":1997:2038  userPlants[msg.sender].push(plantCounter) */\n      swap1\n      dup1\n      0x01\n      dup2\n      sload\n      add\n      dup1\n      dup3\n      sstore\n      dup1\n      swap2\n      pop\n      pop\n      0x01\n      swap1\n      sub\n      swap1\n      0x00\n      mstore\n      keccak256(0x00, 0x20)\n      add\n      0x00\n      swap1\n      swap2\n      swap1\n      swap2\n      swap1\n      swap2\n      pop\n      sstore\n        /* \"contracts/LiskGarden.sol\":2077:2089  plantCounter */\n      sload(0x02)\n        /* \"contracts/LiskGarden.sol\":2065:2075  msg.sender */\n      caller\n        /* \"contracts/LiskGarden.sol\":2053:2090  PlantSeeded(msg.sender, plantCounter) */\n      0xffffffffffffffffffffffffffffffffffffffff\n      and\n      0x4f5b22082ac57121703b0b6c1203ef527cfbfa5069616fee6deb979d124adbf0\n      mload(0x40)\n      mload(0x40)\n      dup1\n      swap2\n      sub\n      swap1\n      log3\n        /* \"contracts/LiskGarden.sol\":2107:2119  plantCounter */\n      sload(0x02)\n        /* \"contracts/LiskGarden.sol\":2100:2119  return plantCounter */\n      swap1\n      pop\n        /* \"contracts/LiskGarden.sol\":1530:2126  function plantSeed() external payable returns (uint256) {... */\n      swap1\n      jump\t// out\n        /* \"contracts/LiskGarden.sol\":2132:2690  function calculateWaterLevel(uint256 plantId) public view returns (uint8) {... */\n    tag_57:\n        /* \"contracts/LiskGarden.sol\":2199:2204  uint8 */\n      0x00\n        /* \"contracts/LiskGarden.sol\":2216:2235  Plant storage plant */\n      0x00\n        /* \"contracts/LiskGarden.sol\":2238:2244  plants */\n      0x00\n        /* \"contracts/LiskGarden.sol\":2238:2253  plants[plantId] */\n      0x00\n        /* \"contracts/LiskGarden.sol\":2245:2252  plantId */\n      dup5\n        /* \"contracts/LiskGarden.sol\":2238:2253  plants[plantId] */\n      dup2\n      mstore\n      0x20\n      add\n      swap1\n      dup2\n      mstore\n      0x20\n      add\n      0x00\n      keccak256\n        /* \"contracts/LiskGarden.sol\":2216:2253  Plant storage plant = plants[plantId] */\n      swap1\n      pop\n        /* \"contracts/LiskGarden.sol\":2268:2273  plant */\n      dup1\n        /* \"contracts/LiskGarden.sol\":2268:2280  plant.exists */\n      0x04\n      add\n      0x01\n      swap1\n      sload\n      swap1\n      0x0100\n      exp\n      swap1\n      div\n      0xff\n      and\n        /* \"contracts/LiskGarden.sol\":2267:2280  !plant.exists */\n      iszero\n        /* \"contracts/LiskGarden.sol\":2267:2296  !plant.exists || plant.isDead */\n      dup1\n      tag_142\n      jumpi\n      pop\n        /* \"contracts/LiskGarden.sol\":2284:2289  plant */\n      dup1\n        /* \"contracts/LiskGarden.sol\":2284:2296  plant.isDead */\n      0x04\n      add\n      0x02\n      swap1\n      sload\n      swap1\n      0x0100\n      exp\n      swap1\n      div\n      0xff\n      and\n        /* \"contracts/LiskGarden.sol\":2267:2296  !plant.exists || plant.isDead */\n    tag_142:\n        /* \"contracts/LiskGarden.sol\":2263:2331  if (!plant.exists || plant.isDead) {... */\n      iszero\n      tag_143\n      jumpi\n        /* \"contracts/LiskGarden.sol\":2319:2320  0 */\n      0x00\n        /* \"contracts/LiskGarden.sol\":2312:2320  return 0 */\n      swap2\n      pop\n      pop\n      jump(tag_141)\n        /* \"contracts/LiskGarden.sol\":2263:2331  if (!plant.exists || plant.isDead) {... */\n    tag_143:\n        /* \"contracts/LiskGarden.sol\":2341:2365  uint256 timeSinceWatered */\n      0x00\n        /* \"contracts/LiskGarden.sol\":2386:2391  plant */\n      dup2\n        /* \"contracts/LiskGarden.sol\":2386:2403  plant.lastWatered */\n      0x03\n      add\n      sload\n        /* \"contracts/LiskGarden.sol\":2368:2383  block.timestamp */\n      timestamp\n        /* \"contracts/LiskGarden.sol\":2368:2403  block.timestamp - plant.lastWatered */\n      tag_144\n      swap2\n      swap1\n      tag_145\n      jump\t// in\n    tag_144:\n        /* \"contracts/LiskGarden.sol\":2341:2403  uint256 timeSinceWatered = block.timestamp - plant.lastWatered */\n      swap1\n      pop\n        /* \"contracts/LiskGarden.sol\":2413:2439  uint256 depletionIntervals */\n      0x00\n        /* \"contracts/LiskGarden.sol\":794:804  30 seconds */\n      0x1e\n        /* \"contracts/LiskGarden.sol\":2442:2458  timeSinceWatered */\n      dup3\n        /* \"contracts/LiskGarden.sol\":2442:2482  timeSinceWatered / WATER_DEPLESSION_TIME */\n      tag_146\n      swap2\n      swap1\n      tag_147\n      jump\t// in\n    tag_146:\n        /* \"contracts/LiskGarden.sol\":2413:2482  uint256 depletionIntervals = timeSinceWatered / WATER_DEPLESSION_TIME */\n      swap1\n      pop\n        /* \"contracts/LiskGarden.sol\":2492:2509  uint256 waterLost */\n      0x00\n        /* \"contracts/LiskGarden.sol\":855:856  2 */\n      0x02\n        /* \"contracts/LiskGarden.sol\":2512:2553  depletionIntervals * WATER_DEPLETION_RATE */\n      0xff\n      and\n        /* \"contracts/LiskGarden.sol\":2512:2530  depletionIntervals */\n      dup3\n        /* \"contracts/LiskGarden.sol\":2512:2553  depletionIntervals * WATER_DEPLETION_RATE */\n      tag_148\n      swap2\n      swap1\n      tag_149\n      jump\t// in\n    tag_148:\n        /* \"contracts/LiskGarden.sol\":2492:2553  uint256 waterLost = depletionIntervals * WATER_DEPLETION_RATE */\n      swap1\n      pop\n        /* \"contracts/LiskGarden.sol\":2581:2586  plant */\n      dup4\n        /* \"contracts/LiskGarden.sol\":2581:2597  plant.waterLevel */\n      0x04\n      add\n      0x00\n      swap1\n      sload\n      swap1\n      0x0100\n      exp\n      swap1\n      div\n      0xff\n      and\n        /* \"contracts/LiskGarden.sol\":2568:2597  waterLost >= plant.waterLevel */\n      0xff\n      and\n        /* \"contracts/LiskGarden.sol\":2568:2577  waterLost */\n      dup2\n        /* \"contracts/LiskGarden.sol\":2568:2597  waterLost >= plant.waterLevel */\n      lt\n        /* \"contracts/LiskGarden.sol\":2564:2632  if (waterLost >= plant.waterLevel) {... */\n      tag_150\n      jumpi\n        /* \"contracts/LiskGarden.sol\":2620:2621  0 */\n      0x00\n        /* \"contracts/LiskGarden.sol\":2613:2621  return 0 */\n      swap5\n      pop\n      pop\n      pop\n      pop\n      pop\n      jump(tag_141)\n        /* \"contracts/LiskGarden.sol\":2564:2632  if (waterLost >= plant.waterLevel) {... */\n    tag_150:\n        /* \"contracts/LiskGarden.sol\":2673:2682  waterLost */\n      dup1\n        /* \"contracts/LiskGarden.sol\":2648:2653  plant */\n      dup5\n        /* \"contracts/LiskGarden.sol\":2648:2664  plant.waterLevel */\n      0x04\n      add\n      0x00\n      swap1\n      sload\n      swap1\n      0x0100\n      exp\n      swap1\n      div\n      0xff\n      and\n        /* \"contracts/LiskGarden.sol\":2648:2683  plant.waterLevel - uint8(waterLost) */\n      tag_151\n      swap2\n      swap1\n      tag_152\n      jump\t// in\n    tag_151:\n        /* \"contracts/LiskGarden.sol\":2641:2683  return plant.waterLevel - uint8(waterLost) */\n      swap5\n      pop\n      pop\n      pop\n      pop\n      pop\n        /* \"contracts/LiskGarden.sol\":2132:2690  function calculateWaterLevel(uint256 plantId) public view returns (uint8) {... */\n    tag_141:\n      swap2\n      swap1\n      pop\n      jump\t// out\n        /* \"contracts/LiskGarden.sol\":632:684  uint256 public constant HARVEST_REWARD = 0.003 ether */\n    tag_62:\n        /* \"contracts/LiskGarden.sol\":673:684  0.003 ether */\n      0x0aa87bee538000\n        /* \"contracts/LiskGarden.sol\":632:684  uint256 public constant HARVEST_REWARD = 0.003 ether */\n      dup2\n      jump\t// out\n        /* \"contracts/LiskGarden.sol\":444:491  mapping(address => uint256[]) public userPlants */\n    tag_68:\n      mstore(0x20, 0x01)\n      dup2\n      0x00\n      mstore\n      keccak256(0x00, 0x40)\n      dup2\n      dup2\n      sload\n      dup2\n      lt\n      tag_153\n      jumpi\n      0x00\n      dup1\n      revert\n    tag_153:\n      swap1\n      0x00\n      mstore\n      keccak256(0x00, 0x20)\n      add\n      0x00\n      swap2\n      pop\n      swap2\n      pop\n      pop\n      sload\n      dup2\n      jump\t// out\n        /* \"contracts/LiskGarden.sol\":530:550  address public owner */\n    tag_72:\n      0x03\n      0x00\n      swap1\n      sload\n      swap1\n      0x0100\n      exp\n      swap1\n      div\n      0xffffffffffffffffffffffffffffffffffffffff\n      and\n      dup2\n      jump\t// out\n        /* \"contracts/LiskGarden.sol\":399:438  mapping(uint256 => Plant) public plants */\n    tag_78:\n      mstore(0x20, 0x00)\n      dup1\n      0x00\n      mstore\n      keccak256(0x00, 0x40)\n      0x00\n      swap2\n      pop\n      swap1\n      pop\n      dup1\n      0x00\n      add\n      sload\n      swap1\n      dup1\n      0x01\n      add\n      0x00\n      swap1\n      sload\n      swap1\n      0x0100\n      exp\n      swap1\n      div\n      0xffffffffffffffffffffffffffffffffffffffff\n      and\n      swap1\n      dup1\n      0x01\n      add\n      0x14\n      swap1\n      sload\n      swap1\n      0x0100\n      exp\n      swap1\n      div\n      0xff\n      and\n      swap1\n      dup1\n      0x02\n      add\n      sload\n      swap1\n      dup1\n      0x03\n      add\n      sload\n      swap1\n      dup1\n      0x04\n      add\n      0x00\n      swap1\n      sload\n      swap1\n      0x0100\n      exp\n      swap1\n      div\n      0xff\n      and\n      swap1\n      dup1\n      0x04\n      add\n      0x01\n      swap1\n      sload\n      swap1\n      0x0100\n      exp\n      swap1\n      div\n      0xff\n      and\n      swap1\n      dup1\n      0x04\n      add\n      0x02\n      swap1\n      sload\n      swap1\n      0x0100\n      exp\n      swap1\n      div\n      0xff\n      and\n      swap1\n      pop\n      dup9\n      jump\t// out\n        /* \"contracts/LiskGarden.sol\":3039:3500  function waterPlant(uint256 plantId) external {... */\n    tag_84:\n        /* \"contracts/LiskGarden.sol\":3095:3114  Plant storage plant */\n      0x00\n        /* \"contracts/LiskGarden.sol\":3117:3123  plants */\n      0x00\n        /* \"contracts/LiskGarden.sol\":3117:3132  plants[plantId] */\n      0x00\n        /* \"contracts/LiskGarden.sol\":3124:3131  plantId */\n      dup4\n        /* \"contracts/LiskGarden.sol\":3117:3132  plants[plantId] */\n      dup2\n      mstore\n      0x20\n      add\n      swap1\n      dup2\n      mstore\n      0x20\n      add\n      0x00\n      keccak256\n        /* \"contracts/LiskGarden.sol\":3095:3132  Plant storage plant = plants[plantId] */\n      swap1\n      pop\n        /* \"contracts/LiskGarden.sol\":3150:3155  plant */\n      dup1\n        /* \"contracts/LiskGarden.sol\":3150:3162  plant.exists */\n      0x04\n      add\n      0x01\n      swap1\n      sload\n      swap1\n      0x0100\n      exp\n      swap1\n      div\n      0xff\n      and\n        /* \"contracts/LiskGarden.sol\":3142:3187  require(plant.exists, \"Plant does not exist\") */\n      tag_156\n      jumpi\n      mload(0x40)\n      0x08c379a000000000000000000000000000000000000000000000000000000000\n      dup2\n      mstore\n      0x04\n      add\n      tag_157\n      swap1\n      tag_158\n      jump\t// in\n    tag_157:\n      mload(0x40)\n      dup1\n      swap2\n      sub\n      swap1\n      revert\n    tag_156:\n        /* \"contracts/LiskGarden.sol\":3219:3224  plant */\n      dup1\n        /* \"contracts/LiskGarden.sol\":3219:3230  plant.owner */\n      0x01\n      add\n      0x00\n      swap1\n      sload\n      swap1\n      0x0100\n      exp\n      swap1\n      div\n      0xffffffffffffffffffffffffffffffffffffffff\n      and\n        /* \"contracts/LiskGarden.sol\":3205:3230  msg.sender == plant.owner */\n      0xffffffffffffffffffffffffffffffffffffffff\n      and\n        /* \"contracts/LiskGarden.sol\":3205:3215  msg.sender */\n      caller\n        /* \"contracts/LiskGarden.sol\":3205:3230  msg.sender == plant.owner */\n      0xffffffffffffffffffffffffffffffffffffffff\n      and\n      eq\n        /* \"contracts/LiskGarden.sol\":3197:3268  require(msg.sender == plant.owner, \"Only the plant owner can water it\") */\n      tag_159\n      jumpi\n      mload(0x40)\n      0x08c379a000000000000000000000000000000000000000000000000000000000\n      dup2\n      mstore\n      0x04\n      add\n      tag_160\n      swap1\n      tag_161\n      jump\t// in\n    tag_160:\n      mload(0x40)\n      dup1\n      swap2\n      sub\n      swap1\n      revert\n    tag_159:\n        /* \"contracts/LiskGarden.sol\":3287:3292  plant */\n      dup1\n        /* \"contracts/LiskGarden.sol\":3287:3299  plant.isDead */\n      0x04\n      add\n      0x02\n      swap1\n      sload\n      swap1\n      0x0100\n      exp\n      swap1\n      div\n      0xff\n      and\n        /* \"contracts/LiskGarden.sol\":3286:3299  !plant.isDead */\n      iszero\n        /* \"contracts/LiskGarden.sol\":3278:3339  require(!plant.isDead, \"Plant is dead and cannot be watered\") */\n      tag_162\n      jumpi\n      mload(0x40)\n      0x08c379a000000000000000000000000000000000000000000000000000000000\n      dup2\n      mstore\n      0x04\n      add\n      tag_163\n      swap1\n      tag_164\n      jump\t// in\n    tag_163:\n      mload(0x40)\n      dup1\n      swap2\n      sub\n      swap1\n      revert\n    tag_162:\n        /* \"contracts/LiskGarden.sol\":3369:3372  100 */\n      0x64\n        /* \"contracts/LiskGarden.sol\":3350:3355  plant */\n      dup2\n        /* \"contracts/LiskGarden.sol\":3350:3366  plant.waterLevel */\n      0x04\n      add\n      0x00\n        /* \"contracts/LiskGarden.sol\":3350:3372  plant.waterLevel = 100 */\n      0x0100\n      exp\n      dup2\n      sload\n      dup2\n      0xff\n      mul\n      not\n      and\n      swap1\n      dup4\n      0xff\n      and\n      mul\n      or\n      swap1\n      sstore\n      pop\n        /* \"contracts/LiskGarden.sol\":3402:3417  block.timestamp */\n      timestamp\n        /* \"contracts/LiskGarden.sol\":3382:3387  plant */\n      dup2\n        /* \"contracts/LiskGarden.sol\":3382:3399  plant.lastWatered */\n      0x03\n      add\n        /* \"contracts/LiskGarden.sol\":3382:3417  plant.lastWatered = block.timestamp */\n      dup2\n      swap1\n      sstore\n      pop\n        /* \"contracts/LiskGarden.sol\":3445:3452  plantId */\n      dup2\n        /* \"contracts/LiskGarden.sol\":3432:3458  PlantWatered(plantId, 100) */\n      0xd4b742b9ba48fffa1f14267075a7793851770764117c423fd0a6550dfc8cb574\n        /* \"contracts/LiskGarden.sol\":3454:3457  100 */\n      0x64\n        /* \"contracts/LiskGarden.sol\":3432:3458  PlantWatered(plantId, 100) */\n      mload(0x40)\n      tag_165\n      swap2\n      swap1\n      tag_166\n      jump\t// in\n    tag_165:\n      mload(0x40)\n      dup1\n      swap2\n      sub\n      swap1\n      log2\n        /* \"contracts/LiskGarden.sol\":3468:3493  updatePlantStage(plantId) */\n      tag_167\n        /* \"contracts/LiskGarden.sol\":3485:3492  plantId */\n      dup3\n        /* \"contracts/LiskGarden.sol\":3468:3484  updatePlantStage */\n      tag_102\n        /* \"contracts/LiskGarden.sol\":3468:3493  updatePlantStage(plantId) */\n      jump\t// in\n    tag_167:\n        /* \"contracts/LiskGarden.sol\":3085:3500  {... */\n      pop\n        /* \"contracts/LiskGarden.sol\":3039:3500  function waterPlant(uint256 plantId) external {... */\n      pop\n      jump\t// out\n        /* \"contracts/LiskGarden.sol\":497:524  uint256 public plantCounter */\n    tag_87:\n      sload(0x02)\n      dup2\n      jump\t// out\n        /* \"contracts/LiskGarden.sol\":810:856  uint8 public constant WATER_DEPLETION_RATE = 2 */\n    tag_91:\n        /* \"contracts/LiskGarden.sol\":855:856  2 */\n      0x02\n        /* \"contracts/LiskGarden.sol\":810:856  uint8 public constant WATER_DEPLETION_RATE = 2 */\n      dup2\n      jump\t// out\n        /* \"contracts/LiskGarden.sol\":577:626  uint256 public constant PLANT_PRICE = 0.001 ether */\n    tag_95:\n        /* \"contracts/LiskGarden.sol\":615:626  0.001 ether */\n      0x038d7ea4c68000\n        /* \"contracts/LiskGarden.sol\":577:626  uint256 public constant PLANT_PRICE = 0.001 ether */\n      dup2\n      jump\t// out\n        /* \"contracts/LiskGarden.sol\":1364:1400  function deposit() public payable {} */\n    tag_98:\n      jump\t// out\n        /* \"contracts/LiskGarden.sol\":3506:4280  function updatePlantStage(uint256 plantId) public {... */\n    tag_102:\n        /* \"contracts/LiskGarden.sol\":3566:3585  Plant storage plant */\n      0x00\n        /* \"contracts/LiskGarden.sol\":3588:3594  plants */\n      0x00\n        /* \"contracts/LiskGarden.sol\":3588:3603  plants[plantId] */\n      0x00\n        /* \"contracts/LiskGarden.sol\":3595:3602  plantId */\n      dup4\n        /* \"contracts/LiskGarden.sol\":3588:3603  plants[plantId] */\n      dup2\n      mstore\n      0x20\n      add\n      swap1\n      dup2\n      mstore\n      0x20\n      add\n      0x00\n      keccak256\n        /* \"contracts/LiskGarden.sol\":3566:3603  Plant storage plant = plants[plantId] */\n      swap1\n      pop\n        /* \"contracts/LiskGarden.sol\":3621:3626  plant */\n      dup1\n        /* \"contracts/LiskGarden.sol\":3621:3633  plant.exists */\n      0x04\n      add\n      0x01\n      swap1\n      sload\n      swap1\n      0x0100\n      exp\n      swap1\n      div\n      0xff\n      and\n        /* \"contracts/LiskGarden.sol\":3613:3658  require(plant.exists, \"Plant does not exist\") */\n      tag_170\n      jumpi\n      mload(0x40)\n      0x08c379a000000000000000000000000000000000000000000000000000000000\n      dup2\n      mstore\n      0x04\n      add\n      tag_171\n      swap1\n      tag_158\n      jump\t// in\n    tag_171:\n      mload(0x40)\n      dup1\n      swap2\n      sub\n      swap1\n      revert\n    tag_170:\n        /* \"contracts/LiskGarden.sol\":3669:3694  updateWaterLevel(plantId) */\n      tag_172\n        /* \"contracts/LiskGarden.sol\":3686:3693  plantId */\n      dup3\n        /* \"contracts/LiskGarden.sol\":3669:3685  updateWaterLevel */\n      tag_173\n        /* \"contracts/LiskGarden.sol\":3669:3694  updateWaterLevel(plantId) */\n      jump\t// in\n    tag_172:\n        /* \"contracts/LiskGarden.sol\":3708:3713  plant */\n      dup1\n        /* \"contracts/LiskGarden.sol\":3708:3720  plant.isDead */\n      0x04\n      add\n      0x02\n      swap1\n      sload\n      swap1\n      0x0100\n      exp\n      swap1\n      div\n      0xff\n      and\n        /* \"contracts/LiskGarden.sol\":3704:3729  if (plant.isDead) return; */\n      iszero\n      tag_174\n      jumpi\n        /* \"contracts/LiskGarden.sol\":3722:3729  return; */\n      pop\n      jump(tag_169)\n        /* \"contracts/LiskGarden.sol\":3704:3729  if (plant.isDead) return; */\n    tag_174:\n        /* \"contracts/LiskGarden.sol\":3739:3763  uint256 timeSincePlanted */\n      0x00\n        /* \"contracts/LiskGarden.sol\":3784:3789  plant */\n      dup2\n        /* \"contracts/LiskGarden.sol\":3784:3801  plant.plantedDate */\n      0x02\n      add\n      sload\n        /* \"contracts/LiskGarden.sol\":3766:3781  block.timestamp */\n      timestamp\n        /* \"contracts/LiskGarden.sol\":3766:3801  block.timestamp - plant.plantedDate */\n      tag_175\n      swap2\n      swap1\n      tag_145\n      jump\t// in\n    tag_175:\n        /* \"contracts/LiskGarden.sol\":3739:3801  uint256 timeSincePlanted = block.timestamp - plant.plantedDate */\n      swap1\n      pop\n        /* \"contracts/LiskGarden.sol\":3811:3831  GrowthStage oldStage */\n      0x00\n        /* \"contracts/LiskGarden.sol\":3834:3839  plant */\n      dup3\n        /* \"contracts/LiskGarden.sol\":3834:3845  plant.stage */\n      0x01\n      add\n      0x14\n      swap1\n      sload\n      swap1\n      0x0100\n      exp\n      swap1\n      div\n      0xff\n      and\n        /* \"contracts/LiskGarden.sol\":3811:3845  GrowthStage oldStage = plant.stage */\n      swap1\n      pop\n        /* \"contracts/LiskGarden.sol\":731:740  1 minutes */\n      0x3c\n        /* \"contracts/LiskGarden.sol\":3880:3881  3 */\n      0x03\n        /* \"contracts/LiskGarden.sol\":3880:3898  3 * STAGE_DURATION */\n      tag_176\n      swap2\n      swap1\n      tag_149\n      jump\t// in\n    tag_176:\n        /* \"contracts/LiskGarden.sol\":3860:3876  timeSincePlanted */\n      dup3\n        /* \"contracts/LiskGarden.sol\":3860:3898  timeSincePlanted >= 3 * STAGE_DURATION */\n      lt\n        /* \"contracts/LiskGarden.sol\":3856:4170  if (timeSincePlanted >= 3 * STAGE_DURATION) {... */\n      tag_177\n      jumpi\n        /* \"contracts/LiskGarden.sol\":3928:3948  GrowthStage.BLOOMING */\n      0x03\n        /* \"contracts/LiskGarden.sol\":3914:3919  plant */\n      dup4\n        /* \"contracts/LiskGarden.sol\":3914:3925  plant.stage */\n      0x01\n      add\n      0x14\n        /* \"contracts/LiskGarden.sol\":3914:3948  plant.stage = GrowthStage.BLOOMING */\n      0x0100\n      exp\n      dup2\n      sload\n      dup2\n      0xff\n      mul\n      not\n      and\n      swap1\n      dup4\n      0x03\n      dup2\n      gt\n      iszero\n      tag_178\n      jumpi\n      tag_179\n      tag_137\n      jump\t// in\n    tag_179:\n    tag_178:\n      mul\n      or\n      swap1\n      sstore\n      pop\n        /* \"contracts/LiskGarden.sol\":3856:4170  if (timeSincePlanted >= 3 * STAGE_DURATION) {... */\n      jump(tag_180)\n    tag_177:\n        /* \"contracts/LiskGarden.sol\":731:740  1 minutes */\n      0x3c\n        /* \"contracts/LiskGarden.sol\":3989:3990  2 */\n      0x02\n        /* \"contracts/LiskGarden.sol\":3989:4007  2 * STAGE_DURATION */\n      tag_181\n      swap2\n      swap1\n      tag_149\n      jump\t// in\n    tag_181:\n        /* \"contracts/LiskGarden.sol\":3969:3985  timeSincePlanted */\n      dup3\n        /* \"contracts/LiskGarden.sol\":3969:4007  timeSincePlanted >= 2 * STAGE_DURATION */\n      lt\n        /* \"contracts/LiskGarden.sol\":3965:4170  if (timeSincePlanted >= 2 * STAGE_DURATION) {... */\n      tag_182\n      jumpi\n        /* \"contracts/LiskGarden.sol\":4037:4056  GrowthStage.GROWING */\n      0x02\n        /* \"contracts/LiskGarden.sol\":4023:4028  plant */\n      dup4\n        /* \"contracts/LiskGarden.sol\":4023:4034  plant.stage */\n      0x01\n      add\n      0x14\n        /* \"contracts/LiskGarden.sol\":4023:4056  plant.stage = GrowthStage.GROWING */\n      0x0100\n      exp\n      dup2\n      sload\n      dup2\n      0xff\n      mul\n      not\n      and\n      swap1\n      dup4\n      0x03\n      dup2\n      gt\n      iszero\n      tag_183\n      jumpi\n      tag_184\n      tag_137\n      jump\t// in\n    tag_184:\n    tag_183:\n      mul\n      or\n      swap1\n      sstore\n      pop\n        /* \"contracts/LiskGarden.sol\":3965:4170  if (timeSincePlanted >= 2 * STAGE_DURATION) {... */\n      jump(tag_185)\n    tag_182:\n        /* \"contracts/LiskGarden.sol\":731:740  1 minutes */\n      0x3c\n        /* \"contracts/LiskGarden.sol\":4077:4093  timeSincePlanted */\n      dup3\n        /* \"contracts/LiskGarden.sol\":4077:4111  timeSincePlanted >= STAGE_DURATION */\n      lt\n        /* \"contracts/LiskGarden.sol\":4073:4170  if (timeSincePlanted >= STAGE_DURATION) {... */\n      tag_186\n      jumpi\n        /* \"contracts/LiskGarden.sol\":4141:4159  GrowthStage.SPROUT */\n      0x01\n        /* \"contracts/LiskGarden.sol\":4127:4132  plant */\n      dup4\n        /* \"contracts/LiskGarden.sol\":4127:4138  plant.stage */\n      0x01\n      add\n      0x14\n        /* \"contracts/LiskGarden.sol\":4127:4159  plant.stage = GrowthStage.SPROUT */\n      0x0100\n      exp\n      dup2\n      sload\n      dup2\n      0xff\n      mul\n      not\n      and\n      swap1\n      dup4\n      0x03\n      dup2\n      gt\n      iszero\n      tag_187\n      jumpi\n      tag_188\n      tag_137\n      jump\t// in\n    tag_188:\n    tag_187:\n      mul\n      or\n      swap1\n      sstore\n      pop\n        /* \"contracts/LiskGarden.sol\":4073:4170  if (timeSincePlanted >= STAGE_DURATION) {... */\n    tag_186:\n        /* \"contracts/LiskGarden.sol\":3965:4170  if (timeSincePlanted >= 2 * STAGE_DURATION) {... */\n    tag_185:\n        /* \"contracts/LiskGarden.sol\":3856:4170  if (timeSincePlanted >= 3 * STAGE_DURATION) {... */\n    tag_180:\n        /* \"contracts/LiskGarden.sol\":4199:4207  oldStage */\n      dup1\n        /* \"contracts/LiskGarden.sol\":4184:4207  plant.stage != oldStage */\n      0x03\n      dup2\n      gt\n      iszero\n      tag_189\n      jumpi\n      tag_190\n      tag_137\n      jump\t// in\n    tag_190:\n    tag_189:\n        /* \"contracts/LiskGarden.sol\":4184:4189  plant */\n      dup4\n        /* \"contracts/LiskGarden.sol\":4184:4195  plant.stage */\n      0x01\n      add\n      0x14\n      swap1\n      sload\n      swap1\n      0x0100\n      exp\n      swap1\n      div\n      0xff\n      and\n        /* \"contracts/LiskGarden.sol\":4184:4207  plant.stage != oldStage */\n      0x03\n      dup2\n      gt\n      iszero\n      tag_191\n      jumpi\n      tag_192\n      tag_137\n      jump\t// in\n    tag_192:\n    tag_191:\n      eq\n        /* \"contracts/LiskGarden.sol\":4180:4274  if (plant.stage != oldStage) {... */\n      tag_193\n      jumpi\n        /* \"contracts/LiskGarden.sol\":4242:4249  plantId */\n      dup4\n        /* \"contracts/LiskGarden.sol\":4228:4263  StageAdvanced(plantId, plant.stage) */\n      0x338b8976706f9da67298dddfa1ea4ff7d99cce68b9ca39c4f348994f8e2124a8\n        /* \"contracts/LiskGarden.sol\":4251:4256  plant */\n      dup5\n        /* \"contracts/LiskGarden.sol\":4251:4262  plant.stage */\n      0x01\n      add\n      0x14\n      swap1\n      sload\n      swap1\n      0x0100\n      exp\n      swap1\n      div\n      0xff\n      and\n        /* \"contracts/LiskGarden.sol\":4228:4263  StageAdvanced(plantId, plant.stage) */\n      mload(0x40)\n      tag_194\n      swap2\n      swap1\n      tag_195\n      jump\t// in\n    tag_194:\n      mload(0x40)\n      dup1\n      swap2\n      sub\n      swap1\n      log2\n        /* \"contracts/LiskGarden.sol\":4180:4274  if (plant.stage != oldStage) {... */\n    tag_193:\n        /* \"contracts/LiskGarden.sol\":3556:4280  {... */\n      pop\n      pop\n      pop\n        /* \"contracts/LiskGarden.sol\":3506:4280  function updatePlantStage(uint256 plantId) public {... */\n    tag_169:\n      pop\n      jump\t// out\n        /* \"contracts/LiskGarden.sol\":4286:4952  function harvestPlant(uint256 plantId) external {... */\n    tag_106:\n        /* \"contracts/LiskGarden.sol\":4344:4363  Plant storage plant */\n      0x00\n        /* \"contracts/LiskGarden.sol\":4366:4372  plants */\n      0x00\n        /* \"contracts/LiskGarden.sol\":4366:4381  plants[plantId] */\n      0x00\n        /* \"contracts/LiskGarden.sol\":4373:4380  plantId */\n      dup4\n        /* \"contracts/LiskGarden.sol\":4366:4381  plants[plantId] */\n      dup2\n      mstore\n      0x20\n      add\n      swap1\n      dup2\n      mstore\n      0x20\n      add\n      0x00\n      keccak256\n        /* \"contracts/LiskGarden.sol\":4344:4381  Plant storage plant = plants[plantId] */\n      swap1\n      pop\n        /* \"contracts/LiskGarden.sol\":4399:4404  plant */\n      dup1\n        /* \"contracts/LiskGarden.sol\":4399:4411  plant.exists */\n      0x04\n      add\n      0x01\n      swap1\n      sload\n      swap1\n      0x0100\n      exp\n      swap1\n      div\n      0xff\n      and\n        /* \"contracts/LiskGarden.sol\":4391:4436  require(plant.exists, \"Plant does not exist\") */\n      tag_197\n      jumpi\n      mload(0x40)\n      0x08c379a000000000000000000000000000000000000000000000000000000000\n      dup2\n      mstore\n      0x04\n      add\n      tag_198\n      swap1\n      tag_158\n      jump\t// in\n    tag_198:\n      mload(0x40)\n      dup1\n      swap2\n      sub\n      swap1\n      revert\n    tag_197:\n        /* \"contracts/LiskGarden.sol\":4468:4473  plant */\n      dup1\n        /* \"contracts/LiskGarden.sol\":4468:4479  plant.owner */\n      0x01\n      add\n      0x00\n      swap1\n      sload\n      swap1\n      0x0100\n      exp\n      swap1\n      div\n      0xffffffffffffffffffffffffffffffffffffffff\n      and\n        /* \"contracts/LiskGarden.sol\":4454:4479  msg.sender == plant.owner */\n      0xffffffffffffffffffffffffffffffffffffffff\n      and\n        /* \"contracts/LiskGarden.sol\":4454:4464  msg.sender */\n      caller\n        /* \"contracts/LiskGarden.sol\":4454:4479  msg.sender == plant.owner */\n      0xffffffffffffffffffffffffffffffffffffffff\n      and\n      eq\n        /* \"contracts/LiskGarden.sol\":4446:4516  require(msg.sender == plant.owner, \"Only the plant owner can harvest\") */\n      tag_199\n      jumpi\n      mload(0x40)\n      0x08c379a000000000000000000000000000000000000000000000000000000000\n      dup2\n      mstore\n      0x04\n      add\n      tag_200\n      swap1\n      tag_201\n      jump\t// in\n    tag_200:\n      mload(0x40)\n      dup1\n      swap2\n      sub\n      swap1\n      revert\n    tag_199:\n        /* \"contracts/LiskGarden.sol\":4535:4540  plant */\n      dup1\n        /* \"contracts/LiskGarden.sol\":4535:4547  plant.isDead */\n      0x04\n      add\n      0x02\n      swap1\n      sload\n      swap1\n      0x0100\n      exp\n      swap1\n      div\n      0xff\n      and\n        /* \"contracts/LiskGarden.sol\":4534:4547  !plant.isDead */\n      iszero\n        /* \"contracts/LiskGarden.sol\":4526:4589  require(!plant.isDead, \"Plant is dead and cannot be harvested\") */\n      tag_202\n      jumpi\n      mload(0x40)\n      0x08c379a000000000000000000000000000000000000000000000000000000000\n      dup2\n      mstore\n      0x04\n      add\n      tag_203\n      swap1\n      tag_204\n      jump\t// in\n    tag_203:\n      mload(0x40)\n      dup1\n      swap2\n      sub\n      swap1\n      revert\n    tag_202:\n        /* \"contracts/LiskGarden.sol\":4600:4625  updatePlantStage(plantId) */\n      tag_205\n        /* \"contracts/LiskGarden.sol\":4617:4624  plantId */\n      dup3\n        /* \"contracts/LiskGarden.sol\":4600:4616  updatePlantStage */\n      tag_102\n        /* \"contracts/LiskGarden.sol\":4600:4625  updatePlantStage(plantId) */\n      jump\t// in\n    tag_205:\n        /* \"contracts/LiskGarden.sol\":4658:4678  GrowthStage.BLOOMING */\n      0x03\n        /* \"contracts/LiskGarden.sol\":4643:4678  plant.stage == GrowthStage.BLOOMING */\n      dup1\n      dup2\n      gt\n      iszero\n      tag_206\n      jumpi\n      tag_207\n      tag_137\n      jump\t// in\n    tag_207:\n    tag_206:\n        /* \"contracts/LiskGarden.sol\":4643:4648  plant */\n      dup2\n        /* \"contracts/LiskGarden.sol\":4643:4654  plant.stage */\n      0x01\n      add\n      0x14\n      swap1\n      sload\n      swap1\n      0x0100\n      exp\n      swap1\n      div\n      0xff\n      and\n        /* \"contracts/LiskGarden.sol\":4643:4678  plant.stage == GrowthStage.BLOOMING */\n      0x03\n      dup2\n      gt\n      iszero\n      tag_208\n      jumpi\n      tag_209\n      tag_137\n      jump\t// in\n    tag_209:\n    tag_208:\n      eq\n        /* \"contracts/LiskGarden.sol\":4635:4716  require(plant.stage == GrowthStage.BLOOMING, \"Plant must be blooming to harvest\") */\n      tag_210\n      jumpi\n      mload(0x40)\n      0x08c379a000000000000000000000000000000000000000000000000000000000\n      dup2\n      mstore\n      0x04\n      add\n      tag_211\n      swap1\n      tag_212\n      jump\t// in\n    tag_211:\n      mload(0x40)\n      dup1\n      swap2\n      sub\n      swap1\n      revert\n    tag_210:\n        /* \"contracts/LiskGarden.sol\":4742:4747  false */\n      0x00\n        /* \"contracts/LiskGarden.sol\":4727:4732  plant */\n      dup2\n        /* \"contracts/LiskGarden.sol\":4727:4739  plant.exists */\n      0x04\n      add\n      0x01\n        /* \"contracts/LiskGarden.sol\":4727:4747  plant.exists = false */\n      0x0100\n      exp\n      dup2\n      sload\n      dup2\n      0xff\n      mul\n      not\n      and\n      swap1\n      dup4\n      iszero\n      iszero\n      mul\n      or\n      swap1\n      sstore\n      pop\n        /* \"contracts/LiskGarden.sol\":4786:4791  plant */\n      dup1\n        /* \"contracts/LiskGarden.sol\":4786:4797  plant.owner */\n      0x01\n      add\n      0x00\n      swap1\n      sload\n      swap1\n      0x0100\n      exp\n      swap1\n      div\n      0xffffffffffffffffffffffffffffffffffffffff\n      and\n        /* \"contracts/LiskGarden.sol\":4762:4814  PlantHarvested(plantId, plant.owner, HARVEST_REWARD) */\n      0xffffffffffffffffffffffffffffffffffffffff\n      and\n        /* \"contracts/LiskGarden.sol\":4777:4784  plantId */\n      dup3\n        /* \"contracts/LiskGarden.sol\":4762:4814  PlantHarvested(plantId, plant.owner, HARVEST_REWARD) */\n      0x79f2138ea100070ff95b59c265da7aa3c7a0f61595fe1bb2f5fda2762f398847\n        /* \"contracts/LiskGarden.sol\":673:684  0.003 ether */\n      0x0aa87bee538000\n        /* \"contracts/LiskGarden.sol\":4762:4814  PlantHarvested(plantId, plant.owner, HARVEST_REWARD) */\n      mload(0x40)\n      tag_213\n      swap2\n      swap1\n      tag_31\n      jump\t// in\n    tag_213:\n      mload(0x40)\n      dup1\n      swap2\n      sub\n      swap1\n      log3\n        /* \"contracts/LiskGarden.sol\":4826:4838  bool success */\n      0x00\n        /* \"contracts/LiskGarden.sol\":4844:4854  msg.sender */\n      caller\n        /* \"contracts/LiskGarden.sol\":4844:4859  msg.sender.call */\n      0xffffffffffffffffffffffffffffffffffffffff\n      and\n        /* \"contracts/LiskGarden.sol\":673:684  0.003 ether */\n      0x0aa87bee538000\n        /* \"contracts/LiskGarden.sol\":4844:4886  msg.sender.call{value: HARVEST_REWARD}(\"\") */\n      mload(0x40)\n      tag_214\n      swap1\n      tag_122\n      jump\t// in\n    tag_214:\n      0x00\n      mload(0x40)\n      dup1\n      dup4\n      sub\n      dup2\n      dup6\n      dup8\n      gas\n      call\n      swap3\n      pop\n      pop\n      pop\n      returndatasize\n      dup1\n      0x00\n      dup2\n      eq\n      tag_217\n      jumpi\n      mload(0x40)\n      swap2\n      pop\n      and(add(returndatasize, 0x3f), not(0x1f))\n      dup3\n      add\n      0x40\n      mstore\n      returndatasize\n      dup3\n      mstore\n      returndatasize\n      0x00\n      0x20\n      dup5\n      add\n      returndatacopy\n      jump(tag_216)\n    tag_217:\n      0x60\n      swap2\n      pop\n    tag_216:\n      pop\n        /* \"contracts/LiskGarden.sol\":4825:4886  (bool success, ) = msg.sender.call{value: HARVEST_REWARD}(\"\") */\n      pop\n      swap1\n      pop\n        /* \"contracts/LiskGarden.sol\":4904:4911  success */\n      dup1\n        /* \"contracts/LiskGarden.sol\":4896:4945  require(success, \"Failed to send harvest reward\") */\n      tag_218\n      jumpi\n      mload(0x40)\n      0x08c379a000000000000000000000000000000000000000000000000000000000\n      dup2\n      mstore\n      0x04\n      add\n      tag_219\n      swap1\n      tag_220\n      jump\t// in\n    tag_219:\n      mload(0x40)\n      dup1\n      swap2\n      sub\n      swap1\n      revert\n    tag_218:\n        /* \"contracts/LiskGarden.sol\":4334:4952  {... */\n      pop\n      pop\n        /* \"contracts/LiskGarden.sol\":4286:4952  function harvestPlant(uint256 plantId) external {... */\n      pop\n      jump\t// out\n        /* \"contracts/LiskGarden.sol\":4999:5203  function getPlant(uint256 plantId) external view returns (Plant memory) {... */\n    tag_110:\n        /* \"contracts/LiskGarden.sol\":5057:5069  Plant memory */\n      tag_221\n      tag_222\n      jump\t// in\n    tag_221:\n        /* \"contracts/LiskGarden.sol\":5081:5099  Plant memory plant */\n      0x00\n        /* \"contracts/LiskGarden.sol\":5102:5108  plants */\n      0x00\n        /* \"contracts/LiskGarden.sol\":5102:5117  plants[plantId] */\n      0x00\n        /* \"contracts/LiskGarden.sol\":5109:5116  plantId */\n      dup5\n        /* \"contracts/LiskGarden.sol\":5102:5117  plants[plantId] */\n      dup2\n      mstore\n      0x20\n      add\n      swap1\n      dup2\n      mstore\n      0x20\n      add\n      0x00\n      keccak256\n        /* \"contracts/LiskGarden.sol\":5081:5117  Plant memory plant = plants[plantId] */\n      mload(0x40)\n      dup1\n      0x0100\n      add\n      0x40\n      mstore\n      swap1\n      dup2\n      0x00\n      dup3\n      add\n      sload\n      dup2\n      mstore\n      0x20\n      add\n      0x01\n      dup3\n      add\n      0x00\n      swap1\n      sload\n      swap1\n      0x0100\n      exp\n      swap1\n      div\n      0xffffffffffffffffffffffffffffffffffffffff\n      and\n      0xffffffffffffffffffffffffffffffffffffffff\n      and\n      0xffffffffffffffffffffffffffffffffffffffff\n      and\n      dup2\n      mstore\n      0x20\n      add\n      0x01\n      dup3\n      add\n      0x14\n      swap1\n      sload\n      swap1\n      0x0100\n      exp\n      swap1\n      div\n      0xff\n      and\n      0x03\n      dup2\n      gt\n      iszero\n      tag_224\n      jumpi\n      tag_225\n      tag_137\n      jump\t// in\n    tag_225:\n    tag_224:\n      0x03\n      dup2\n      gt\n      iszero\n      tag_226\n      jumpi\n      tag_227\n      tag_137\n      jump\t// in\n    tag_227:\n    tag_226:\n      dup2\n      mstore\n      0x20\n      add\n      0x02\n      dup3\n      add\n      sload\n      dup2\n      mstore\n      0x20\n      add\n      0x03\n      dup3\n      add\n      sload\n      dup2\n      mstore\n      0x20\n      add\n      0x04\n      dup3\n      add\n      0x00\n      swap1\n      sload\n      swap1\n      0x0100\n      exp\n      swap1\n      div\n      0xff\n      and\n      0xff\n      and\n      0xff\n      and\n      dup2\n      mstore\n      0x20\n      add\n      0x04\n      dup3\n      add\n      0x01\n      swap1\n      sload\n      swap1\n      0x0100\n      exp\n      swap1\n      div\n      0xff\n      and\n      iszero\n      iszero\n      iszero\n      iszero\n      dup2\n      mstore\n      0x20\n      add\n      0x04\n      dup3\n      add\n      0x02\n      swap1\n      sload\n      swap1\n      0x0100\n      exp\n      swap1\n      div\n      0xff\n      and\n      iszero\n      iszero\n      iszero\n      iszero\n      dup2\n      mstore\n      pop\n      pop\n      swap1\n      pop\n        /* \"contracts/LiskGarden.sol\":5146:5174  calculateWaterLevel(plantId) */\n      tag_228\n        /* \"contracts/LiskGarden.sol\":5166:5173  plantId */\n      dup4\n        /* \"contracts/LiskGarden.sol\":5146:5165  calculateWaterLevel */\n      tag_57\n        /* \"contracts/LiskGarden.sol\":5146:5174  calculateWaterLevel(plantId) */\n      jump\t// in\n    tag_228:\n        /* \"contracts/LiskGarden.sol\":5127:5132  plant */\n      dup2\n        /* \"contracts/LiskGarden.sol\":5127:5143  plant.waterLevel */\n      0xa0\n      add\n        /* \"contracts/LiskGarden.sol\":5127:5174  plant.waterLevel = calculateWaterLevel(plantId) */\n      swap1\n      0xff\n      and\n      swap1\n      dup2\n      0xff\n      and\n      dup2\n      mstore\n      pop\n      pop\n        /* \"contracts/LiskGarden.sol\":5191:5196  plant */\n      dup1\n        /* \"contracts/LiskGarden.sol\":5184:5196  return plant */\n      swap2\n      pop\n      pop\n        /* \"contracts/LiskGarden.sol\":4999:5203  function getPlant(uint256 plantId) external view returns (Plant memory) {... */\n      swap2\n      swap1\n      pop\n      jump\t// out\n        /* \"contracts/LiskGarden.sol\":2696:3033  function updateWaterLevel(uint256 plantId) internal {... */\n    tag_173:\n        /* \"contracts/LiskGarden.sol\":2758:2777  Plant storage plant */\n      0x00\n        /* \"contracts/LiskGarden.sol\":2780:2786  plants */\n      0x00\n        /* \"contracts/LiskGarden.sol\":2780:2795  plants[plantId] */\n      0x00\n        /* \"contracts/LiskGarden.sol\":2787:2794  plantId */\n      dup4\n        /* \"contracts/LiskGarden.sol\":2780:2795  plants[plantId] */\n      dup2\n      mstore\n      0x20\n      add\n      swap1\n      dup2\n      mstore\n      0x20\n      add\n      0x00\n      keccak256\n        /* \"contracts/LiskGarden.sol\":2758:2795  Plant storage plant = plants[plantId] */\n      swap1\n      pop\n        /* \"contracts/LiskGarden.sol\":2805:2823  uint8 currentWater */\n      0x00\n        /* \"contracts/LiskGarden.sol\":2826:2854  calculateWaterLevel(plantId) */\n      tag_230\n        /* \"contracts/LiskGarden.sol\":2846:2853  plantId */\n      dup4\n        /* \"contracts/LiskGarden.sol\":2826:2845  calculateWaterLevel */\n      tag_57\n        /* \"contracts/LiskGarden.sol\":2826:2854  calculateWaterLevel(plantId) */\n      jump\t// in\n    tag_230:\n        /* \"contracts/LiskGarden.sol\":2805:2854  uint8 currentWater = calculateWaterLevel(plantId) */\n      swap1\n      pop\n        /* \"contracts/LiskGarden.sol\":2883:2895  currentWater */\n      dup1\n        /* \"contracts/LiskGarden.sol\":2864:2869  plant */\n      dup3\n        /* \"contracts/LiskGarden.sol\":2864:2880  plant.waterLevel */\n      0x04\n      add\n      0x00\n        /* \"contracts/LiskGarden.sol\":2864:2895  plant.waterLevel = currentWater */\n      0x0100\n      exp\n      dup2\n      sload\n      dup2\n      0xff\n      mul\n      not\n      and\n      swap1\n      dup4\n      0xff\n      and\n      mul\n      or\n      swap1\n      sstore\n      pop\n        /* \"contracts/LiskGarden.sol\":2926:2927  0 */\n      0x00\n        /* \"contracts/LiskGarden.sol\":2910:2922  currentWater */\n      dup2\n        /* \"contracts/LiskGarden.sol\":2910:2927  currentWater == 0 */\n      0xff\n      and\n      eq\n        /* \"contracts/LiskGarden.sol\":2910:2944  currentWater == 0 && !plant.isDead */\n      dup1\n      iszero\n      tag_231\n      jumpi\n      pop\n        /* \"contracts/LiskGarden.sol\":2932:2937  plant */\n      dup2\n        /* \"contracts/LiskGarden.sol\":2932:2944  plant.isDead */\n      0x04\n      add\n      0x02\n      swap1\n      sload\n      swap1\n      0x0100\n      exp\n      swap1\n      div\n      0xff\n      and\n        /* \"contracts/LiskGarden.sol\":2931:2944  !plant.isDead */\n      iszero\n        /* \"contracts/LiskGarden.sol\":2910:2944  currentWater == 0 && !plant.isDead */\n    tag_231:\n        /* \"contracts/LiskGarden.sol\":2906:3027  if (currentWater == 0 && !plant.isDead) {... */\n      iszero\n      tag_232\n      jumpi\n        /* \"contracts/LiskGarden.sol\":2975:2979  true */\n      0x01\n        /* \"contracts/LiskGarden.sol\":2960:2965  plant */\n      dup3\n        /* \"contracts/LiskGarden.sol\":2960:2972  plant.isDead */\n      0x04\n      add\n      0x02\n        /* \"contracts/LiskGarden.sol\":2960:2979  plant.isDead = true */\n      0x0100\n      exp\n      dup2\n      sload\n      dup2\n      0xff\n      mul\n      not\n      and\n      swap1\n      dup4\n      iszero\n      iszero\n      mul\n      or\n      swap1\n      sstore\n      pop\n        /* \"contracts/LiskGarden.sol\":3008:3015  plantId */\n      dup3\n        /* \"contracts/LiskGarden.sol\":2998:3016  PlantDied(plantId) */\n      0xcc296a21951f3e57f21afb08547d835a0a9f0f06cc2867009cbe0cae44d36be9\n      mload(0x40)\n      mload(0x40)\n      dup1\n      swap2\n      sub\n      swap1\n      log2\n        /* \"contracts/LiskGarden.sol\":2906:3027  if (currentWater == 0 && !plant.isDead) {... */\n    tag_232:\n        /* \"contracts/LiskGarden.sol\":2748:3033  {... */\n      pop\n      pop\n        /* \"contracts/LiskGarden.sol\":2696:3033  function updateWaterLevel(uint256 plantId) internal {... */\n      pop\n      jump\t// out\n    tag_222:\n      mload(0x40)\n      dup1\n      0x0100\n      add\n      0x40\n      mstore\n      dup1\n      0x00\n      dup2\n      mstore\n      0x20\n      add\n      and(0xffffffffffffffffffffffffffffffffffffffff, 0x00)\n      dup2\n      mstore\n      0x20\n      add\n      0x00\n      0x03\n      dup2\n      gt\n      iszero\n      tag_233\n      jumpi\n      tag_234\n      tag_137\n      jump\t// in\n    tag_234:\n    tag_233:\n      dup2\n      mstore\n      0x20\n      add\n      0x00\n      dup2\n      mstore\n      0x20\n      add\n      0x00\n      dup2\n      mstore\n      0x20\n      add\n      and(0xff, 0x00)\n      dup2\n      mstore\n      0x20\n      add\n      iszero(iszero(0x00))\n      dup2\n      mstore\n      0x20\n      add\n      iszero(iszero(0x00))\n      dup2\n      mstore\n      pop\n      swap1\n      jump\t// out\n        /* \"#utility.yul\":7:84   */\n    tag_235:\n        /* \"#utility.yul\":44:51   */\n      0x00\n        /* \"#utility.yul\":73:78   */\n      dup2\n        /* \"#utility.yul\":62:78   */\n      swap1\n      pop\n        /* \"#utility.yul\":7:84   */\n      swap2\n      swap1\n      pop\n      jump\t// out\n        /* \"#utility.yul\":90:208   */\n    tag_236:\n        /* \"#utility.yul\":177:201   */\n      tag_300\n        /* \"#utility.yul\":195:200   */\n      dup2\n        /* \"#utility.yul\":177:201   */\n      tag_235\n      jump\t// in\n    tag_300:\n        /* \"#utility.yul\":172:175   */\n      dup3\n        /* \"#utility.yul\":165:202   */\n      mstore\n        /* \"#utility.yul\":90:208   */\n      pop\n      pop\n      jump\t// out\n        /* \"#utility.yul\":214:436   */\n    tag_31:\n        /* \"#utility.yul\":307:311   */\n      0x00\n        /* \"#utility.yul\":345:347   */\n      0x20\n        /* \"#utility.yul\":334:343   */\n      dup3\n        /* \"#utility.yul\":330:348   */\n      add\n        /* \"#utility.yul\":322:348   */\n      swap1\n      pop\n        /* \"#utility.yul\":358:429   */\n      tag_302\n        /* \"#utility.yul\":426:427   */\n      0x00\n        /* \"#utility.yul\":415:424   */\n      dup4\n        /* \"#utility.yul\":411:428   */\n      add\n        /* \"#utility.yul\":402:408   */\n      dup5\n        /* \"#utility.yul\":358:429   */\n      tag_236\n      jump\t// in\n    tag_302:\n        /* \"#utility.yul\":214:436   */\n      swap3\n      swap2\n      pop\n      pop\n      jump\t// out\n        /* \"#utility.yul\":523:640   */\n    tag_238:\n        /* \"#utility.yul\":632:633   */\n      0x00\n        /* \"#utility.yul\":629:630   */\n      0x00\n        /* \"#utility.yul\":622:634   */\n      revert\n        /* \"#utility.yul\":769:895   */\n    tag_240:\n        /* \"#utility.yul\":806:813   */\n      0x00\n        /* \"#utility.yul\":846:888   */\n      0xffffffffffffffffffffffffffffffffffffffff\n        /* \"#utility.yul\":839:844   */\n      dup3\n        /* \"#utility.yul\":835:889   */\n      and\n        /* \"#utility.yul\":824:889   */\n      swap1\n      pop\n        /* \"#utility.yul\":769:895   */\n      swap2\n      swap1\n      pop\n      jump\t// out\n        /* \"#utility.yul\":901:997   */\n    tag_241:\n        /* \"#utility.yul\":938:945   */\n      0x00\n        /* \"#utility.yul\":967:991   */\n      tag_308\n        /* \"#utility.yul\":985:990   */\n      dup3\n        /* \"#utility.yul\":967:991   */\n      tag_240\n      jump\t// in\n    tag_308:\n        /* \"#utility.yul\":956:991   */\n      swap1\n      pop\n        /* \"#utility.yul\":901:997   */\n      swap2\n      swap1\n      pop\n      jump\t// out\n        /* \"#utility.yul\":1003:1125   */\n    tag_242:\n        /* \"#utility.yul\":1076:1100   */\n      tag_310\n        /* \"#utility.yul\":1094:1099   */\n      dup2\n        /* \"#utility.yul\":1076:1100   */\n      tag_241\n      jump\t// in\n    tag_310:\n        /* \"#utility.yul\":1069:1074   */\n      dup2\n        /* \"#utility.yul\":1066:1101   */\n      eq\n        /* \"#utility.yul\":1056:1119   */\n      tag_311\n      jumpi\n        /* \"#utility.yul\":1115:1116   */\n      0x00\n        /* \"#utility.yul\":1112:1113   */\n      0x00\n        /* \"#utility.yul\":1105:1117   */\n      revert\n        /* \"#utility.yul\":1056:1119   */\n    tag_311:\n        /* \"#utility.yul\":1003:1125   */\n      pop\n      jump\t// out\n        /* \"#utility.yul\":1131:1270   */\n    tag_243:\n        /* \"#utility.yul\":1177:1182   */\n      0x00\n        /* \"#utility.yul\":1215:1221   */\n      dup2\n        /* \"#utility.yul\":1202:1222   */\n      calldataload\n        /* \"#utility.yul\":1193:1222   */\n      swap1\n      pop\n        /* \"#utility.yul\":1231:1264   */\n      tag_313\n        /* \"#utility.yul\":1258:1263   */\n      dup2\n        /* \"#utility.yul\":1231:1264   */\n      tag_242\n      jump\t// in\n    tag_313:\n        /* \"#utility.yul\":1131:1270   */\n      swap3\n      swap2\n      pop\n      pop\n      jump\t// out\n        /* \"#utility.yul\":1276:1605   */\n    tag_39:\n        /* \"#utility.yul\":1335:1341   */\n      0x00\n        /* \"#utility.yul\":1384:1386   */\n      0x20\n        /* \"#utility.yul\":1372:1381   */\n      dup3\n        /* \"#utility.yul\":1363:1370   */\n      dup5\n        /* \"#utility.yul\":1359:1382   */\n      sub\n        /* \"#utility.yul\":1355:1387   */\n      slt\n        /* \"#utility.yul\":1352:1471   */\n      iszero\n      tag_315\n      jumpi\n        /* \"#utility.yul\":1390:1469   */\n      tag_316\n      tag_238\n      jump\t// in\n    tag_316:\n        /* \"#utility.yul\":1352:1471   */\n    tag_315:\n        /* \"#utility.yul\":1510:1511   */\n      0x00\n        /* \"#utility.yul\":1535:1588   */\n      tag_317\n        /* \"#utility.yul\":1580:1587   */\n      dup5\n        /* \"#utility.yul\":1571:1577   */\n      dup3\n        /* \"#utility.yul\":1560:1569   */\n      dup6\n        /* \"#utility.yul\":1556:1578   */\n      add\n        /* \"#utility.yul\":1535:1588   */\n      tag_243\n      jump\t// in\n    tag_317:\n        /* \"#utility.yul\":1525:1588   */\n      swap2\n      pop\n        /* \"#utility.yul\":1481:1598   */\n      pop\n        /* \"#utility.yul\":1276:1605   */\n      swap3\n      swap2\n      pop\n      pop\n      jump\t// out\n        /* \"#utility.yul\":1611:1725   */\n    tag_244:\n        /* \"#utility.yul\":1678:1684   */\n      0x00\n        /* \"#utility.yul\":1712:1717   */\n      dup2\n        /* \"#utility.yul\":1706:1718   */\n      mload\n        /* \"#utility.yul\":1696:1718   */\n      swap1\n      pop\n        /* \"#utility.yul\":1611:1725   */\n      swap2\n      swap1\n      pop\n      jump\t// out\n        /* \"#utility.yul\":1731:1915   */\n    tag_245:\n        /* \"#utility.yul\":1830:1841   */\n      0x00\n        /* \"#utility.yul\":1864:1870   */\n      dup3\n        /* \"#utility.yul\":1859:1862   */\n      dup3\n        /* \"#utility.yul\":1852:1871   */\n      mstore\n        /* \"#utility.yul\":1904:1908   */\n      0x20\n        /* \"#utility.yul\":1899:1902   */\n      dup3\n        /* \"#utility.yul\":1895:1909   */\n      add\n        /* \"#utility.yul\":1880:1909   */\n      swap1\n      pop\n        /* \"#utility.yul\":1731:1915   */\n      swap3\n      swap2\n      pop\n      pop\n      jump\t// out\n        /* \"#utility.yul\":1921:2053   */\n    tag_246:\n        /* \"#utility.yul\":1988:1992   */\n      0x00\n        /* \"#utility.yul\":2011:2014   */\n      dup2\n        /* \"#utility.yul\":2003:2014   */\n      swap1\n      pop\n        /* \"#utility.yul\":2041:2045   */\n      0x20\n        /* \"#utility.yul\":2036:2039   */\n      dup3\n        /* \"#utility.yul\":2032:2046   */\n      add\n        /* \"#utility.yul\":2024:2046   */\n      swap1\n      pop\n        /* \"#utility.yul\":1921:2053   */\n      swap2\n      swap1\n      pop\n      jump\t// out\n        /* \"#utility.yul\":2059:2167   */\n    tag_247:\n        /* \"#utility.yul\":2136:2160   */\n      tag_322\n        /* \"#utility.yul\":2154:2159   */\n      dup2\n        /* \"#utility.yul\":2136:2160   */\n      tag_235\n      jump\t// in\n    tag_322:\n        /* \"#utility.yul\":2131:2134   */\n      dup3\n        /* \"#utility.yul\":2124:2161   */\n      mstore\n        /* \"#utility.yul\":2059:2167   */\n      pop\n      pop\n      jump\t// out\n        /* \"#utility.yul\":2173:2352   */\n    tag_248:\n        /* \"#utility.yul\":2242:2252   */\n      0x00\n        /* \"#utility.yul\":2263:2309   */\n      tag_324\n        /* \"#utility.yul\":2305:2308   */\n      dup4\n        /* \"#utility.yul\":2297:2303   */\n      dup4\n        /* \"#utility.yul\":2263:2309   */\n      tag_247\n      jump\t// in\n    tag_324:\n        /* \"#utility.yul\":2341:2345   */\n      0x20\n        /* \"#utility.yul\":2336:2339   */\n      dup4\n        /* \"#utility.yul\":2332:2346   */\n      add\n        /* \"#utility.yul\":2318:2346   */\n      swap1\n      pop\n        /* \"#utility.yul\":2173:2352   */\n      swap3\n      swap2\n      pop\n      pop\n      jump\t// out\n        /* \"#utility.yul\":2358:2471   */\n    tag_249:\n        /* \"#utility.yul\":2428:2432   */\n      0x00\n        /* \"#utility.yul\":2460:2464   */\n      0x20\n        /* \"#utility.yul\":2455:2458   */\n      dup3\n        /* \"#utility.yul\":2451:2465   */\n      add\n        /* \"#utility.yul\":2443:2465   */\n      swap1\n      pop\n        /* \"#utility.yul\":2358:2471   */\n      swap2\n      swap1\n      pop\n      jump\t// out\n        /* \"#utility.yul\":2507:3239   */\n    tag_250:\n        /* \"#utility.yul\":2626:2629   */\n      0x00\n        /* \"#utility.yul\":2655:2709   */\n      tag_327\n        /* \"#utility.yul\":2703:2708   */\n      dup3\n        /* \"#utility.yul\":2655:2709   */\n      tag_244\n      jump\t// in\n    tag_327:\n        /* \"#utility.yul\":2725:2811   */\n      tag_328\n        /* \"#utility.yul\":2804:2810   */\n      dup2\n        /* \"#utility.yul\":2799:2802   */\n      dup6\n        /* \"#utility.yul\":2725:2811   */\n      tag_245\n      jump\t// in\n    tag_328:\n        /* \"#utility.yul\":2718:2811   */\n      swap4\n      pop\n        /* \"#utility.yul\":2835:2891   */\n      tag_329\n        /* \"#utility.yul\":2885:2890   */\n      dup4\n        /* \"#utility.yul\":2835:2891   */\n      tag_246\n      jump\t// in\n    tag_329:\n        /* \"#utility.yul\":2914:2921   */\n      dup1\n        /* \"#utility.yul\":2945:2946   */\n      0x00\n        /* \"#utility.yul\":2930:3214   */\n    tag_330:\n        /* \"#utility.yul\":2955:2961   */\n      dup4\n        /* \"#utility.yul\":2952:2953   */\n      dup2\n        /* \"#utility.yul\":2949:2962   */\n      lt\n        /* \"#utility.yul\":2930:3214   */\n      iszero\n      tag_332\n      jumpi\n        /* \"#utility.yul\":3031:3037   */\n      dup2\n        /* \"#utility.yul\":3025:3038   */\n      mload\n        /* \"#utility.yul\":3058:3121   */\n      tag_333\n        /* \"#utility.yul\":3117:3120   */\n      dup9\n        /* \"#utility.yul\":3102:3115   */\n      dup3\n        /* \"#utility.yul\":3058:3121   */\n      tag_248\n      jump\t// in\n    tag_333:\n        /* \"#utility.yul\":3051:3121   */\n      swap8\n      pop\n        /* \"#utility.yul\":3144:3204   */\n      tag_334\n        /* \"#utility.yul\":3197:3203   */\n      dup4\n        /* \"#utility.yul\":3144:3204   */\n      tag_249\n      jump\t// in\n    tag_334:\n        /* \"#utility.yul\":3134:3204   */\n      swap3\n      pop\n        /* \"#utility.yul\":2990:3214   */\n      pop\n        /* \"#utility.yul\":2977:2978   */\n      0x01\n        /* \"#utility.yul\":2974:2975   */\n      dup2\n        /* \"#utility.yul\":2970:2979   */\n      add\n        /* \"#utility.yul\":2965:2979   */\n      swap1\n      pop\n        /* \"#utility.yul\":2930:3214   */\n      jump(tag_330)\n    tag_332:\n        /* \"#utility.yul\":2934:2948   */\n      pop\n        /* \"#utility.yul\":3230:3233   */\n      dup6\n        /* \"#utility.yul\":3223:3233   */\n      swap4\n      pop\n        /* \"#utility.yul\":2631:3239   */\n      pop\n      pop\n      pop\n        /* \"#utility.yul\":2507:3239   */\n      swap3\n      swap2\n      pop\n      pop\n      jump\t// out\n        /* \"#utility.yul\":3245:3618   */\n    tag_42:\n        /* \"#utility.yul\":3388:3392   */\n      0x00\n        /* \"#utility.yul\":3426:3428   */\n      0x20\n        /* \"#utility.yul\":3415:3424   */\n      dup3\n        /* \"#utility.yul\":3411:3429   */\n      add\n        /* \"#utility.yul\":3403:3429   */\n      swap1\n      pop\n        /* \"#utility.yul\":3475:3484   */\n      dup2\n        /* \"#utility.yul\":3469:3473   */\n      dup2\n        /* \"#utility.yul\":3465:3485   */\n      sub\n        /* \"#utility.yul\":3461:3462   */\n      0x00\n        /* \"#utility.yul\":3450:3459   */\n      dup4\n        /* \"#utility.yul\":3446:3463   */\n      add\n        /* \"#utility.yul\":3439:3486   */\n      mstore\n        /* \"#utility.yul\":3503:3611   */\n      tag_336\n        /* \"#utility.yul\":3606:3610   */\n      dup2\n        /* \"#utility.yul\":3597:3603   */\n      dup5\n        /* \"#utility.yul\":3503:3611   */\n      tag_250\n      jump\t// in\n    tag_336:\n        /* \"#utility.yul\":3495:3611   */\n      swap1\n      pop\n        /* \"#utility.yul\":3245:3618   */\n      swap3\n      swap2\n      pop\n      pop\n      jump\t// out\n        /* \"#utility.yul\":3624:3746   */\n    tag_251:\n        /* \"#utility.yul\":3697:3721   */\n      tag_338\n        /* \"#utility.yul\":3715:3720   */\n      dup2\n        /* \"#utility.yul\":3697:3721   */\n      tag_235\n      jump\t// in\n    tag_338:\n        /* \"#utility.yul\":3690:3695   */\n      dup2\n        /* \"#utility.yul\":3687:3722   */\n      eq\n        /* \"#utility.yul\":3677:3740   */\n      tag_339\n      jumpi\n        /* \"#utility.yul\":3736:3737   */\n      0x00\n        /* \"#utility.yul\":3733:3734   */\n      0x00\n        /* \"#utility.yul\":3726:3738   */\n      revert\n        /* \"#utility.yul\":3677:3740   */\n    tag_339:\n        /* \"#utility.yul\":3624:3746   */\n      pop\n      jump\t// out\n        /* \"#utility.yul\":3752:3891   */\n    tag_252:\n        /* \"#utility.yul\":3798:3803   */\n      0x00\n        /* \"#utility.yul\":3836:3842   */\n      dup2\n        /* \"#utility.yul\":3823:3843   */\n      calldataload\n        /* \"#utility.yul\":3814:3843   */\n      swap1\n      pop\n        /* \"#utility.yul\":3852:3885   */\n      tag_341\n        /* \"#utility.yul\":3879:3884   */\n      dup2\n        /* \"#utility.yul\":3852:3885   */\n      tag_251\n      jump\t// in\n    tag_341:\n        /* \"#utility.yul\":3752:3891   */\n      swap3\n      swap2\n      pop\n      pop\n      jump\t// out\n        /* \"#utility.yul\":3897:4226   */\n    tag_56:\n        /* \"#utility.yul\":3956:3962   */\n      0x00\n        /* \"#utility.yul\":4005:4007   */\n      0x20\n        /* \"#utility.yul\":3993:4002   */\n      dup3\n        /* \"#utility.yul\":3984:3991   */\n      dup5\n        /* \"#utility.yul\":3980:4003   */\n      sub\n        /* \"#utility.yul\":3976:4008   */\n      slt\n        /* \"#utility.yul\":3973:4092   */\n      iszero\n      tag_343\n      jumpi\n        /* \"#utility.yul\":4011:4090   */\n      tag_344\n      tag_238\n      jump\t// in\n    tag_344:\n        /* \"#utility.yul\":3973:4092   */\n    tag_343:\n        /* \"#utility.yul\":4131:4132   */\n      0x00\n        /* \"#utility.yul\":4156:4209   */\n      tag_345\n        /* \"#utility.yul\":4201:4208   */\n      dup5\n        /* \"#utility.yul\":4192:4198   */\n      dup3\n        /* \"#utility.yul\":4181:4190   */\n      dup6\n        /* \"#utility.yul\":4177:4199   */\n      add\n        /* \"#utility.yul\":4156:4209   */\n      tag_252\n      jump\t// in\n    tag_345:\n        /* \"#utility.yul\":4146:4209   */\n      swap2\n      pop\n        /* \"#utility.yul\":4102:4219   */\n      pop\n        /* \"#utility.yul\":3897:4226   */\n      swap3\n      swap2\n      pop\n      pop\n      jump\t// out\n        /* \"#utility.yul\":4232:4318   */\n    tag_253:\n        /* \"#utility.yul\":4267:4274   */\n      0x00\n        /* \"#utility.yul\":4307:4311   */\n      0xff\n        /* \"#utility.yul\":4300:4305   */\n      dup3\n        /* \"#utility.yul\":4296:4312   */\n      and\n        /* \"#utility.yul\":4285:4312   */\n      swap1\n      pop\n        /* \"#utility.yul\":4232:4318   */\n      swap2\n      swap1\n      pop\n      jump\t// out\n        /* \"#utility.yul\":4324:4436   */\n    tag_254:\n        /* \"#utility.yul\":4407:4429   */\n      tag_348\n        /* \"#utility.yul\":4423:4428   */\n      dup2\n        /* \"#utility.yul\":4407:4429   */\n      tag_253\n      jump\t// in\n    tag_348:\n        /* \"#utility.yul\":4402:4405   */\n      dup3\n        /* \"#utility.yul\":4395:4430   */\n      mstore\n        /* \"#utility.yul\":4324:4436   */\n      pop\n      pop\n      jump\t// out\n        /* \"#utility.yul\":4442:4656   */\n    tag_59:\n        /* \"#utility.yul\":4531:4535   */\n      0x00\n        /* \"#utility.yul\":4569:4571   */\n      0x20\n        /* \"#utility.yul\":4558:4567   */\n      dup3\n        /* \"#utility.yul\":4554:4572   */\n      add\n        /* \"#utility.yul\":4546:4572   */\n      swap1\n      pop\n        /* \"#utility.yul\":4582:4649   */\n      tag_350\n        /* \"#utility.yul\":4646:4647   */\n      0x00\n        /* \"#utility.yul\":4635:4644   */\n      dup4\n        /* \"#utility.yul\":4631:4648   */\n      add\n        /* \"#utility.yul\":4622:4628   */\n      dup5\n        /* \"#utility.yul\":4582:4649   */\n      tag_254\n      jump\t// in\n    tag_350:\n        /* \"#utility.yul\":4442:4656   */\n      swap3\n      swap2\n      pop\n      pop\n      jump\t// out\n        /* \"#utility.yul\":4662:5136   */\n    tag_67:\n        /* \"#utility.yul\":4730:4736   */\n      0x00\n        /* \"#utility.yul\":4738:4744   */\n      0x00\n        /* \"#utility.yul\":4787:4789   */\n      0x40\n        /* \"#utility.yul\":4775:4784   */\n      dup4\n        /* \"#utility.yul\":4766:4773   */\n      dup6\n        /* \"#utility.yul\":4762:4785   */\n      sub\n        /* \"#utility.yul\":4758:4790   */\n      slt\n        /* \"#utility.yul\":4755:4874   */\n      iszero\n      tag_352\n      jumpi\n        /* \"#utility.yul\":4793:4872   */\n      tag_353\n      tag_238\n      jump\t// in\n    tag_353:\n        /* \"#utility.yul\":4755:4874   */\n    tag_352:\n        /* \"#utility.yul\":4913:4914   */\n      0x00\n        /* \"#utility.yul\":4938:4991   */\n      tag_354\n        /* \"#utility.yul\":4983:4990   */\n      dup6\n        /* \"#utility.yul\":4974:4980   */\n      dup3\n        /* \"#utility.yul\":4963:4972   */\n      dup7\n        /* \"#utility.yul\":4959:4981   */\n      add\n        /* \"#utility.yul\":4938:4991   */\n      tag_243\n      jump\t// in\n    tag_354:\n        /* \"#utility.yul\":4928:4991   */\n      swap3\n      pop\n        /* \"#utility.yul\":4884:5001   */\n      pop\n        /* \"#utility.yul\":5040:5042   */\n      0x20\n        /* \"#utility.yul\":5066:5119   */\n      tag_355\n        /* \"#utility.yul\":5111:5118   */\n      dup6\n        /* \"#utility.yul\":5102:5108   */\n      dup3\n        /* \"#utility.yul\":5091:5100   */\n      dup7\n        /* \"#utility.yul\":5087:5109   */\n      add\n        /* \"#utility.yul\":5066:5119   */\n      tag_252\n      jump\t// in\n    tag_355:\n        /* \"#utility.yul\":5056:5119   */\n      swap2\n      pop\n        /* \"#utility.yul\":5011:5129   */\n      pop\n        /* \"#utility.yul\":4662:5136   */\n      swap3\n      pop\n      swap3\n      swap1\n      pop\n      jump\t// out\n        /* \"#utility.yul\":5142:5260   */\n    tag_255:\n        /* \"#utility.yul\":5229:5253   */\n      tag_357\n        /* \"#utility.yul\":5247:5252   */\n      dup2\n        /* \"#utility.yul\":5229:5253   */\n      tag_241\n      jump\t// in\n    tag_357:\n        /* \"#utility.yul\":5224:5227   */\n      dup3\n        /* \"#utility.yul\":5217:5254   */\n      mstore\n        /* \"#utility.yul\":5142:5260   */\n      pop\n      pop\n      jump\t// out\n        /* \"#utility.yul\":5266:5488   */\n    tag_74:\n        /* \"#utility.yul\":5359:5363   */\n      0x00\n        /* \"#utility.yul\":5397:5399   */\n      0x20\n        /* \"#utility.yul\":5386:5395   */\n      dup3\n        /* \"#utility.yul\":5382:5400   */\n      add\n        /* \"#utility.yul\":5374:5400   */\n      swap1\n      pop\n        /* \"#utility.yul\":5410:5481   */\n      tag_359\n        /* \"#utility.yul\":5478:5479   */\n      0x00\n        /* \"#utility.yul\":5467:5476   */\n      dup4\n        /* \"#utility.yul\":5463:5480   */\n      add\n        /* \"#utility.yul\":5454:5460   */\n      dup5\n        /* \"#utility.yul\":5410:5481   */\n      tag_255\n      jump\t// in\n    tag_359:\n        /* \"#utility.yul\":5266:5488   */\n      swap3\n      swap2\n      pop\n      pop\n      jump\t// out\n        /* \"#utility.yul\":5494:5674   */\n    tag_137:\n        /* \"#utility.yul\":5542:5619   */\n      0x4e487b7100000000000000000000000000000000000000000000000000000000\n        /* \"#utility.yul\":5539:5540   */\n      0x00\n        /* \"#utility.yul\":5532:5620   */\n      mstore\n        /* \"#utility.yul\":5639:5643   */\n      0x21\n        /* \"#utility.yul\":5636:5637   */\n      0x04\n        /* \"#utility.yul\":5629:5644   */\n      mstore\n        /* \"#utility.yul\":5663:5667   */\n      0x24\n        /* \"#utility.yul\":5660:5661   */\n      0x00\n        /* \"#utility.yul\":5653:5668   */\n      revert\n        /* \"#utility.yul\":5680:5798   */\n    tag_256:\n        /* \"#utility.yul\":5766:5767   */\n      0x04\n        /* \"#utility.yul\":5759:5764   */\n      dup2\n        /* \"#utility.yul\":5756:5768   */\n      lt\n        /* \"#utility.yul\":5746:5792   */\n      tag_362\n      jumpi\n        /* \"#utility.yul\":5772:5790   */\n      tag_363\n      tag_137\n      jump\t// in\n    tag_363:\n        /* \"#utility.yul\":5746:5792   */\n    tag_362:\n        /* \"#utility.yul\":5680:5798   */\n      pop\n      jump\t// out\n        /* \"#utility.yul\":5804:5941   */\n    tag_257:\n        /* \"#utility.yul\":5854:5861   */\n      0x00\n        /* \"#utility.yul\":5883:5888   */\n      dup2\n        /* \"#utility.yul\":5872:5888   */\n      swap1\n      pop\n        /* \"#utility.yul\":5889:5935   */\n      tag_365\n        /* \"#utility.yul\":5929:5934   */\n      dup3\n        /* \"#utility.yul\":5889:5935   */\n      tag_256\n      jump\t// in\n    tag_365:\n        /* \"#utility.yul\":5804:5941   */\n      swap2\n      swap1\n      pop\n      jump\t// out\n        /* \"#utility.yul\":5947:6084   */\n    tag_258:\n        /* \"#utility.yul\":6008:6017   */\n      0x00\n        /* \"#utility.yul\":6041:6078   */\n      tag_367\n        /* \"#utility.yul\":6072:6077   */\n      dup3\n        /* \"#utility.yul\":6041:6078   */\n      tag_257\n      jump\t// in\n    tag_367:\n        /* \"#utility.yul\":6028:6078   */\n      swap1\n      pop\n        /* \"#utility.yul\":5947:6084   */\n      swap2\n      swap1\n      pop\n      jump\t// out\n        /* \"#utility.yul\":6090:6243   */\n    tag_259:\n        /* \"#utility.yul\":6188:6236   */\n      tag_369\n        /* \"#utility.yul\":6230:6235   */\n      dup2\n        /* \"#utility.yul\":6188:6236   */\n      tag_258\n      jump\t// in\n    tag_369:\n        /* \"#utility.yul\":6183:6186   */\n      dup3\n        /* \"#utility.yul\":6176:6237   */\n      mstore\n        /* \"#utility.yul\":6090:6243   */\n      pop\n      pop\n      jump\t// out\n        /* \"#utility.yul\":6249:6339   */\n    tag_260:\n        /* \"#utility.yul\":6283:6290   */\n      0x00\n        /* \"#utility.yul\":6326:6331   */\n      dup2\n        /* \"#utility.yul\":6319:6332   */\n      iszero\n        /* \"#utility.yul\":6312:6333   */\n      iszero\n        /* \"#utility.yul\":6301:6333   */\n      swap1\n      pop\n        /* \"#utility.yul\":6249:6339   */\n      swap2\n      swap1\n      pop\n      jump\t// out\n        /* \"#utility.yul\":6345:6454   */\n    tag_261:\n        /* \"#utility.yul\":6426:6447   */\n      tag_372\n        /* \"#utility.yul\":6441:6446   */\n      dup2\n        /* \"#utility.yul\":6426:6447   */\n      tag_260\n      jump\t// in\n    tag_372:\n        /* \"#utility.yul\":6421:6424   */\n      dup3\n        /* \"#utility.yul\":6414:6448   */\n      mstore\n        /* \"#utility.yul\":6345:6454   */\n      pop\n      pop\n      jump\t// out\n        /* \"#utility.yul\":6460:7447   */\n    tag_80:\n        /* \"#utility.yul\":6744:6748   */\n      0x00\n        /* \"#utility.yul\":6782:6785   */\n      0x0100\n        /* \"#utility.yul\":6771:6780   */\n      dup3\n        /* \"#utility.yul\":6767:6786   */\n      add\n        /* \"#utility.yul\":6759:6786   */\n      swap1\n      pop\n        /* \"#utility.yul\":6796:6867   */\n      tag_374\n        /* \"#utility.yul\":6864:6865   */\n      0x00\n        /* \"#utility.yul\":6853:6862   */\n      dup4\n        /* \"#utility.yul\":6849:6866   */\n      add\n        /* \"#utility.yul\":6840:6846   */\n      dup12\n        /* \"#utility.yul\":6796:6867   */\n      tag_236\n      jump\t// in\n    tag_374:\n        /* \"#utility.yul\":6877:6949   */\n      tag_375\n        /* \"#utility.yul\":6945:6947   */\n      0x20\n        /* \"#utility.yul\":6934:6943   */\n      dup4\n        /* \"#utility.yul\":6930:6948   */\n      add\n        /* \"#utility.yul\":6921:6927   */\n      dup11\n        /* \"#utility.yul\":6877:6949   */\n      tag_255\n      jump\t// in\n    tag_375:\n        /* \"#utility.yul\":6959:7042   */\n      tag_376\n        /* \"#utility.yul\":7038:7040   */\n      0x40\n        /* \"#utility.yul\":7027:7036   */\n      dup4\n        /* \"#utility.yul\":7023:7041   */\n      add\n        /* \"#utility.yul\":7014:7020   */\n      dup10\n        /* \"#utility.yul\":6959:7042   */\n      tag_259\n      jump\t// in\n    tag_376:\n        /* \"#utility.yul\":7052:7124   */\n      tag_377\n        /* \"#utility.yul\":7120:7122   */\n      0x60\n        /* \"#utility.yul\":7109:7118   */\n      dup4\n        /* \"#utility.yul\":7105:7123   */\n      add\n        /* \"#utility.yul\":7096:7102   */\n      dup9\n        /* \"#utility.yul\":7052:7124   */\n      tag_236\n      jump\t// in\n    tag_377:\n        /* \"#utility.yul\":7134:7207   */\n      tag_378\n        /* \"#utility.yul\":7202:7205   */\n      0x80\n        /* \"#utility.yul\":7191:7200   */\n      dup4\n        /* \"#utility.yul\":7187:7206   */\n      add\n        /* \"#utility.yul\":7178:7184   */\n      dup8\n        /* \"#utility.yul\":7134:7207   */\n      tag_236\n      jump\t// in\n    tag_378:\n        /* \"#utility.yul\":7217:7286   */\n      tag_379\n        /* \"#utility.yul\":7281:7284   */\n      0xa0\n        /* \"#utility.yul\":7270:7279   */\n      dup4\n        /* \"#utility.yul\":7266:7285   */\n      add\n        /* \"#utility.yul\":7257:7263   */\n      dup7\n        /* \"#utility.yul\":7217:7286   */\n      tag_254\n      jump\t// in\n    tag_379:\n        /* \"#utility.yul\":7296:7363   */\n      tag_380\n        /* \"#utility.yul\":7358:7361   */\n      0xc0\n        /* \"#utility.yul\":7347:7356   */\n      dup4\n        /* \"#utility.yul\":7343:7362   */\n      add\n        /* \"#utility.yul\":7334:7340   */\n      dup6\n        /* \"#utility.yul\":7296:7363   */\n      tag_261\n      jump\t// in\n    tag_380:\n        /* \"#utility.yul\":7373:7440   */\n      tag_381\n        /* \"#utility.yul\":7435:7438   */\n      0xe0\n        /* \"#utility.yul\":7424:7433   */\n      dup4\n        /* \"#utility.yul\":7420:7439   */\n      add\n        /* \"#utility.yul\":7411:7417   */\n      dup5\n        /* \"#utility.yul\":7373:7440   */\n      tag_261\n      jump\t// in\n    tag_381:\n        /* \"#utility.yul\":6460:7447   */\n      swap10\n      swap9\n      pop\n      pop\n      pop\n      pop\n      pop\n      pop\n      pop\n      pop\n      pop\n      jump\t// out\n        /* \"#utility.yul\":7453:7561   */\n    tag_262:\n        /* \"#utility.yul\":7530:7554   */\n      tag_383\n        /* \"#utility.yul\":7548:7553   */\n      dup2\n        /* \"#utility.yul\":7530:7554   */\n      tag_241\n      jump\t// in\n    tag_383:\n        /* \"#utility.yul\":7525:7528   */\n      dup3\n        /* \"#utility.yul\":7518:7555   */\n      mstore\n        /* \"#utility.yul\":7453:7561   */\n      pop\n      pop\n      jump\t// out\n        /* \"#utility.yul\":7567:7710   */\n    tag_263:\n        /* \"#utility.yul\":7655:7703   */\n      tag_385\n        /* \"#utility.yul\":7697:7702   */\n      dup2\n        /* \"#utility.yul\":7655:7703   */\n      tag_258\n      jump\t// in\n    tag_385:\n        /* \"#utility.yul\":7650:7653   */\n      dup3\n        /* \"#utility.yul\":7643:7704   */\n      mstore\n        /* \"#utility.yul\":7567:7710   */\n      pop\n      pop\n      jump\t// out\n        /* \"#utility.yul\":7716:7818   */\n    tag_264:\n        /* \"#utility.yul\":7789:7811   */\n      tag_387\n        /* \"#utility.yul\":7805:7810   */\n      dup2\n        /* \"#utility.yul\":7789:7811   */\n      tag_253\n      jump\t// in\n    tag_387:\n        /* \"#utility.yul\":7784:7787   */\n      dup3\n        /* \"#utility.yul\":7777:7812   */\n      mstore\n        /* \"#utility.yul\":7716:7818   */\n      pop\n      pop\n      jump\t// out\n        /* \"#utility.yul\":7824:7923   */\n    tag_265:\n        /* \"#utility.yul\":7895:7916   */\n      tag_389\n        /* \"#utility.yul\":7910:7915   */\n      dup2\n        /* \"#utility.yul\":7895:7916   */\n      tag_260\n      jump\t// in\n    tag_389:\n        /* \"#utility.yul\":7890:7893   */\n      dup3\n        /* \"#utility.yul\":7883:7917   */\n      mstore\n        /* \"#utility.yul\":7824:7923   */\n      pop\n      pop\n      jump\t// out\n        /* \"#utility.yul\":7987:9551   */\n    tag_266:\n        /* \"#utility.yul\":8126:8132   */\n      0x0100\n        /* \"#utility.yul\":8121:8124   */\n      dup3\n        /* \"#utility.yul\":8117:8133   */\n      add\n        /* \"#utility.yul\":8213:8217   */\n      0x00\n        /* \"#utility.yul\":8206:8211   */\n      dup3\n        /* \"#utility.yul\":8202:8218   */\n      add\n        /* \"#utility.yul\":8196:8219   */\n      mload\n        /* \"#utility.yul\":8232:8295   */\n      tag_391\n        /* \"#utility.yul\":8289:8293   */\n      0x00\n        /* \"#utility.yul\":8284:8287   */\n      dup6\n        /* \"#utility.yul\":8280:8294   */\n      add\n        /* \"#utility.yul\":8266:8278   */\n      dup3\n        /* \"#utility.yul\":8232:8295   */\n      tag_247\n      jump\t// in\n    tag_391:\n        /* \"#utility.yul\":8143:8305   */\n      pop\n        /* \"#utility.yul\":8388:8392   */\n      0x20\n        /* \"#utility.yul\":8381:8386   */\n      dup3\n        /* \"#utility.yul\":8377:8393   */\n      add\n        /* \"#utility.yul\":8371:8394   */\n      mload\n        /* \"#utility.yul\":8407:8470   */\n      tag_392\n        /* \"#utility.yul\":8464:8468   */\n      0x20\n        /* \"#utility.yul\":8459:8462   */\n      dup6\n        /* \"#utility.yul\":8455:8469   */\n      add\n        /* \"#utility.yul\":8441:8453   */\n      dup3\n        /* \"#utility.yul\":8407:8470   */\n      tag_262\n      jump\t// in\n    tag_392:\n        /* \"#utility.yul\":8315:8480   */\n      pop\n        /* \"#utility.yul\":8563:8567   */\n      0x40\n        /* \"#utility.yul\":8556:8561   */\n      dup3\n        /* \"#utility.yul\":8552:8568   */\n      add\n        /* \"#utility.yul\":8546:8569   */\n      mload\n        /* \"#utility.yul\":8582:8656   */\n      tag_393\n        /* \"#utility.yul\":8650:8654   */\n      0x40\n        /* \"#utility.yul\":8645:8648   */\n      dup6\n        /* \"#utility.yul\":8641:8655   */\n      add\n        /* \"#utility.yul\":8627:8639   */\n      dup3\n        /* \"#utility.yul\":8582:8656   */\n      tag_263\n      jump\t// in\n    tag_393:\n        /* \"#utility.yul\":8490:8666   */\n      pop\n        /* \"#utility.yul\":8755:8759   */\n      0x60\n        /* \"#utility.yul\":8748:8753   */\n      dup3\n        /* \"#utility.yul\":8744:8760   */\n      add\n        /* \"#utility.yul\":8738:8761   */\n      mload\n        /* \"#utility.yul\":8774:8837   */\n      tag_394\n        /* \"#utility.yul\":8831:8835   */\n      0x60\n        /* \"#utility.yul\":8826:8829   */\n      dup6\n        /* \"#utility.yul\":8822:8836   */\n      add\n        /* \"#utility.yul\":8808:8820   */\n      dup3\n        /* \"#utility.yul\":8774:8837   */\n      tag_247\n      jump\t// in\n    tag_394:\n        /* \"#utility.yul\":8676:8847   */\n      pop\n        /* \"#utility.yul\":8936:8940   */\n      0x80\n        /* \"#utility.yul\":8929:8934   */\n      dup3\n        /* \"#utility.yul\":8925:8941   */\n      add\n        /* \"#utility.yul\":8919:8942   */\n      mload\n        /* \"#utility.yul\":8955:9018   */\n      tag_395\n        /* \"#utility.yul\":9012:9016   */\n      0x80\n        /* \"#utility.yul\":9007:9010   */\n      dup6\n        /* \"#utility.yul\":9003:9017   */\n      add\n        /* \"#utility.yul\":8989:9001   */\n      dup3\n        /* \"#utility.yul\":8955:9018   */\n      tag_247\n      jump\t// in\n    tag_395:\n        /* \"#utility.yul\":8857:9028   */\n      pop\n        /* \"#utility.yul\":9116:9120   */\n      0xa0\n        /* \"#utility.yul\":9109:9114   */\n      dup3\n        /* \"#utility.yul\":9105:9121   */\n      add\n        /* \"#utility.yul\":9099:9122   */\n      mload\n        /* \"#utility.yul\":9135:9194   */\n      tag_396\n        /* \"#utility.yul\":9188:9192   */\n      0xa0\n        /* \"#utility.yul\":9183:9186   */\n      dup6\n        /* \"#utility.yul\":9179:9193   */\n      add\n        /* \"#utility.yul\":9165:9177   */\n      dup3\n        /* \"#utility.yul\":9135:9194   */\n      tag_264\n      jump\t// in\n    tag_396:\n        /* \"#utility.yul\":9038:9204   */\n      pop\n        /* \"#utility.yul\":9288:9292   */\n      0xc0\n        /* \"#utility.yul\":9281:9286   */\n      dup3\n        /* \"#utility.yul\":9277:9293   */\n      add\n        /* \"#utility.yul\":9271:9294   */\n      mload\n        /* \"#utility.yul\":9307:9364   */\n      tag_397\n        /* \"#utility.yul\":9358:9362   */\n      0xc0\n        /* \"#utility.yul\":9353:9356   */\n      dup6\n        /* \"#utility.yul\":9349:9363   */\n      add\n        /* \"#utility.yul\":9335:9347   */\n      dup3\n        /* \"#utility.yul\":9307:9364   */\n      tag_265\n      jump\t// in\n    tag_397:\n        /* \"#utility.yul\":9214:9374   */\n      pop\n        /* \"#utility.yul\":9458:9462   */\n      0xe0\n        /* \"#utility.yul\":9451:9456   */\n      dup3\n        /* \"#utility.yul\":9447:9463   */\n      add\n        /* \"#utility.yul\":9441:9464   */\n      mload\n        /* \"#utility.yul\":9477:9534   */\n      tag_398\n        /* \"#utility.yul\":9528:9532   */\n      0xe0\n        /* \"#utility.yul\":9523:9526   */\n      dup6\n        /* \"#utility.yul\":9519:9533   */\n      add\n        /* \"#utility.yul\":9505:9517   */\n      dup3\n        /* \"#utility.yul\":9477:9534   */\n      tag_265\n      jump\t// in\n    tag_398:\n        /* \"#utility.yul\":9384:9544   */\n      pop\n        /* \"#utility.yul\":8095:9551   */\n      pop\n        /* \"#utility.yul\":7987:9551   */\n      pop\n      pop\n      jump\t// out\n        /* \"#utility.yul\":9557:9864   */\n    tag_112:\n        /* \"#utility.yul\":9692:9696   */\n      0x00\n        /* \"#utility.yul\":9730:9733   */\n      0x0100\n        /* \"#utility.yul\":9719:9728   */\n      dup3\n        /* \"#utility.yul\":9715:9734   */\n      add\n        /* \"#utility.yul\":9707:9734   */\n      swap1\n      pop\n        /* \"#utility.yul\":9744:9857   */\n      tag_400\n        /* \"#utility.yul\":9854:9855   */\n      0x00\n        /* \"#utility.yul\":9843:9852   */\n      dup4\n        /* \"#utility.yul\":9839:9856   */\n      add\n        /* \"#utility.yul\":9830:9836   */\n      dup5\n        /* \"#utility.yul\":9744:9857   */\n      tag_266\n      jump\t// in\n    tag_400:\n        /* \"#utility.yul\":9557:9864   */\n      swap3\n      swap2\n      pop\n      pop\n      jump\t// out\n        /* \"#utility.yul\":9870:10039   */\n    tag_267:\n        /* \"#utility.yul\":9954:9965   */\n      0x00\n        /* \"#utility.yul\":9988:9994   */\n      dup3\n        /* \"#utility.yul\":9983:9986   */\n      dup3\n        /* \"#utility.yul\":9976:9995   */\n      mstore\n        /* \"#utility.yul\":10028:10032   */\n      0x20\n        /* \"#utility.yul\":10023:10026   */\n      dup3\n        /* \"#utility.yul\":10019:10033   */\n      add\n        /* \"#utility.yul\":10004:10033   */\n      swap1\n      pop\n        /* \"#utility.yul\":9870:10039   */\n      swap3\n      swap2\n      pop\n      pop\n      jump\t// out\n        /* \"#utility.yul\":10045:10204   */\n    tag_268:\n        /* \"#utility.yul\":10185:10196   */\n      0x4e6f74206f776e65720000000000000000000000000000000000000000000000\n        /* \"#utility.yul\":10181:10182   */\n      0x00\n        /* \"#utility.yul\":10173:10179   */\n      dup3\n        /* \"#utility.yul\":10169:10183   */\n      add\n        /* \"#utility.yul\":10162:10197   */\n      mstore\n        /* \"#utility.yul\":10045:10204   */\n      pop\n      jump\t// out\n        /* \"#utility.yul\":10210:10575   */\n    tag_269:\n        /* \"#utility.yul\":10352:10355   */\n      0x00\n        /* \"#utility.yul\":10373:10439   */\n      tag_404\n        /* \"#utility.yul\":10437:10438   */\n      0x09\n        /* \"#utility.yul\":10432:10435   */\n      dup4\n        /* \"#utility.yul\":10373:10439   */\n      tag_267\n      jump\t// in\n    tag_404:\n        /* \"#utility.yul\":10366:10439   */\n      swap2\n      pop\n        /* \"#utility.yul\":10448:10541   */\n      tag_405\n        /* \"#utility.yul\":10537:10540   */\n      dup3\n        /* \"#utility.yul\":10448:10541   */\n      tag_268\n      jump\t// in\n    tag_405:\n        /* \"#utility.yul\":10566:10568   */\n      0x20\n        /* \"#utility.yul\":10561:10564   */\n      dup3\n        /* \"#utility.yul\":10557:10569   */\n      add\n        /* \"#utility.yul\":10550:10569   */\n      swap1\n      pop\n        /* \"#utility.yul\":10210:10575   */\n      swap2\n      swap1\n      pop\n      jump\t// out\n        /* \"#utility.yul\":10581:11000   */\n    tag_120:\n        /* \"#utility.yul\":10747:10751   */\n      0x00\n        /* \"#utility.yul\":10785:10787   */\n      0x20\n        /* \"#utility.yul\":10774:10783   */\n      dup3\n        /* \"#utility.yul\":10770:10788   */\n      add\n        /* \"#utility.yul\":10762:10788   */\n      swap1\n      pop\n        /* \"#utility.yul\":10834:10843   */\n      dup2\n        /* \"#utility.yul\":10828:10832   */\n      dup2\n        /* \"#utility.yul\":10824:10844   */\n      sub\n        /* \"#utility.yul\":10820:10821   */\n      0x00\n        /* \"#utility.yul\":10809:10818   */\n      dup4\n        /* \"#utility.yul\":10805:10822   */\n      add\n        /* \"#utility.yul\":10798:10845   */\n      mstore\n        /* \"#utility.yul\":10862:10993   */\n      tag_407\n        /* \"#utility.yul\":10988:10992   */\n      dup2\n        /* \"#utility.yul\":10862:10993   */\n      tag_269\n      jump\t// in\n    tag_407:\n        /* \"#utility.yul\":10854:10993   */\n      swap1\n      pop\n        /* \"#utility.yul\":10581:11000   */\n      swap2\n      swap1\n      pop\n      jump\t// out\n        /* \"#utility.yul\":11006:11153   */\n    tag_270:\n        /* \"#utility.yul\":11107:11118   */\n      0x00\n        /* \"#utility.yul\":11144:11147   */\n      dup2\n        /* \"#utility.yul\":11129:11147   */\n      swap1\n      pop\n        /* \"#utility.yul\":11006:11153   */\n      swap3\n      swap2\n      pop\n      pop\n      jump\t// out\n        /* \"#utility.yul\":11159:11273   */\n    tag_271:\n      pop\n      jump\t// out\n        /* \"#utility.yul\":11279:11677   */\n    tag_272:\n        /* \"#utility.yul\":11438:11441   */\n      0x00\n        /* \"#utility.yul\":11459:11542   */\n      tag_411\n        /* \"#utility.yul\":11540:11541   */\n      0x00\n        /* \"#utility.yul\":11535:11538   */\n      dup4\n        /* \"#utility.yul\":11459:11542   */\n      tag_270\n      jump\t// in\n    tag_411:\n        /* \"#utility.yul\":11452:11542   */\n      swap2\n      pop\n        /* \"#utility.yul\":11551:11644   */\n      tag_412\n        /* \"#utility.yul\":11640:11643   */\n      dup3\n        /* \"#utility.yul\":11551:11644   */\n      tag_271\n      jump\t// in\n    tag_412:\n        /* \"#utility.yul\":11669:11670   */\n      0x00\n        /* \"#utility.yul\":11664:11667   */\n      dup3\n        /* \"#utility.yul\":11660:11671   */\n      add\n        /* \"#utility.yul\":11653:11671   */\n      swap1\n      pop\n        /* \"#utility.yul\":11279:11677   */\n      swap2\n      swap1\n      pop\n      jump\t// out\n        /* \"#utility.yul\":11683:12062   */\n    tag_122:\n        /* \"#utility.yul\":11867:11870   */\n      0x00\n        /* \"#utility.yul\":11889:12036   */\n      tag_414\n        /* \"#utility.yul\":12032:12035   */\n      dup3\n        /* \"#utility.yul\":11889:12036   */\n      tag_272\n      jump\t// in\n    tag_414:\n        /* \"#utility.yul\":11882:12036   */\n      swap2\n      pop\n        /* \"#utility.yul\":12053:12056   */\n      dup2\n        /* \"#utility.yul\":12046:12056   */\n      swap1\n      pop\n        /* \"#utility.yul\":11683:12062   */\n      swap2\n      swap1\n      pop\n      jump\t// out\n        /* \"#utility.yul\":12068:12233   */\n    tag_273:\n        /* \"#utility.yul\":12208:12225   */\n      0x5472616e73666572206661696c65640000000000000000000000000000000000\n        /* \"#utility.yul\":12204:12205   */\n      0x00\n        /* \"#utility.yul\":12196:12202   */\n      dup3\n        /* \"#utility.yul\":12192:12206   */\n      add\n        /* \"#utility.yul\":12185:12226   */\n      mstore\n        /* \"#utility.yul\":12068:12233   */\n      pop\n      jump\t// out\n        /* \"#utility.yul\":12239:12605   */\n    tag_274:\n        /* \"#utility.yul\":12381:12384   */\n      0x00\n        /* \"#utility.yul\":12402:12469   */\n      tag_417\n        /* \"#utility.yul\":12466:12468   */\n      0x0f\n        /* \"#utility.yul\":12461:12464   */\n      dup4\n        /* \"#utility.yul\":12402:12469   */\n      tag_267\n      jump\t// in\n    tag_417:\n        /* \"#utility.yul\":12395:12469   */\n      swap2\n      pop\n        /* \"#utility.yul\":12478:12571   */\n      tag_418\n        /* \"#utility.yul\":12567:12570   */\n      dup3\n        /* \"#utility.yul\":12478:12571   */\n      tag_273\n      jump\t// in\n    tag_418:\n        /* \"#utility.yul\":12596:12598   */\n      0x20\n        /* \"#utility.yul\":12591:12594   */\n      dup3\n        /* \"#utility.yul\":12587:12599   */\n      add\n        /* \"#utility.yul\":12580:12599   */\n      swap1\n      pop\n        /* \"#utility.yul\":12239:12605   */\n      swap2\n      swap1\n      pop\n      jump\t// out\n        /* \"#utility.yul\":12611:13030   */\n    tag_128:\n        /* \"#utility.yul\":12777:12781   */\n      0x00\n        /* \"#utility.yul\":12815:12817   */\n      0x20\n        /* \"#utility.yul\":12804:12813   */\n      dup3\n        /* \"#utility.yul\":12800:12818   */\n      add\n        /* \"#utility.yul\":12792:12818   */\n      swap1\n      pop\n        /* \"#utility.yul\":12864:12873   */\n      dup2\n        /* \"#utility.yul\":12858:12862   */\n      dup2\n        /* \"#utility.yul\":12854:12874   */\n      sub\n        /* \"#utility.yul\":12850:12851   */\n      0x00\n        /* \"#utility.yul\":12839:12848   */\n      dup4\n        /* \"#utility.yul\":12835:12852   */\n      add\n        /* \"#utility.yul\":12828:12875   */\n      mstore\n        /* \"#utility.yul\":12892:13023   */\n      tag_420\n        /* \"#utility.yul\":13018:13022   */\n      dup2\n        /* \"#utility.yul\":12892:13023   */\n      tag_274\n      jump\t// in\n    tag_420:\n        /* \"#utility.yul\":12884:13023   */\n      swap1\n      pop\n        /* \"#utility.yul\":12611:13030   */\n      swap2\n      swap1\n      pop\n      jump\t// out\n        /* \"#utility.yul\":13036:13200   */\n    tag_275:\n        /* \"#utility.yul\":13176:13192   */\n      0x4e65656420302e30303120455448000000000000000000000000000000000000\n        /* \"#utility.yul\":13172:13173   */\n      0x00\n        /* \"#utility.yul\":13164:13170   */\n      dup3\n        /* \"#utility.yul\":13160:13174   */\n      add\n        /* \"#utility.yul\":13153:13193   */\n      mstore\n        /* \"#utility.yul\":13036:13200   */\n      pop\n      jump\t// out\n        /* \"#utility.yul\":13206:13572   */\n    tag_276:\n        /* \"#utility.yul\":13348:13351   */\n      0x00\n        /* \"#utility.yul\":13369:13436   */\n      tag_423\n        /* \"#utility.yul\":13433:13435   */\n      0x0e\n        /* \"#utility.yul\":13428:13431   */\n      dup4\n        /* \"#utility.yul\":13369:13436   */\n      tag_267\n      jump\t// in\n    tag_423:\n        /* \"#utility.yul\":13362:13436   */\n      swap2\n      pop\n        /* \"#utility.yul\":13445:13538   */\n      tag_424\n        /* \"#utility.yul\":13534:13537   */\n      dup3\n        /* \"#utility.yul\":13445:13538   */\n      tag_275\n      jump\t// in\n    tag_424:\n        /* \"#utility.yul\":13563:13565   */\n      0x20\n        /* \"#utility.yul\":13558:13561   */\n      dup3\n        /* \"#utility.yul\":13554:13566   */\n      add\n        /* \"#utility.yul\":13547:13566   */\n      swap1\n      pop\n        /* \"#utility.yul\":13206:13572   */\n      swap2\n      swap1\n      pop\n      jump\t// out\n        /* \"#utility.yul\":13578:13997   */\n    tag_132:\n        /* \"#utility.yul\":13744:13748   */\n      0x00\n        /* \"#utility.yul\":13782:13784   */\n      0x20\n        /* \"#utility.yul\":13771:13780   */\n      dup3\n        /* \"#utility.yul\":13767:13785   */\n      add\n        /* \"#utility.yul\":13759:13785   */\n      swap1\n      pop\n        /* \"#utility.yul\":13831:13840   */\n      dup2\n        /* \"#utility.yul\":13825:13829   */\n      dup2\n        /* \"#utility.yul\":13821:13841   */\n      sub\n        /* \"#utility.yul\":13817:13818   */\n      0x00\n        /* \"#utility.yul\":13806:13815   */\n      dup4\n        /* \"#utility.yul\":13802:13819   */\n      add\n        /* \"#utility.yul\":13795:13842   */\n      mstore\n        /* \"#utility.yul\":13859:13990   */\n      tag_426\n        /* \"#utility.yul\":13985:13989   */\n      dup2\n        /* \"#utility.yul\":13859:13990   */\n      tag_276\n      jump\t// in\n    tag_426:\n        /* \"#utility.yul\":13851:13990   */\n      swap1\n      pop\n        /* \"#utility.yul\":13578:13997   */\n      swap2\n      swap1\n      pop\n      jump\t// out\n        /* \"#utility.yul\":14003:14183   */\n    tag_277:\n        /* \"#utility.yul\":14051:14128   */\n      0x4e487b7100000000000000000000000000000000000000000000000000000000\n        /* \"#utility.yul\":14048:14049   */\n      0x00\n        /* \"#utility.yul\":14041:14129   */\n      mstore\n        /* \"#utility.yul\":14148:14152   */\n      0x11\n        /* \"#utility.yul\":14145:14146   */\n      0x04\n        /* \"#utility.yul\":14138:14153   */\n      mstore\n        /* \"#utility.yul\":14172:14176   */\n      0x24\n        /* \"#utility.yul\":14169:14170   */\n      0x00\n        /* \"#utility.yul\":14162:14177   */\n      revert\n        /* \"#utility.yul\":14189:14422   */\n    tag_134:\n        /* \"#utility.yul\":14228:14231   */\n      0x00\n        /* \"#utility.yul\":14251:14275   */\n      tag_429\n        /* \"#utility.yul\":14269:14274   */\n      dup3\n        /* \"#utility.yul\":14251:14275   */\n      tag_235\n      jump\t// in\n    tag_429:\n        /* \"#utility.yul\":14242:14275   */\n      swap2\n      pop\n        /* \"#utility.yul\":14297:14363   */\n      0xffffffffffffffffffffffffffffffffffffffffffffffffffffffffffffffff\n        /* \"#utility.yul\":14290:14295   */\n      dup3\n        /* \"#utility.yul\":14287:14364   */\n      sub\n        /* \"#utility.yul\":14284:14387   */\n      tag_430\n      jumpi\n        /* \"#utility.yul\":14367:14385   */\n      tag_431\n      tag_277\n      jump\t// in\n    tag_431:\n        /* \"#utility.yul\":14284:14387   */\n    tag_430:\n        /* \"#utility.yul\":14414:14415   */\n      0x01\n        /* \"#utility.yul\":14407:14412   */\n      dup3\n        /* \"#utility.yul\":14403:14416   */\n      add\n        /* \"#utility.yul\":14396:14416   */\n      swap1\n      pop\n        /* \"#utility.yul\":14189:14422   */\n      swap2\n      swap1\n      pop\n      jump\t// out\n        /* \"#utility.yul\":14428:14622   */\n    tag_145:\n        /* \"#utility.yul\":14468:14472   */\n      0x00\n        /* \"#utility.yul\":14488:14508   */\n      tag_433\n        /* \"#utility.yul\":14506:14507   */\n      dup3\n        /* \"#utility.yul\":14488:14508   */\n      tag_235\n      jump\t// in\n    tag_433:\n        /* \"#utility.yul\":14483:14508   */\n      swap2\n      pop\n        /* \"#utility.yul\":14522:14542   */\n      tag_434\n        /* \"#utility.yul\":14540:14541   */\n      dup4\n        /* \"#utility.yul\":14522:14542   */\n      tag_235\n      jump\t// in\n    tag_434:\n        /* \"#utility.yul\":14517:14542   */\n      swap3\n      pop\n        /* \"#utility.yul\":14566:14567   */\n      dup3\n        /* \"#utility.yul\":14563:14564   */\n      dup3\n        /* \"#utility.yul\":14559:14568   */\n      sub\n        /* \"#utility.yul\":14551:14568   */\n      swap1\n      pop\n        /* \"#utility.yul\":14590:14591   */\n      dup2\n        /* \"#utility.yul\":14584:14588   */\n      dup2\n        /* \"#utility.yul\":14581:14592   */\n      gt\n        /* \"#utility.yul\":14578:14615   */\n      iszero\n      tag_435\n      jumpi\n        /* \"#utility.yul\":14595:14613   */\n      tag_436\n      tag_277\n      jump\t// in\n    tag_436:\n        /* \"#utility.yul\":14578:14615   */\n    tag_435:\n        /* \"#utility.yul\":14428:14622   */\n      swap3\n      swap2\n      pop\n      pop\n      jump\t// out\n        /* \"#utility.yul\":14628:14808   */\n    tag_278:\n        /* \"#utility.yul\":14676:14753   */\n      0x4e487b7100000000000000000000000000000000000000000000000000000000\n        /* \"#utility.yul\":14673:14674   */\n      0x00\n        /* \"#utility.yul\":14666:14754   */\n      mstore\n        /* \"#utility.yul\":14773:14777   */\n      0x12\n        /* \"#utility.yul\":14770:14771   */\n      0x04\n        /* \"#utility.yul\":14763:14778   */\n      mstore\n        /* \"#utility.yul\":14797:14801   */\n      0x24\n        /* \"#utility.yul\":14794:14795   */\n      0x00\n        /* \"#utility.yul\":14787:14802   */\n      revert\n        /* \"#utility.yul\":14814:14999   */\n    tag_147:\n        /* \"#utility.yul\":14854:14855   */\n      0x00\n        /* \"#utility.yul\":14871:14891   */\n      tag_439\n        /* \"#utility.yul\":14889:14890   */\n      dup3\n        /* \"#utility.yul\":14871:14891   */\n      tag_235\n      jump\t// in\n    tag_439:\n        /* \"#utility.yul\":14866:14891   */\n      swap2\n      pop\n        /* \"#utility.yul\":14905:14925   */\n      tag_440\n        /* \"#utility.yul\":14923:14924   */\n      dup4\n        /* \"#utility.yul\":14905:14925   */\n      tag_235\n      jump\t// in\n    tag_440:\n        /* \"#utility.yul\":14900:14925   */\n      swap3\n      pop\n        /* \"#utility.yul\":14944:14945   */\n      dup3\n        /* \"#utility.yul\":14934:14969   */\n      tag_441\n      jumpi\n        /* \"#utility.yul\":14949:14967   */\n      tag_442\n      tag_278\n      jump\t// in\n    tag_442:\n        /* \"#utility.yul\":14934:14969   */\n    tag_441:\n        /* \"#utility.yul\":14991:14992   */\n      dup3\n        /* \"#utility.yul\":14988:14989   */\n      dup3\n        /* \"#utility.yul\":14984:14993   */\n      div\n        /* \"#utility.yul\":14979:14993   */\n      swap1\n      pop\n        /* \"#utility.yul\":14814:14999   */\n      swap3\n      swap2\n      pop\n      pop\n      jump\t// out\n        /* \"#utility.yul\":15005:15415   */\n    tag_149:\n        /* \"#utility.yul\":15045:15052   */\n      0x00\n        /* \"#utility.yul\":15068:15088   */\n      tag_444\n        /* \"#utility.yul\":15086:15087   */\n      dup3\n        /* \"#utility.yul\":15068:15088   */\n      tag_235\n      jump\t// in\n    tag_444:\n        /* \"#utility.yul\":15063:15088   */\n      swap2\n      pop\n        /* \"#utility.yul\":15102:15122   */\n      tag_445\n        /* \"#utility.yul\":15120:15121   */\n      dup4\n        /* \"#utility.yul\":15102:15122   */\n      tag_235\n      jump\t// in\n    tag_445:\n        /* \"#utility.yul\":15097:15122   */\n      swap3\n      pop\n        /* \"#utility.yul\":15157:15158   */\n      dup3\n        /* \"#utility.yul\":15154:15155   */\n      dup3\n        /* \"#utility.yul\":15150:15159   */\n      mul\n        /* \"#utility.yul\":15179:15209   */\n      tag_446\n        /* \"#utility.yul\":15197:15208   */\n      dup2\n        /* \"#utility.yul\":15179:15209   */\n      tag_235\n      jump\t// in\n    tag_446:\n        /* \"#utility.yul\":15168:15209   */\n      swap2\n      pop\n        /* \"#utility.yul\":15358:15359   */\n      dup3\n        /* \"#utility.yul\":15349:15356   */\n      dup3\n        /* \"#utility.yul\":15345:15360   */\n      div\n        /* \"#utility.yul\":15342:15343   */\n      dup5\n        /* \"#utility.yul\":15339:15361   */\n      eq\n        /* \"#utility.yul\":15319:15320   */\n      dup4\n        /* \"#utility.yul\":15312:15321   */\n      iszero\n        /* \"#utility.yul\":15292:15375   */\n      or\n        /* \"#utility.yul\":15269:15408   */\n      tag_447\n      jumpi\n        /* \"#utility.yul\":15388:15406   */\n      tag_448\n      tag_277\n      jump\t// in\n    tag_448:\n        /* \"#utility.yul\":15269:15408   */\n    tag_447:\n        /* \"#utility.yul\":15053:15415   */\n      pop\n        /* \"#utility.yul\":15005:15415   */\n      swap3\n      swap2\n      pop\n      pop\n      jump\t// out\n        /* \"#utility.yul\":15421:15612   */\n    tag_152:\n        /* \"#utility.yul\":15459:15463   */\n      0x00\n        /* \"#utility.yul\":15479:15497   */\n      tag_450\n        /* \"#utility.yul\":15495:15496   */\n      dup3\n        /* \"#utility.yul\":15479:15497   */\n      tag_253\n      jump\t// in\n    tag_450:\n        /* \"#utility.yul\":15474:15497   */\n      swap2\n      pop\n        /* \"#utility.yul\":15511:15529   */\n      tag_451\n        /* \"#utility.yul\":15527:15528   */\n      dup4\n        /* \"#utility.yul\":15511:15529   */\n      tag_253\n      jump\t// in\n    tag_451:\n        /* \"#utility.yul\":15506:15529   */\n      swap3\n      pop\n        /* \"#utility.yul\":15553:15554   */\n      dup3\n        /* \"#utility.yul\":15550:15551   */\n      dup3\n        /* \"#utility.yul\":15546:15555   */\n      sub\n        /* \"#utility.yul\":15538:15555   */\n      swap1\n      pop\n        /* \"#utility.yul\":15577:15581   */\n      0xff\n        /* \"#utility.yul\":15571:15575   */\n      dup2\n        /* \"#utility.yul\":15568:15582   */\n      gt\n        /* \"#utility.yul\":15565:15605   */\n      iszero\n      tag_452\n      jumpi\n        /* \"#utility.yul\":15585:15603   */\n      tag_453\n      tag_277\n      jump\t// in\n    tag_453:\n        /* \"#utility.yul\":15565:15605   */\n    tag_452:\n        /* \"#utility.yul\":15421:15612   */\n      swap3\n      swap2\n      pop\n      pop\n      jump\t// out\n        /* \"#utility.yul\":15618:15788   */\n    tag_279:\n        /* \"#utility.yul\":15758:15780   */\n      0x506c616e7420646f6573206e6f74206578697374000000000000000000000000\n        /* \"#utility.yul\":15754:15755   */\n      0x00\n        /* \"#utility.yul\":15746:15752   */\n      dup3\n        /* \"#utility.yul\":15742:15756   */\n      add\n        /* \"#utility.yul\":15735:15781   */\n      mstore\n        /* \"#utility.yul\":15618:15788   */\n      pop\n      jump\t// out\n        /* \"#utility.yul\":15794:16160   */\n    tag_280:\n        /* \"#utility.yul\":15936:15939   */\n      0x00\n        /* \"#utility.yul\":15957:16024   */\n      tag_456\n        /* \"#utility.yul\":16021:16023   */\n      0x14\n        /* \"#utility.yul\":16016:16019   */\n      dup4\n        /* \"#utility.yul\":15957:16024   */\n      tag_267\n      jump\t// in\n    tag_456:\n        /* \"#utility.yul\":15950:16024   */\n      swap2\n      pop\n        /* \"#utility.yul\":16033:16126   */\n      tag_457\n        /* \"#utility.yul\":16122:16125   */\n      dup3\n        /* \"#utility.yul\":16033:16126   */\n      tag_279\n      jump\t// in\n    tag_457:\n        /* \"#utility.yul\":16151:16153   */\n      0x20\n        /* \"#utility.yul\":16146:16149   */\n      dup3\n        /* \"#utility.yul\":16142:16154   */\n      add\n        /* \"#utility.yul\":16135:16154   */\n      swap1\n      pop\n        /* \"#utility.yul\":15794:16160   */\n      swap2\n      swap1\n      pop\n      jump\t// out\n        /* \"#utility.yul\":16166:16585   */\n    tag_158:\n        /* \"#utility.yul\":16332:16336   */\n      0x00\n        /* \"#utility.yul\":16370:16372   */\n      0x20\n        /* \"#utility.yul\":16359:16368   */\n      dup3\n        /* \"#utility.yul\":16355:16373   */\n      add\n        /* \"#utility.yul\":16347:16373   */\n      swap1\n      pop\n        /* \"#utility.yul\":16419:16428   */\n      dup2\n        /* \"#utility.yul\":16413:16417   */\n      dup2\n        /* \"#utility.yul\":16409:16429   */\n      sub\n        /* \"#utility.yul\":16405:16406   */\n      0x00\n        /* \"#utility.yul\":16394:16403   */\n      dup4\n        /* \"#utility.yul\":16390:16407   */\n      add\n        /* \"#utility.yul\":16383:16430   */\n      mstore\n        /* \"#utility.yul\":16447:16578   */\n      tag_459\n        /* \"#utility.yul\":16573:16577   */\n      dup2\n        /* \"#utility.yul\":16447:16578   */\n      tag_280\n      jump\t// in\n    tag_459:\n        /* \"#utility.yul\":16439:16578   */\n      swap1\n      pop\n        /* \"#utility.yul\":16166:16585   */\n      swap2\n      swap1\n      pop\n      jump\t// out\n        /* \"#utility.yul\":16591:16811   */\n    tag_281:\n        /* \"#utility.yul\":16731:16765   */\n      0x4f6e6c792074686520706c616e74206f776e65722063616e2077617465722069\n        /* \"#utility.yul\":16727:16728   */\n      0x00\n        /* \"#utility.yul\":16719:16725   */\n      dup3\n        /* \"#utility.yul\":16715:16729   */\n      add\n        /* \"#utility.yul\":16708:16766   */\n      mstore\n        /* \"#utility.yul\":16800:16803   */\n      0x7400000000000000000000000000000000000000000000000000000000000000\n        /* \"#utility.yul\":16795:16797   */\n      0x20\n        /* \"#utility.yul\":16787:16793   */\n      dup3\n        /* \"#utility.yul\":16783:16798   */\n      add\n        /* \"#utility.yul\":16776:16804   */\n      mstore\n        /* \"#utility.yul\":16591:16811   */\n      pop\n      jump\t// out\n        /* \"#utility.yul\":16817:17183   */\n    tag_282:\n        /* \"#utility.yul\":16959:16962   */\n      0x00\n        /* \"#utility.yul\":16980:17047   */\n      tag_462\n        /* \"#utility.yul\":17044:17046   */\n      0x21\n        /* \"#utility.yul\":17039:17042   */\n      dup4\n        /* \"#utility.yul\":16980:17047   */\n      tag_267\n      jump\t// in\n    tag_462:\n        /* \"#utility.yul\":16973:17047   */\n      swap2\n      pop\n        /* \"#utility.yul\":17056:17149   */\n      tag_463\n        /* \"#utility.yul\":17145:17148   */\n      dup3\n        /* \"#utility.yul\":17056:17149   */\n      tag_281\n      jump\t// in\n    tag_463:\n        /* \"#utility.yul\":17174:17176   */\n      0x40\n        /* \"#utility.yul\":17169:17172   */\n      dup3\n        /* \"#utility.yul\":17165:17177   */\n      add\n        /* \"#utility.yul\":17158:17177   */\n      swap1\n      pop\n        /* \"#utility.yul\":16817:17183   */\n      swap2\n      swap1\n      pop\n      jump\t// out\n        /* \"#utility.yul\":17189:17608   */\n    tag_161:\n        /* \"#utility.yul\":17355:17359   */\n      0x00\n        /* \"#utility.yul\":17393:17395   */\n      0x20\n        /* \"#utility.yul\":17382:17391   */\n      dup3\n        /* \"#utility.yul\":17378:17396   */\n      add\n        /* \"#utility.yul\":17370:17396   */\n      swap1\n      pop\n        /* \"#utility.yul\":17442:17451   */\n      dup2\n        /* \"#utility.yul\":17436:17440   */\n      dup2\n        /* \"#utility.yul\":17432:17452   */\n      sub\n        /* \"#utility.yul\":17428:17429   */\n      0x00\n        /* \"#utility.yul\":17417:17426   */\n      dup4\n        /* \"#utility.yul\":17413:17430   */\n      add\n        /* \"#utility.yul\":17406:17453   */\n      mstore\n        /* \"#utility.yul\":17470:17601   */\n      tag_465\n        /* \"#utility.yul\":17596:17600   */\n      dup2\n        /* \"#utility.yul\":17470:17601   */\n      tag_282\n      jump\t// in\n    tag_465:\n        /* \"#utility.yul\":17462:17601   */\n      swap1\n      pop\n        /* \"#utility.yul\":17189:17608   */\n      swap2\n      swap1\n      pop\n      jump\t// out\n        /* \"#utility.yul\":17614:17836   */\n    tag_283:\n        /* \"#utility.yul\":17754:17788   */\n      0x506c616e74206973206465616420616e642063616e6e6f742062652077617465\n        /* \"#utility.yul\":17750:17751   */\n      0x00\n        /* \"#utility.yul\":17742:17748   */\n      dup3\n        /* \"#utility.yul\":17738:17752   */\n      add\n        /* \"#utility.yul\":17731:17789   */\n      mstore\n        /* \"#utility.yul\":17823:17828   */\n      0x7265640000000000000000000000000000000000000000000000000000000000\n        /* \"#utility.yul\":17818:17820   */\n      0x20\n        /* \"#utility.yul\":17810:17816   */\n      dup3\n        /* \"#utility.yul\":17806:17821   */\n      add\n        /* \"#utility.yul\":17799:17829   */\n      mstore\n        /* \"#utility.yul\":17614:17836   */\n      pop\n      jump\t// out\n        /* \"#utility.yul\":17842:18208   */\n    tag_284:\n        /* \"#utility.yul\":17984:17987   */\n      0x00\n        /* \"#utility.yul\":18005:18072   */\n      tag_468\n        /* \"#utility.yul\":18069:18071   */\n      0x23\n        /* \"#utility.yul\":18064:18067   */\n      dup4\n        /* \"#utility.yul\":18005:18072   */\n      tag_267\n      jump\t// in\n    tag_468:\n        /* \"#utility.yul\":17998:18072   */\n      swap2\n      pop\n        /* \"#utility.yul\":18081:18174   */\n      tag_469\n        /* \"#utility.yul\":18170:18173   */\n      dup3\n        /* \"#utility.yul\":18081:18174   */\n      tag_283\n      jump\t// in\n    tag_469:\n        /* \"#utility.yul\":18199:18201   */\n      0x40\n        /* \"#utility.yul\":18194:18197   */\n      dup3\n        /* \"#utility.yul\":18190:18202   */\n      add\n        /* \"#utility.yul\":18183:18202   */\n      swap1\n      pop\n        /* \"#utility.yul\":17842:18208   */\n      swap2\n      swap1\n      pop\n      jump\t// out\n        /* \"#utility.yul\":18214:18633   */\n    tag_164:\n        /* \"#utility.yul\":18380:18384   */\n      0x00\n        /* \"#utility.yul\":18418:18420   */\n      0x20\n        /* \"#utility.yul\":18407:18416   */\n      dup3\n        /* \"#utility.yul\":18403:18421   */\n      add\n        /* \"#utility.yul\":18395:18421   */\n      swap1\n      pop\n        /* \"#utility.yul\":18467:18476   */\n      dup2\n        /* \"#utility.yul\":18461:18465   */\n      dup2\n        /* \"#utility.yul\":18457:18477   */\n      sub\n        /* \"#utility.yul\":18453:18454   */\n      0x00\n        /* \"#utility.yul\":18442:18451   */\n      dup4\n        /* \"#utility.yul\":18438:18455   */\n      add\n        /* \"#utility.yul\":18431:18478   */\n      mstore\n        /* \"#utility.yul\":18495:18626   */\n      tag_471\n        /* \"#utility.yul\":18621:18625   */\n      dup2\n        /* \"#utility.yul\":18495:18626   */\n      tag_284\n      jump\t// in\n    tag_471:\n        /* \"#utility.yul\":18487:18626   */\n      swap1\n      pop\n        /* \"#utility.yul\":18214:18633   */\n      swap2\n      swap1\n      pop\n      jump\t// out\n        /* \"#utility.yul\":18639:18726   */\n    tag_285:\n        /* \"#utility.yul\":18686:18693   */\n      0x00\n        /* \"#utility.yul\":18715:18720   */\n      dup2\n        /* \"#utility.yul\":18704:18720   */\n      swap1\n      pop\n        /* \"#utility.yul\":18639:18726   */\n      swap2\n      swap1\n      pop\n      jump\t// out\n        /* \"#utility.yul\":18732:18792   */\n    tag_286:\n        /* \"#utility.yul\":18760:18763   */\n      0x00\n        /* \"#utility.yul\":18781:18786   */\n      dup2\n        /* \"#utility.yul\":18774:18786   */\n      swap1\n      pop\n        /* \"#utility.yul\":18732:18792   */\n      swap2\n      swap1\n      pop\n      jump\t// out\n        /* \"#utility.yul\":18798:18956   */\n    tag_287:\n        /* \"#utility.yul\":18856:18865   */\n      0x00\n        /* \"#utility.yul\":18889:18950   */\n      tag_475\n        /* \"#utility.yul\":18905:18949   */\n      tag_476\n        /* \"#utility.yul\":18914:18948   */\n      tag_477\n        /* \"#utility.yul\":18942:18947   */\n      dup5\n        /* \"#utility.yul\":18914:18948   */\n      tag_285\n      jump\t// in\n    tag_477:\n        /* \"#utility.yul\":18905:18949   */\n      tag_286\n      jump\t// in\n    tag_476:\n        /* \"#utility.yul\":18889:18950   */\n      tag_253\n      jump\t// in\n    tag_475:\n        /* \"#utility.yul\":18876:18950   */\n      swap1\n      pop\n        /* \"#utility.yul\":18798:18956   */\n      swap2\n      swap1\n      pop\n      jump\t// out\n        /* \"#utility.yul\":18962:19109   */\n    tag_288:\n        /* \"#utility.yul\":19057:19102   */\n      tag_479\n        /* \"#utility.yul\":19096:19101   */\n      dup2\n        /* \"#utility.yul\":19057:19102   */\n      tag_287\n      jump\t// in\n    tag_479:\n        /* \"#utility.yul\":19052:19055   */\n      dup3\n        /* \"#utility.yul\":19045:19103   */\n      mstore\n        /* \"#utility.yul\":18962:19109   */\n      pop\n      pop\n      jump\t// out\n        /* \"#utility.yul\":19115:19353   */\n    tag_166:\n        /* \"#utility.yul\":19216:19220   */\n      0x00\n        /* \"#utility.yul\":19254:19256   */\n      0x20\n        /* \"#utility.yul\":19243:19252   */\n      dup3\n        /* \"#utility.yul\":19239:19257   */\n      add\n        /* \"#utility.yul\":19231:19257   */\n      swap1\n      pop\n        /* \"#utility.yul\":19267:19346   */\n      tag_481\n        /* \"#utility.yul\":19343:19344   */\n      0x00\n        /* \"#utility.yul\":19332:19341   */\n      dup4\n        /* \"#utility.yul\":19328:19345   */\n      add\n        /* \"#utility.yul\":19319:19325   */\n      dup5\n        /* \"#utility.yul\":19267:19346   */\n      tag_288\n      jump\t// in\n    tag_481:\n        /* \"#utility.yul\":19115:19353   */\n      swap3\n      swap2\n      pop\n      pop\n      jump\t// out\n        /* \"#utility.yul\":19359:19603   */\n    tag_195:\n        /* \"#utility.yul\":19463:19467   */\n      0x00\n        /* \"#utility.yul\":19501:19503   */\n      0x20\n        /* \"#utility.yul\":19490:19499   */\n      dup3\n        /* \"#utility.yul\":19486:19504   */\n      add\n        /* \"#utility.yul\":19478:19504   */\n      swap1\n      pop\n        /* \"#utility.yul\":19514:19596   */\n      tag_483\n        /* \"#utility.yul\":19593:19594   */\n      0x00\n        /* \"#utility.yul\":19582:19591   */\n      dup4\n        /* \"#utility.yul\":19578:19595   */\n      add\n        /* \"#utility.yul\":19569:19575   */\n      dup5\n        /* \"#utility.yul\":19514:19596   */\n      tag_259\n      jump\t// in\n    tag_483:\n        /* \"#utility.yul\":19359:19603   */\n      swap3\n      swap2\n      pop\n      pop\n      jump\t// out\n        /* \"#utility.yul\":19609:19791   */\n    tag_289:\n        /* \"#utility.yul\":19749:19783   */\n      0x4f6e6c792074686520706c616e74206f776e65722063616e2068617276657374\n        /* \"#utility.yul\":19745:19746   */\n      0x00\n        /* \"#utility.yul\":19737:19743   */\n      dup3\n        /* \"#utility.yul\":19733:19747   */\n      add\n        /* \"#utility.yul\":19726:19784   */\n      mstore\n        /* \"#utility.yul\":19609:19791   */\n      pop\n      jump\t// out\n        /* \"#utility.yul\":19797:20163   */\n    tag_290:\n        /* \"#utility.yul\":19939:19942   */\n      0x00\n        /* \"#utility.yul\":19960:20027   */\n      tag_486\n        /* \"#utility.yul\":20024:20026   */\n      0x20\n        /* \"#utility.yul\":20019:20022   */\n      dup4\n        /* \"#utility.yul\":19960:20027   */\n      tag_267\n      jump\t// in\n    tag_486:\n        /* \"#utility.yul\":19953:20027   */\n      swap2\n      pop\n        /* \"#utility.yul\":20036:20129   */\n      tag_487\n        /* \"#utility.yul\":20125:20128   */\n      dup3\n        /* \"#utility.yul\":20036:20129   */\n      tag_289\n      jump\t// in\n    tag_487:\n        /* \"#utility.yul\":20154:20156   */\n      0x20\n        /* \"#utility.yul\":20149:20152   */\n      dup3\n        /* \"#utility.yul\":20145:20157   */\n      add\n        /* \"#utility.yul\":20138:20157   */\n      swap1\n      pop\n        /* \"#utility.yul\":19797:20163   */\n      swap2\n      swap1\n      pop\n      jump\t// out\n        /* \"#utility.yul\":20169:20588   */\n    tag_201:\n        /* \"#utility.yul\":20335:20339   */\n      0x00\n        /* \"#utility.yul\":20373:20375   */\n      0x20\n        /* \"#utility.yul\":20362:20371   */\n      dup3\n        /* \"#utility.yul\":20358:20376   */\n      add\n        /* \"#utility.yul\":20350:20376   */\n      swap1\n      pop\n        /* \"#utility.yul\":20422:20431   */\n      dup2\n        /* \"#utility.yul\":20416:20420   */\n      dup2\n        /* \"#utility.yul\":20412:20432   */\n      sub\n        /* \"#utility.yul\":20408:20409   */\n      0x00\n        /* \"#utility.yul\":20397:20406   */\n      dup4\n        /* \"#utility.yul\":20393:20410   */\n      add\n        /* \"#utility.yul\":20386:20433   */\n      mstore\n        /* \"#utility.yul\":20450:20581   */\n      tag_489\n        /* \"#utility.yul\":20576:20580   */\n      dup2\n        /* \"#utility.yul\":20450:20581   */\n      tag_290\n      jump\t// in\n    tag_489:\n        /* \"#utility.yul\":20442:20581   */\n      swap1\n      pop\n        /* \"#utility.yul\":20169:20588   */\n      swap2\n      swap1\n      pop\n      jump\t// out\n        /* \"#utility.yul\":20594:20818   */\n    tag_291:\n        /* \"#utility.yul\":20734:20768   */\n      0x506c616e74206973206465616420616e642063616e6e6f742062652068617276\n        /* \"#utility.yul\":20730:20731   */\n      0x00\n        /* \"#utility.yul\":20722:20728   */\n      dup3\n        /* \"#utility.yul\":20718:20732   */\n      add\n        /* \"#utility.yul\":20711:20769   */\n      mstore\n        /* \"#utility.yul\":20803:20810   */\n      0x6573746564000000000000000000000000000000000000000000000000000000\n        /* \"#utility.yul\":20798:20800   */\n      0x20\n        /* \"#utility.yul\":20790:20796   */\n      dup3\n        /* \"#utility.yul\":20786:20801   */\n      add\n        /* \"#utility.yul\":20779:20811   */\n      mstore\n        /* \"#utility.yul\":20594:20818   */\n      pop\n      jump\t// out\n        /* \"#utility.yul\":20824:21190   */\n    tag_292:\n        /* \"#utility.yul\":20966:20969   */\n      0x00\n        /* \"#utility.yul\":20987:21054   */\n      tag_492\n        /* \"#utility.yul\":21051:21053   */\n      0x25\n        /* \"#utility.yul\":21046:21049   */\n      dup4\n        /* \"#utility.yul\":20987:21054   */\n      tag_267\n      jump\t// in\n    tag_492:\n        /* \"#utility.yul\":20980:21054   */\n      swap2\n      pop\n        /* \"#utility.yul\":21063:21156   */\n      tag_493\n        /* \"#utility.yul\":21152:21155   */\n      dup3\n        /* \"#utility.yul\":21063:21156   */\n      tag_291\n      jump\t// in\n    tag_493:\n        /* \"#utility.yul\":21181:21183   */\n      0x40\n        /* \"#utility.yul\":21176:21179   */\n      dup3\n        /* \"#utility.yul\":21172:21184   */\n      add\n        /* \"#utility.yul\":21165:21184   */\n      swap1\n      pop\n        /* \"#utility.yul\":20824:21190   */\n      swap2\n      swap1\n      pop\n      jump\t// out\n        /* \"#utility.yul\":21196:21615   */\n    tag_204:\n        /* \"#utility.yul\":21362:21366   */\n      0x00\n        /* \"#utility.yul\":21400:21402   */\n      0x20\n        /* \"#utility.yul\":21389:21398   */\n      dup3\n        /* \"#utility.yul\":21385:21403   */\n      add\n        /* \"#utility.yul\":21377:21403   */\n      swap1\n      pop\n        /* \"#utility.yul\":21449:21458   */\n      dup2\n        /* \"#utility.yul\":21443:21447   */\n      dup2\n        /* \"#utility.yul\":21439:21459   */\n      sub\n        /* \"#utility.yul\":21435:21436   */\n      0x00\n        /* \"#utility.yul\":21424:21433   */\n      dup4\n        /* \"#utility.yul\":21420:21437   */\n      add\n        /* \"#utility.yul\":21413:21460   */\n      mstore\n        /* \"#utility.yul\":21477:21608   */\n      tag_495\n        /* \"#utility.yul\":21603:21607   */\n      dup2\n        /* \"#utility.yul\":21477:21608   */\n      tag_292\n      jump\t// in\n    tag_495:\n        /* \"#utility.yul\":21469:21608   */\n      swap1\n      pop\n        /* \"#utility.yul\":21196:21615   */\n      swap2\n      swap1\n      pop\n      jump\t// out\n        /* \"#utility.yul\":21621:21841   */\n    tag_293:\n        /* \"#utility.yul\":21761:21795   */\n      0x506c616e74206d75737420626520626c6f6f6d696e6720746f20686172766573\n        /* \"#utility.yul\":21757:21758   */\n      0x00\n        /* \"#utility.yul\":21749:21755   */\n      dup3\n        /* \"#utility.yul\":21745:21759   */\n      add\n        /* \"#utility.yul\":21738:21796   */\n      mstore\n        /* \"#utility.yul\":21830:21833   */\n      0x7400000000000000000000000000000000000000000000000000000000000000\n        /* \"#utility.yul\":21825:21827   */\n      0x20\n        /* \"#utility.yul\":21817:21823   */\n      dup3\n        /* \"#utility.yul\":21813:21828   */\n      add\n        /* \"#utility.yul\":21806:21834   */\n      mstore\n        /* \"#utility.yul\":21621:21841   */\n      pop\n      jump\t// out\n        /* \"#utility.yul\":21847:22213   */\n    tag_294:\n        /* \"#utility.yul\":21989:21992   */\n      0x00\n        /* \"#utility.yul\":22010:22077   */\n      tag_498\n        /* \"#utility.yul\":22074:22076   */\n      0x21\n        /* \"#utility.yul\":22069:22072   */\n      dup4\n        /* \"#utility.yul\":22010:22077   */\n      tag_267\n      jump\t// in\n    tag_498:\n        /* \"#utility.yul\":22003:22077   */\n      swap2\n      pop\n        /* \"#utility.yul\":22086:22179   */\n      tag_499\n        /* \"#utility.yul\":22175:22178   */\n      dup3\n        /* \"#utility.yul\":22086:22179   */\n      tag_293\n      jump\t// in\n    tag_499:\n        /* \"#utility.yul\":22204:22206   */\n      0x40\n        /* \"#utility.yul\":22199:22202   */\n      dup3\n        /* \"#utility.yul\":22195:22207   */\n      add\n        /* \"#utility.yul\":22188:22207   */\n      swap1\n      pop\n        /* \"#utility.yul\":21847:22213   */\n      swap2\n      swap1\n      pop\n      jump\t// out\n        /* \"#utility.yul\":22219:22638   */\n    tag_212:\n        /* \"#utility.yul\":22385:22389   */\n      0x00\n        /* \"#utility.yul\":22423:22425   */\n      0x20\n        /* \"#utility.yul\":22412:22421   */\n      dup3\n        /* \"#utility.yul\":22408:22426   */\n      add\n        /* \"#utility.yul\":22400:22426   */\n      swap1\n      pop\n        /* \"#utility.yul\":22472:22481   */\n      dup2\n        /* \"#utility.yul\":22466:22470   */\n      dup2\n        /* \"#utility.yul\":22462:22482   */\n      sub\n        /* \"#utility.yul\":22458:22459   */\n      0x00\n        /* \"#utility.yul\":22447:22456   */\n      dup4\n        /* \"#utility.yul\":22443:22460   */\n      add\n        /* \"#utility.yul\":22436:22483   */\n      mstore\n        /* \"#utility.yul\":22500:22631   */\n      tag_501\n        /* \"#utility.yul\":22626:22630   */\n      dup2\n        /* \"#utility.yul\":22500:22631   */\n      tag_294\n      jump\t// in\n    tag_501:\n        /* \"#utility.yul\":22492:22631   */\n      swap1\n      pop\n        /* \"#utility.yul\":22219:22638   */\n      swap2\n      swap1\n      pop\n      jump\t// out\n        /* \"#utility.yul\":22644:22823   */\n    tag_295:\n        /* \"#utility.yul\":22784:22815   */\n      0x4661696c656420746f2073656e64206861727665737420726577617264000000\n        /* \"#utility.yul\":22780:22781   */\n      0x00\n        /* \"#utility.yul\":22772:22778   */\n      dup3\n        /* \"#utility.yul\":22768:22782   */\n      add\n        /* \"#utility.yul\":22761:22816   */\n      mstore\n        /* \"#utility.yul\":22644:22823   */\n      pop\n      jump\t// out\n        /* \"#utility.yul\":22829:23195   */\n    tag_296:\n        /* \"#utility.yul\":22971:22974   */\n      0x00\n        /* \"#utility.yul\":22992:23059   */\n      tag_504\n        /* \"#utility.yul\":23056:23058   */\n      0x1d\n        /* \"#utility.yul\":23051:23054   */\n      dup4\n        /* \"#utility.yul\":22992:23059   */\n      tag_267\n      jump\t// in\n    tag_504:\n        /* \"#utility.yul\":22985:23059   */\n      swap2\n      pop\n        /* \"#utility.yul\":23068:23161   */\n      tag_505\n        /* \"#utility.yul\":23157:23160   */\n      dup3\n        /* \"#utility.yul\":23068:23161   */\n      tag_295\n      jump\t// in\n    tag_505:\n        /* \"#utility.yul\":23186:23188   */\n      0x20\n        /* \"#utility.yul\":23181:23184   */\n      dup3\n        /* \"#utility.yul\":23177:23189   */\n      add\n        /* \"#utility.yul\":23170:23189   */\n      swap1\n      pop\n        /* \"#utility.yul\":22829:23195   */\n      swap2\n      swap1\n      pop\n      jump\t// out\n        /* \"#utility.yul\":23201:23620   */\n    tag_220:\n        /* \"#utility.yul\":23367:23371   */\n      0x00\n        /* \"#utility.yul\":23405:23407   */\n      0x20\n        /* \"#utility.yul\":23394:23403   */\n      dup3\n        /* \"#utility.yul\":23390:23408   */\n      add\n        /* \"#utility.yul\":23382:23408   */\n      swap1\n      pop\n        /* \"#utility.yul\":23454:23463   */\n      dup2\n        /* \"#utility.yul\":23448:23452   */\n      dup2\n        /* \"#utility.yul\":23444:23464   */\n      sub\n        /* \"#utility.yul\":23440:23441   */\n      0x00\n        /* \"#utility.yul\":23429:23438   */\n      dup4\n        /* \"#utility.yul\":23425:23442   */\n      add\n        /* \"#utility.yul\":23418:23465   */\n      mstore\n        /* \"#utility.yul\":23482:23613   */\n      tag_507\n        /* \"#utility.yul\":23608:23612   */\n      dup2\n        /* \"#utility.yul\":23482:23613   */\n      tag_296\n      jump\t// in\n    tag_507:\n        /* \"#utility.yul\":23474:23613   */\n      swap1\n      pop\n        /* \"#utility.yul\":23201:23620   */\n      swap2\n      swap1\n      pop\n      jump\t// out\n\n    auxdata: 0xa264697066735822122072b2bfe510d08f6d7a136156d3cec2c32bbb5a89cfe96e850619c02a79cd819d64736f6c634300081e0033\n}\n",
				"bytecode": {
					"linkReferences": {},
					"object": "6080604052348015600e575f5ffd5b503360035f6101000a81548173ffffffffffffffffffffffffffffffffffffffff021916908373ffffffffffffffffffffffffffffffffffffffff160217905550611f828061005c5f395ff3fe608060405260043610610117575f3560e01c80638da5cb5b1161009f578063cfc9a5f811610063578063cfc9a5f81461039b578063d0e30db0146103c5578063ddd42596146103cf578063e38f8448146103f7578063ed0b1f5f1461041f5761011e565b80638da5cb5b146102b25780638dd2361c146102dc5780639886bcfa1461031f5780639c47174914610347578063bacb5ebd146103715761011e565b806351f9efde116100e657806351f9efde146101c857806374119a38146101f2578063754e150d14610210578063891c07851461024c5780638aee578b146102765761011e565b806309d572fa1461012257806312065fe01461014c57806330cec0eb146101765780633ccfd60b146101b25761011e565b3661011e57005b5f5ffd5b34801561012d575f5ffd5b5061013661045b565b60405161014391906113ff565b60405180910390f35b348015610157575f5ffd5b50610160610460565b60405161016d91906113ff565b60405180910390f35b348015610181575f5ffd5b5061019c60048036038101906101979190611476565b610467565b6040516101a99190611558565b60405180910390f35b3480156101bd575f5ffd5b506101c66104fa565b005b3480156101d3575f5ffd5b506101dc610655565b6040516101e991906113ff565b60405180910390f35b6101fa61065a565b60405161020791906113ff565b60405180910390f35b34801561021b575f5ffd5b50610236600480360381019061023191906115a2565b6108e1565b60405161024391906115e8565b60405180910390f35b348015610257575f5ffd5b506102606109b3565b60405161026d91906113ff565b60405180910390f35b348015610281575f5ffd5b5061029c60048036038101906102979190611601565b6109be565b6040516102a991906113ff565b60405180910390f35b3480156102bd575f5ffd5b506102c66109e9565b6040516102d3919061164e565b60405180910390f35b3480156102e7575f5ffd5b5061030260048036038101906102fd91906115a2565b610a0e565b6040516103169897969594939291906116f4565b60405180910390f35b34801561032a575f5ffd5b50610345600480360381019061034091906115a2565b610aa3565b005b348015610352575f5ffd5b5061035b610c56565b60405161036891906113ff565b60405180910390f35b34801561037c575f5ffd5b50610385610c5c565b60405161039291906115e8565b60405180910390f35b3480156103a6575f5ffd5b506103af610c61565b6040516103bc91906113ff565b60405180910390f35b6103cd610c6c565b005b3480156103da575f5ffd5b506103f560048036038101906103f091906115a2565b610c6e565b005b348015610402575f5ffd5b5061041d600480360381019061041891906115a2565b610e71565b005b34801561042a575f5ffd5b50610445600480360381019061044091906115a2565b611181565b604051610452919061184c565b60405180910390f35b601e81565b5f47905090565b606060015f8373ffffffffffffffffffffffffffffffffffffffff1673ffffffffffffffffffffffffffffffffffffffff1681526020019081526020015f208054806020026020016040519081016040528092919081815260200182805480156104ee57602002820191905f5260205f20905b8154815260200190600101908083116104da575b50505050509050919050565b60035f9054906101000a900473ffffffffffffffffffffffffffffffffffffffff1673ffffffffffffffffffffffffffffffffffffffff163373ffffffffffffffffffffffffffffffffffffffff1614610589576040517f08c379a0000000000000000000000000000000000000000000000000000000008152600401610580906118c0565b60405180910390fd5b5f60035f9054906101000a900473ffffffffffffffffffffffffffffffffffffffff1673ffffffffffffffffffffffffffffffffffffffff16476040516105cf9061190b565b5f6040518083038185875af1925050503d805f8114610609576040519150601f19603f3d011682016040523d82523d5f602084013e61060e565b606091505b5050905080610652576040517f08c379a000000000000000000000000000000000000000000000000000000000815260040161064990611969565b60405180910390fd5b50565b603c81565b5f66038d7ea4c680003410156106a5576040517f08c379a000000000000000000000000000000000000000000000000000000000815260040161069c906119d1565b60405180910390fd5b60025f8154809291906106b790611a1c565b919050555060405180610100016040528060025481526020013373ffffffffffffffffffffffffffffffffffffffff1681526020015f60038111156106ff576106fe611667565b5b8152602001428152602001428152602001606460ff1681526020016001151581526020015f15158152505f5f60025481526020019081526020015f205f820151815f01556020820151816001015f6101000a81548173ffffffffffffffffffffffffffffffffffffffff021916908373ffffffffffffffffffffffffffffffffffffffff16021790555060408201518160010160146101000a81548160ff021916908360038111156107b4576107b3611667565b5b0217905550606082015181600201556080820151816003015560a0820151816004015f6101000a81548160ff021916908360ff16021790555060c08201518160040160016101000a81548160ff02191690831515021790555060e08201518160040160026101000a81548160ff02191690831515021790555090505060015f3373ffffffffffffffffffffffffffffffffffffffff1673ffffffffffffffffffffffffffffffffffffffff1681526020019081526020015f20600254908060018154018082558091505060019003905f5260205f20015f90919091909150556002543373ffffffffffffffffffffffffffffffffffffffff167f4f5b22082ac57121703b0b6c1203ef527cfbfa5069616fee6deb979d124adbf060405160405180910390a3600254905090565b5f5f5f5f8481526020019081526020015f2090508060040160019054906101000a900460ff16158061092157508060040160029054906101000a900460ff165b1561092f575f9150506109ae565b5f8160030154426109409190611a63565b90505f601e826109509190611ac3565b90505f600260ff16826109639190611af3565b9050836004015f9054906101000a900460ff1660ff16811061098b575f9450505050506109ae565b80846004015f9054906101000a900460ff166109a79190611b34565b9450505050505b919050565b660aa87bee53800081565b6001602052815f5260405f2081815481106109d7575f80fd5b905f5260205f20015f91509150505481565b60035f9054906101000a900473ffffffffffffffffffffffffffffffffffffffff1681565b5f602052805f5260405f205f91509050805f015490806001015f9054906101000a900473ffffffffffffffffffffffffffffffffffffffff16908060010160149054906101000a900460ff1690806002015490806003015490806004015f9054906101000a900460ff16908060040160019054906101000a900460ff16908060040160029054906101000a900460ff16905088565b5f5f5f8381526020019081526020015f2090508060040160019054906101000a900460ff16610b07576040517f08c379a0000000000000000000000000000000000000000000000000000000008152600401610afe90611bb2565b60405180910390fd5b806001015f9054906101000a900473ffffffffffffffffffffffffffffffffffffffff1673ffffffffffffffffffffffffffffffffffffffff163373ffffffffffffffffffffffffffffffffffffffff1614610b98576040517f08c379a0000000000000000000000000000000000000000000000000000000008152600401610b8f90611c40565b60405180910390fd5b8060040160029054906101000a900460ff1615610bea576040517f08c379a0000000000000000000000000000000000000000000000000000000008152600401610be190611cce565b60405180910390fd5b6064816004015f6101000a81548160ff021916908360ff160217905550428160030181905550817fd4b742b9ba48fffa1f14267075a7793851770764117c423fd0a6550dfc8cb5746064604051610c419190611d2e565b60405180910390a2610c5282610c6e565b5050565b60025481565b600281565b66038d7ea4c6800081565b565b5f5f5f8381526020019081526020015f2090508060040160019054906101000a900460ff16610cd2576040517f08c379a0000000000000000000000000000000000000000000000000000000008152600401610cc990611bb2565b60405180910390fd5b610cdb826112ca565b8060040160029054906101000a900460ff1615610cf85750610e6e565b5f816002015442610d099190611a63565b90505f8260010160149054906101000a900460ff169050603c6003610d2e9190611af3565b8210610d665760038360010160146101000a81548160ff02191690836003811115610d5c57610d5b611667565b5b0217905550610de4565b603c6002610d749190611af3565b8210610dac5760028360010160146101000a81548160ff02191690836003811115610da257610da1611667565b5b0217905550610de3565b603c8210610de25760018360010160146101000a81548160ff02191690836003811115610ddc57610ddb611667565b5b02179055505b5b5b806003811115610df757610df6611667565b5b8360010160149054906101000a900460ff166003811115610e1b57610e1a611667565b5b14610e6a57837f338b8976706f9da67298dddfa1ea4ff7d99cce68b9ca39c4f348994f8e2124a88460010160149054906101000a900460ff16604051610e619190611d47565b60405180910390a25b5050505b50565b5f5f5f8381526020019081526020015f2090508060040160019054906101000a900460ff16610ed5576040517f08c379a0000000000000000000000000000000000000000000000000000000008152600401610ecc90611bb2565b60405180910390fd5b806001015f9054906101000a900473ffffffffffffffffffffffffffffffffffffffff1673ffffffffffffffffffffffffffffffffffffffff163373ffffffffffffffffffffffffffffffffffffffff1614610f66576040517f08c379a0000000000000000000000000000000000000000000000000000000008152600401610f5d90611daa565b60405180910390fd5b8060040160029054906101000a900460ff1615610fb8576040517f08c379a0000000000000000000000000000000000000000000000000000000008152600401610faf90611e38565b60405180910390fd5b610fc182610c6e565b600380811115610fd457610fd3611667565b5b8160010160149054906101000a900460ff166003811115610ff857610ff7611667565b5b14611038576040517f08c379a000000000000000000000000000000000000000000000000000000000815260040161102f90611ec6565b60405180910390fd5b5f8160040160016101000a81548160ff021916908315150217905550806001015f9054906101000a900473ffffffffffffffffffffffffffffffffffffffff1673ffffffffffffffffffffffffffffffffffffffff16827f79f2138ea100070ff95b59c265da7aa3c7a0f61595fe1bb2f5fda2762f398847660aa87bee5380006040516110c591906113ff565b60405180910390a35f3373ffffffffffffffffffffffffffffffffffffffff16660aa87bee5380006040516110f99061190b565b5f6040518083038185875af1925050503d805f8114611133576040519150601f19603f3d011682016040523d82523d5f602084013e611138565b606091505b505090508061117c576040517f08c379a000000000000000000000000000000000000000000000000000000000815260040161117390611f2e565b60405180910390fd5b505050565b61118961137b565b5f5f5f8481526020019081526020015f20604051806101000160405290815f8201548152602001600182015f9054906101000a900473ffffffffffffffffffffffffffffffffffffffff1673ffffffffffffffffffffffffffffffffffffffff1673ffffffffffffffffffffffffffffffffffffffff1681526020016001820160149054906101000a900460ff16600381111561122957611228611667565b5b600381111561123b5761123a611667565b5b81526020016002820154815260200160038201548152602001600482015f9054906101000a900460ff1660ff1660ff1681526020016004820160019054906101000a900460ff161515151581526020016004820160029054906101000a900460ff16151515158152505090506112b0836108e1565b8160a0019060ff16908160ff168152505080915050919050565b5f5f5f8381526020019081526020015f2090505f6112e7836108e1565b905080826004015f6101000a81548160ff021916908360ff1602179055505f8160ff1614801561132657508160040160029054906101000a900460ff16155b156113765760018260040160026101000a81548160ff021916908315150217905550827fcc296a21951f3e57f21afb08547d835a0a9f0f06cc2867009cbe0cae44d36be960405160405180910390a25b505050565b6040518061010001604052805f81526020015f73ffffffffffffffffffffffffffffffffffffffff1681526020015f60038111156113bc576113bb611667565b5b81526020015f81526020015f81526020015f60ff1681526020015f151581526020015f151581525090565b5f819050919050565b6113f9816113e7565b82525050565b5f6020820190506114125f8301846113f0565b92915050565b5f5ffd5b5f73ffffffffffffffffffffffffffffffffffffffff82169050919050565b5f6114458261141c565b9050919050565b6114558161143b565b811461145f575f5ffd5b50565b5f813590506114708161144c565b92915050565b5f6020828403121561148b5761148a611418565b5b5f61149884828501611462565b91505092915050565b5f81519050919050565b5f82825260208201905092915050565b5f819050602082019050919050565b6114d3816113e7565b82525050565b5f6114e483836114ca565b60208301905092915050565b5f602082019050919050565b5f611506826114a1565b61151081856114ab565b935061151b836114bb565b805f5b8381101561154b57815161153288826114d9565b975061153d836114f0565b92505060018101905061151e565b5085935050505092915050565b5f6020820190508181035f83015261157081846114fc565b905092915050565b611581816113e7565b811461158b575f5ffd5b50565b5f8135905061159c81611578565b92915050565b5f602082840312156115b7576115b6611418565b5b5f6115c48482850161158e565b91505092915050565b5f60ff82169050919050565b6115e2816115cd565b82525050565b5f6020820190506115fb5f8301846115d9565b92915050565b5f5f6040838503121561161757611616611418565b5b5f61162485828601611462565b92505060206116358582860161158e565b9150509250929050565b6116488161143b565b82525050565b5f6020820190506116615f83018461163f565b92915050565b7f4e487b71000000000000000000000000000000000000000000000000000000005f52602160045260245ffd5b600481106116a5576116a4611667565b5b50565b5f8190506116b582611694565b919050565b5f6116c4826116a8565b9050919050565b6116d4816116ba565b82525050565b5f8115159050919050565b6116ee816116da565b82525050565b5f610100820190506117085f83018b6113f0565b611715602083018a61163f565b61172260408301896116cb565b61172f60608301886113f0565b61173c60808301876113f0565b61174960a08301866115d9565b61175660c08301856116e5565b61176360e08301846116e5565b9998505050505050505050565b6117798161143b565b82525050565b611788816116ba565b82525050565b611797816115cd565b82525050565b6117a6816116da565b82525050565b61010082015f8201516117c15f8501826114ca565b5060208201516117d46020850182611770565b5060408201516117e7604085018261177f565b5060608201516117fa60608501826114ca565b50608082015161180d60808501826114ca565b5060a082015161182060a085018261178e565b5060c082015161183360c085018261179d565b5060e082015161184660e085018261179d565b50505050565b5f610100820190506118605f8301846117ac565b92915050565b5f82825260208201905092915050565b7f4e6f74206f776e657200000000000000000000000000000000000000000000005f82015250565b5f6118aa600983611866565b91506118b582611876565b602082019050919050565b5f6020820190508181035f8301526118d78161189e565b9050919050565b5f81905092915050565b50565b5f6118f65f836118de565b9150611901826118e8565b5f82019050919050565b5f611915826118eb565b9150819050919050565b7f5472616e73666572206661696c656400000000000000000000000000000000005f82015250565b5f611953600f83611866565b915061195e8261191f565b602082019050919050565b5f6020820190508181035f83015261198081611947565b9050919050565b7f4e65656420302e303031204554480000000000000000000000000000000000005f82015250565b5f6119bb600e83611866565b91506119c682611987565b602082019050919050565b5f6020820190508181035f8301526119e8816119af565b9050919050565b7f4e487b71000000000000000000000000000000000000000000000000000000005f52601160045260245ffd5b5f611a26826113e7565b91507fffffffffffffffffffffffffffffffffffffffffffffffffffffffffffffffff8203611a5857611a576119ef565b5b600182019050919050565b5f611a6d826113e7565b9150611a78836113e7565b9250828203905081811115611a9057611a8f6119ef565b5b92915050565b7f4e487b71000000000000000000000000000000000000000000000000000000005f52601260045260245ffd5b5f611acd826113e7565b9150611ad8836113e7565b925082611ae857611ae7611a96565b5b828204905092915050565b5f611afd826113e7565b9150611b08836113e7565b9250828202611b16816113e7565b91508282048414831517611b2d57611b2c6119ef565b5b5092915050565b5f611b3e826115cd565b9150611b49836115cd565b9250828203905060ff811115611b6257611b616119ef565b5b92915050565b7f506c616e7420646f6573206e6f742065786973740000000000000000000000005f82015250565b5f611b9c601483611866565b9150611ba782611b68565b602082019050919050565b5f6020820190508181035f830152611bc981611b90565b9050919050565b7f4f6e6c792074686520706c616e74206f776e65722063616e20776174657220695f8201527f7400000000000000000000000000000000000000000000000000000000000000602082015250565b5f611c2a602183611866565b9150611c3582611bd0565b604082019050919050565b5f6020820190508181035f830152611c5781611c1e565b9050919050565b7f506c616e74206973206465616420616e642063616e6e6f7420626520776174655f8201527f7265640000000000000000000000000000000000000000000000000000000000602082015250565b5f611cb8602383611866565b9150611cc382611c5e565b604082019050919050565b5f6020820190508181035f830152611ce581611cac565b9050919050565b5f819050919050565b5f819050919050565b5f611d18611d13611d0e84611cec565b611cf5565b6115cd565b9050919050565b611d2881611cfe565b82525050565b5f602082019050611d415f830184611d1f565b92915050565b5f602082019050611d5a5f8301846116cb565b92915050565b7f4f6e6c792074686520706c616e74206f776e65722063616e20686172766573745f82015250565b5f611d94602083611866565b9150611d9f82611d60565b602082019050919050565b5f6020820190508181035f830152611dc181611d88565b9050919050565b7f506c616e74206973206465616420616e642063616e6e6f7420626520686172765f8201527f6573746564000000000000000000000000000000000000000000000000000000602082015250565b5f611e22602583611866565b9150611e2d82611dc8565b604082019050919050565b5f6020820190508181035f830152611e4f81611e16565b9050919050565b7f506c616e74206d75737420626520626c6f6f6d696e6720746f206861727665735f8201527f7400000000000000000000000000000000000000000000000000000000000000602082015250565b5f611eb0602183611866565b9150611ebb82611e56565b604082019050919050565b5f6020820190508181035f830152611edd81611ea4565b9050919050565b7f4661696c656420746f2073656e642068617276657374207265776172640000005f82015250565b5f611f18601d83611866565b9150611f2382611ee4565b602082019050919050565b5f6020820190508181035f830152611f4581611f0c565b905091905056fea264697066735822122072b2bfe510d08f6d7a136156d3cec2c32bbb5a89cfe96e850619c02a79cd819d64736f6c634300081e0033",
					"opcodes": "PUSH1 0x80 PUSH1 0x40 MSTORE CALLVALUE DUP1 ISZERO PUSH1 0xE JUMPI PUSH0 PUSH0 REVERT JUMPDEST POP CALLER PUSH1 0x3 PUSH0 PUSH2 0x100 EXP DUP2 SLOAD DUP2 PUSH20 0xFFFFFFFFFFFFFFFFFFFFFFFFFFFFFFFFFFFFFFFF MUL NOT AND SWAP1 DUP4 PUSH20 0xFFFFFFFFFFFFFFFFFFFFFFFFFFFFFFFFFFFFFFFF AND MUL OR SWAP1 SSTORE POP PUSH2 0x1F82 DUP1 PUSH2 0x5C PUSH0 CODECOPY PUSH0 RETURN INVALID PUSH1 0x80 PUSH1 0x40 MSTORE PUSH1 0x4 CALLDATASIZE LT PUSH2 0x117 JUMPI PUSH0 CALLDATALOAD PUSH1 0xE0 SHR DUP1 PUSH4 0x8DA5CB5B GT PUSH2 0x9F JUMPI DUP1 PUSH4 0xCFC9A5F8 GT PUSH2 0x63 JUMPI DUP1 PUSH4 0xCFC9A5F8 EQ PUSH2 0x39B JUMPI DUP1 PUSH4 0xD0E30DB0 EQ PUSH2 0x3C5 JUMPI DUP1 PUSH4 0xDDD42596 EQ PUSH2 0x3CF JUMPI DUP1 PUSH4 0xE38F8448 EQ PUSH2 0x3F7 JUMPI DUP1 PUSH4 0xED0B1F5F EQ PUSH2 0x41F JUMPI PUSH2 0x11E JUMP JUMPDEST DUP1 PUSH4 0x8DA5CB5B EQ PUSH2 0x2B2 JUMPI DUP1 PUSH4 0x8DD2361C EQ PUSH2 0x2DC JUMPI DUP1 PUSH4 0x9886BCFA EQ PUSH2 0x31F JUMPI DUP1 PUSH4 0x9C471749 EQ PUSH2 0x347 JUMPI DUP1 PUSH4 0xBACB5EBD EQ PUSH2 0x371 JUMPI PUSH2 0x11E JUMP JUMPDEST DUP1 PUSH4 0x51F9EFDE GT PUSH2 0xE6 JUMPI DUP1 PUSH4 0x51F9EFDE EQ PUSH2 0x1C8 JUMPI DUP1 PUSH4 0x74119A38 EQ PUSH2 0x1F2 JUMPI DUP1 PUSH4 0x754E150D EQ PUSH2 0x210 JUMPI DUP1 PUSH4 0x891C0785 EQ PUSH2 0x24C JUMPI DUP1 PUSH4 0x8AEE578B EQ PUSH2 0x276 JUMPI PUSH2 0x11E JUMP JUMPDEST DUP1 PUSH4 0x9D572FA EQ PUSH2 0x122 JUMPI DUP1 PUSH4 0x12065FE0 EQ PUSH2 0x14C JUMPI DUP1 PUSH4 0x30CEC0EB EQ PUSH2 0x176 JUMPI DUP1 PUSH4 0x3CCFD60B EQ PUSH2 0x1B2 JUMPI PUSH2 0x11E JUMP JUMPDEST CALLDATASIZE PUSH2 0x11E JUMPI STOP JUMPDEST PUSH0 PUSH0 REVERT JUMPDEST CALLVALUE DUP1 ISZERO PUSH2 0x12D JUMPI PUSH0 PUSH0 REVERT JUMPDEST POP PUSH2 0x136 PUSH2 0x45B JUMP JUMPDEST PUSH1 0x40 MLOAD PUSH2 0x143 SWAP2 SWAP1 PUSH2 0x13FF JUMP JUMPDEST PUSH1 0x40 MLOAD DUP1 SWAP2 SUB SWAP1 RETURN JUMPDEST CALLVALUE DUP1 ISZERO PUSH2 0x157 JUMPI PUSH0 PUSH0 REVERT JUMPDEST POP PUSH2 0x160 PUSH2 0x460 JUMP JUMPDEST PUSH1 0x40 MLOAD PUSH2 0x16D SWAP2 SWAP1 PUSH2 0x13FF JUMP JUMPDEST PUSH1 0x40 MLOAD DUP1 SWAP2 SUB SWAP1 RETURN JUMPDEST CALLVALUE DUP1 ISZERO PUSH2 0x181 JUMPI PUSH0 PUSH0 REVERT JUMPDEST POP PUSH2 0x19C PUSH1 0x4 DUP1 CALLDATASIZE SUB DUP2 ADD SWAP1 PUSH2 0x197 SWAP2 SWAP1 PUSH2 0x1476 JUMP JUMPDEST PUSH2 0x467 JUMP JUMPDEST PUSH1 0x40 MLOAD PUSH2 0x1A9 SWAP2 SWAP1 PUSH2 0x1558 JUMP JUMPDEST PUSH1 0x40 MLOAD DUP1 SWAP2 SUB SWAP1 RETURN JUMPDEST CALLVALUE DUP1 ISZERO PUSH2 0x1BD JUMPI PUSH0 PUSH0 REVERT JUMPDEST POP PUSH2 0x1C6 PUSH2 0x4FA JUMP JUMPDEST STOP JUMPDEST CALLVALUE DUP1 ISZERO PUSH2 0x1D3 JUMPI PUSH0 PUSH0 REVERT JUMPDEST POP PUSH2 0x1DC PUSH2 0x655 JUMP JUMPDEST PUSH1 0x40 MLOAD PUSH2 0x1E9 SWAP2 SWAP1 PUSH2 0x13FF JUMP JUMPDEST PUSH1 0x40 MLOAD DUP1 SWAP2 SUB SWAP1 RETURN JUMPDEST PUSH2 0x1FA PUSH2 0x65A JUMP JUMPDEST PUSH1 0x40 MLOAD PUSH2 0x207 SWAP2 SWAP1 PUSH2 0x13FF JUMP JUMPDEST PUSH1 0x40 MLOAD DUP1 SWAP2 SUB SWAP1 RETURN JUMPDEST CALLVALUE DUP1 ISZERO PUSH2 0x21B JUMPI PUSH0 PUSH0 REVERT JUMPDEST POP PUSH2 0x236 PUSH1 0x4 DUP1 CALLDATASIZE SUB DUP2 ADD SWAP1 PUSH2 0x231 SWAP2 SWAP1 PUSH2 0x15A2 JUMP JUMPDEST PUSH2 0x8E1 JUMP JUMPDEST PUSH1 0x40 MLOAD PUSH2 0x243 SWAP2 SWAP1 PUSH2 0x15E8 JUMP JUMPDEST PUSH1 0x40 MLOAD DUP1 SWAP2 SUB SWAP1 RETURN JUMPDEST CALLVALUE DUP1 ISZERO PUSH2 0x257 JUMPI PUSH0 PUSH0 REVERT JUMPDEST POP PUSH2 0x260 PUSH2 0x9B3 JUMP JUMPDEST PUSH1 0x40 MLOAD PUSH2 0x26D SWAP2 SWAP1 PUSH2 0x13FF JUMP JUMPDEST PUSH1 0x40 MLOAD DUP1 SWAP2 SUB SWAP1 RETURN JUMPDEST CALLVALUE DUP1 ISZERO PUSH2 0x281 JUMPI PUSH0 PUSH0 REVERT JUMPDEST POP PUSH2 0x29C PUSH1 0x4 DUP1 CALLDATASIZE SUB DUP2 ADD SWAP1 PUSH2 0x297 SWAP2 SWAP1 PUSH2 0x1601 JUMP JUMPDEST PUSH2 0x9BE JUMP JUMPDEST PUSH1 0x40 MLOAD PUSH2 0x2A9 SWAP2 SWAP1 PUSH2 0x13FF JUMP JUMPDEST PUSH1 0x40 MLOAD DUP1 SWAP2 SUB SWAP1 RETURN JUMPDEST CALLVALUE DUP1 ISZERO PUSH2 0x2BD JUMPI PUSH0 PUSH0 REVERT JUMPDEST POP PUSH2 0x2C6 PUSH2 0x9E9 JUMP JUMPDEST PUSH1 0x40 MLOAD PUSH2 0x2D3 SWAP2 SWAP1 PUSH2 0x164E JUMP JUMPDEST PUSH1 0x40 MLOAD DUP1 SWAP2 SUB SWAP1 RETURN JUMPDEST CALLVALUE DUP1 ISZERO PUSH2 0x2E7 JUMPI PUSH0 PUSH0 REVERT JUMPDEST POP PUSH2 0x302 PUSH1 0x4 DUP1 CALLDATASIZE SUB DUP2 ADD SWAP1 PUSH2 0x2FD SWAP2 SWAP1 PUSH2 0x15A2 JUMP JUMPDEST PUSH2 0xA0E JUMP JUMPDEST PUSH1 0x40 MLOAD PUSH2 0x316 SWAP9 SWAP8 SWAP7 SWAP6 SWAP5 SWAP4 SWAP3 SWAP2 SWAP1 PUSH2 0x16F4 JUMP JUMPDEST PUSH1 0x40 MLOAD DUP1 SWAP2 SUB SWAP1 RETURN JUMPDEST CALLVALUE DUP1 ISZERO PUSH2 0x32A JUMPI PUSH0 PUSH0 REVERT JUMPDEST POP PUSH2 0x345 PUSH1 0x4 DUP1 CALLDATASIZE SUB DUP2 ADD SWAP1 PUSH2 0x340 SWAP2 SWAP1 PUSH2 0x15A2 JUMP JUMPDEST PUSH2 0xAA3 JUMP JUMPDEST STOP JUMPDEST CALLVALUE DUP1 ISZERO PUSH2 0x352 JUMPI PUSH0 PUSH0 REVERT JUMPDEST POP PUSH2 0x35B PUSH2 0xC56 JUMP JUMPDEST PUSH1 0x40 MLOAD PUSH2 0x368 SWAP2 SWAP1 PUSH2 0x13FF JUMP JUMPDEST PUSH1 0x40 MLOAD DUP1 SWAP2 SUB SWAP1 RETURN JUMPDEST CALLVALUE DUP1 ISZERO PUSH2 0x37C JUMPI PUSH0 PUSH0 REVERT JUMPDEST POP PUSH2 0x385 PUSH2 0xC5C JUMP JUMPDEST PUSH1 0x40 MLOAD PUSH2 0x392 SWAP2 SWAP1 PUSH2 0x15E8 JUMP JUMPDEST PUSH1 0x40 MLOAD DUP1 SWAP2 SUB SWAP1 RETURN JUMPDEST CALLVALUE DUP1 ISZERO PUSH2 0x3A6 JUMPI PUSH0 PUSH0 REVERT JUMPDEST POP PUSH2 0x3AF PUSH2 0xC61 JUMP JUMPDEST PUSH1 0x40 MLOAD PUSH2 0x3BC SWAP2 SWAP1 PUSH2 0x13FF JUMP JUMPDEST PUSH1 0x40 MLOAD DUP1 SWAP2 SUB SWAP1 RETURN JUMPDEST PUSH2 0x3CD PUSH2 0xC6C JUMP JUMPDEST STOP JUMPDEST CALLVALUE DUP1 ISZERO PUSH2 0x3DA JUMPI PUSH0 PUSH0 REVERT JUMPDEST POP PUSH2 0x3F5 PUSH1 0x4 DUP1 CALLDATASIZE SUB DUP2 ADD SWAP1 PUSH2 0x3F0 SWAP2 SWAP1 PUSH2 0x15A2 JUMP JUMPDEST PUSH2 0xC6E JUMP JUMPDEST STOP JUMPDEST CALLVALUE DUP1 ISZERO PUSH2 0x402 JUMPI PUSH0 PUSH0 REVERT JUMPDEST POP PUSH2 0x41D PUSH1 0x4 DUP1 CALLDATASIZE SUB DUP2 ADD SWAP1 PUSH2 0x418 SWAP2 SWAP1 PUSH2 0x15A2 JUMP JUMPDEST PUSH2 0xE71 JUMP JUMPDEST STOP JUMPDEST CALLVALUE DUP1 ISZERO PUSH2 0x42A JUMPI PUSH0 PUSH0 REVERT JUMPDEST POP PUSH2 0x445 PUSH1 0x4 DUP1 CALLDATASIZE SUB DUP2 ADD SWAP1 PUSH2 0x440 SWAP2 SWAP1 PUSH2 0x15A2 JUMP JUMPDEST PUSH2 0x1181 JUMP JUMPDEST PUSH1 0x40 MLOAD PUSH2 0x452 SWAP2 SWAP1 PUSH2 0x184C JUMP JUMPDEST PUSH1 0x40 MLOAD DUP1 SWAP2 SUB SWAP1 RETURN JUMPDEST PUSH1 0x1E DUP2 JUMP JUMPDEST PUSH0 SELFBALANCE SWAP1 POP SWAP1 JUMP JUMPDEST PUSH1 0x60 PUSH1 0x1 PUSH0 DUP4 PUSH20 0xFFFFFFFFFFFFFFFFFFFFFFFFFFFFFFFFFFFFFFFF AND PUSH20 0xFFFFFFFFFFFFFFFFFFFFFFFFFFFFFFFFFFFFFFFF AND DUP2 MSTORE PUSH1 0x20 ADD SWAP1 DUP2 MSTORE PUSH1 0x20 ADD PUSH0 KECCAK256 DUP1 SLOAD DUP1 PUSH1 0x20 MUL PUSH1 0x20 ADD PUSH1 0x40 MLOAD SWAP1 DUP2 ADD PUSH1 0x40 MSTORE DUP1 SWAP3 SWAP2 SWAP1 DUP2 DUP2 MSTORE PUSH1 0x20 ADD DUP3 DUP1 SLOAD DUP1 ISZERO PUSH2 0x4EE JUMPI PUSH1 0x20 MUL DUP3 ADD SWAP2 SWAP1 PUSH0 MSTORE PUSH1 0x20 PUSH0 KECCAK256 SWAP1 JUMPDEST DUP2 SLOAD DUP2 MSTORE PUSH1 0x20 ADD SWAP1 PUSH1 0x1 ADD SWAP1 DUP1 DUP4 GT PUSH2 0x4DA JUMPI JUMPDEST POP POP POP POP POP SWAP1 POP SWAP2 SWAP1 POP JUMP JUMPDEST PUSH1 0x3 PUSH0 SWAP1 SLOAD SWAP1 PUSH2 0x100 EXP SWAP1 DIV PUSH20 0xFFFFFFFFFFFFFFFFFFFFFFFFFFFFFFFFFFFFFFFF AND PUSH20 0xFFFFFFFFFFFFFFFFFFFFFFFFFFFFFFFFFFFFFFFF AND CALLER PUSH20 0xFFFFFFFFFFFFFFFFFFFFFFFFFFFFFFFFFFFFFFFF AND EQ PUSH2 0x589 JUMPI PUSH1 0x40 MLOAD PUSH32 0x8C379A000000000000000000000000000000000000000000000000000000000 DUP2 MSTORE PUSH1 0x4 ADD PUSH2 0x580 SWAP1 PUSH2 0x18C0 JUMP JUMPDEST PUSH1 0x40 MLOAD DUP1 SWAP2 SUB SWAP1 REVERT JUMPDEST PUSH0 PUSH1 0x3 PUSH0 SWAP1 SLOAD SWAP1 PUSH2 0x100 EXP SWAP1 DIV PUSH20 0xFFFFFFFFFFFFFFFFFFFFFFFFFFFFFFFFFFFFFFFF AND PUSH20 0xFFFFFFFFFFFFFFFFFFFFFFFFFFFFFFFFFFFFFFFF AND SELFBALANCE PUSH1 0x40 MLOAD PUSH2 0x5CF SWAP1 PUSH2 0x190B JUMP JUMPDEST PUSH0 PUSH1 0x40 MLOAD DUP1 DUP4 SUB DUP2 DUP6 DUP8 GAS CALL SWAP3 POP POP POP RETURNDATASIZE DUP1 PUSH0 DUP2 EQ PUSH2 0x609 JUMPI PUSH1 0x40 MLOAD SWAP2 POP PUSH1 0x1F NOT PUSH1 0x3F RETURNDATASIZE ADD AND DUP3 ADD PUSH1 0x40 MSTORE RETURNDATASIZE DUP3 MSTORE RETURNDATASIZE PUSH0 PUSH1 0x20 DUP5 ADD RETURNDATACOPY PUSH2 0x60E JUMP JUMPDEST PUSH1 0x60 SWAP2 POP JUMPDEST POP POP SWAP1 POP DUP1 PUSH2 0x652 JUMPI PUSH1 0x40 MLOAD PUSH32 0x8C379A000000000000000000000000000000000000000000000000000000000 DUP2 MSTORE PUSH1 0x4 ADD PUSH2 0x649 SWAP1 PUSH2 0x1969 JUMP JUMPDEST PUSH1 0x40 MLOAD DUP1 SWAP2 SUB SWAP1 REVERT JUMPDEST POP JUMP JUMPDEST PUSH1 0x3C DUP2 JUMP JUMPDEST PUSH0 PUSH7 0x38D7EA4C68000 CALLVALUE LT ISZERO PUSH2 0x6A5 JUMPI PUSH1 0x40 MLOAD PUSH32 0x8C379A000000000000000000000000000000000000000000000000000000000 DUP2 MSTORE PUSH1 0x4 ADD PUSH2 0x69C SWAP1 PUSH2 0x19D1 JUMP JUMPDEST PUSH1 0x40 MLOAD DUP1 SWAP2 SUB SWAP1 REVERT JUMPDEST PUSH1 0x2 PUSH0 DUP2 SLOAD DUP1 SWAP3 SWAP2 SWAP1 PUSH2 0x6B7 SWAP1 PUSH2 0x1A1C JUMP JUMPDEST SWAP2 SWAP1 POP SSTORE POP PUSH1 0x40 MLOAD DUP1 PUSH2 0x100 ADD PUSH1 0x40 MSTORE DUP1 PUSH1 0x2 SLOAD DUP2 MSTORE PUSH1 0x20 ADD CALLER PUSH20 0xFFFFFFFFFFFFFFFFFFFFFFFFFFFFFFFFFFFFFFFF AND DUP2 MSTORE PUSH1 0x20 ADD PUSH0 PUSH1 0x3 DUP2 GT ISZERO PUSH2 0x6FF JUMPI PUSH2 0x6FE PUSH2 0x1667 JUMP JUMPDEST JUMPDEST DUP2 MSTORE PUSH1 0x20 ADD TIMESTAMP DUP2 MSTORE PUSH1 0x20 ADD TIMESTAMP DUP2 MSTORE PUSH1 0x20 ADD PUSH1 0x64 PUSH1 0xFF AND DUP2 MSTORE PUSH1 0x20 ADD PUSH1 0x1 ISZERO ISZERO DUP2 MSTORE PUSH1 0x20 ADD PUSH0 ISZERO ISZERO DUP2 MSTORE POP PUSH0 PUSH0 PUSH1 0x2 SLOAD DUP2 MSTORE PUSH1 0x20 ADD SWAP1 DUP2 MSTORE PUSH1 0x20 ADD PUSH0 KECCAK256 PUSH0 DUP3 ADD MLOAD DUP2 PUSH0 ADD SSTORE PUSH1 0x20 DUP3 ADD MLOAD DUP2 PUSH1 0x1 ADD PUSH0 PUSH2 0x100 EXP DUP2 SLOAD DUP2 PUSH20 0xFFFFFFFFFFFFFFFFFFFFFFFFFFFFFFFFFFFFFFFF MUL NOT AND SWAP1 DUP4 PUSH20 0xFFFFFFFFFFFFFFFFFFFFFFFFFFFFFFFFFFFFFFFF AND MUL OR SWAP1 SSTORE POP PUSH1 0x40 DUP3 ADD MLOAD DUP2 PUSH1 0x1 ADD PUSH1 0x14 PUSH2 0x100 EXP DUP2 SLOAD DUP2 PUSH1 0xFF MUL NOT AND SWAP1 DUP4 PUSH1 0x3 DUP2 GT ISZERO PUSH2 0x7B4 JUMPI PUSH2 0x7B3 PUSH2 0x1667 JUMP JUMPDEST JUMPDEST MUL OR SWAP1 SSTORE POP PUSH1 0x60 DUP3 ADD MLOAD DUP2 PUSH1 0x2 ADD SSTORE PUSH1 0x80 DUP3 ADD MLOAD DUP2 PUSH1 0x3 ADD SSTORE PUSH1 0xA0 DUP3 ADD MLOAD DUP2 PUSH1 0x4 ADD PUSH0 PUSH2 0x100 EXP DUP2 SLOAD DUP2 PUSH1 0xFF MUL NOT AND SWAP1 DUP4 PUSH1 0xFF AND MUL OR SWAP1 SSTORE POP PUSH1 0xC0 DUP3 ADD MLOAD DUP2 PUSH1 0x4 ADD PUSH1 0x1 PUSH2 0x100 EXP DUP2 SLOAD DUP2 PUSH1 0xFF MUL NOT AND SWAP1 DUP4 ISZERO ISZERO MUL OR SWAP1 SSTORE POP PUSH1 0xE0 DUP3 ADD MLOAD DUP2 PUSH1 0x4 ADD PUSH1 0x2 PUSH2 0x100 EXP DUP2 SLOAD DUP2 PUSH1 0xFF MUL NOT AND SWAP1 DUP4 ISZERO ISZERO MUL OR SWAP1 SSTORE POP SWAP1 POP POP PUSH1 0x1 PUSH0 CALLER PUSH20 0xFFFFFFFFFFFFFFFFFFFFFFFFFFFFFFFFFFFFFFFF AND PUSH20 0xFFFFFFFFFFFFFFFFFFFFFFFFFFFFFFFFFFFFFFFF AND DUP2 MSTORE PUSH1 0x20 ADD SWAP1 DUP2 MSTORE PUSH1 0x20 ADD PUSH0 KECCAK256 PUSH1 0x2 SLOAD SWAP1 DUP1 PUSH1 0x1 DUP2 SLOAD ADD DUP1 DUP3 SSTORE DUP1 SWAP2 POP POP PUSH1 0x1 SWAP1 SUB SWAP1 PUSH0 MSTORE PUSH1 0x20 PUSH0 KECCAK256 ADD PUSH0 SWAP1 SWAP2 SWAP1 SWAP2 SWAP1 SWAP2 POP SSTORE PUSH1 0x2 SLOAD CALLER PUSH20 0xFFFFFFFFFFFFFFFFFFFFFFFFFFFFFFFFFFFFFFFF AND PUSH32 0x4F5B22082AC57121703B0B6C1203EF527CFBFA5069616FEE6DEB979D124ADBF0 PUSH1 0x40 MLOAD PUSH1 0x40 MLOAD DUP1 SWAP2 SUB SWAP1 LOG3 PUSH1 0x2 SLOAD SWAP1 POP SWAP1 JUMP JUMPDEST PUSH0 PUSH0 PUSH0 PUSH0 DUP5 DUP2 MSTORE PUSH1 0x20 ADD SWAP1 DUP2 MSTORE PUSH1 0x20 ADD PUSH0 KECCAK256 SWAP1 POP DUP1 PUSH1 0x4 ADD PUSH1 0x1 SWAP1 SLOAD SWAP1 PUSH2 0x100 EXP SWAP1 DIV PUSH1 0xFF AND ISZERO DUP1 PUSH2 0x921 JUMPI POP DUP1 PUSH1 0x4 ADD PUSH1 0x2 SWAP1 SLOAD SWAP1 PUSH2 0x100 EXP SWAP1 DIV PUSH1 0xFF AND JUMPDEST ISZERO PUSH2 0x92F JUMPI PUSH0 SWAP2 POP POP PUSH2 0x9AE JUMP JUMPDEST PUSH0 DUP2 PUSH1 0x3 ADD SLOAD TIMESTAMP PUSH2 0x940 SWAP2 SWAP1 PUSH2 0x1A63 JUMP JUMPDEST SWAP1 POP PUSH0 PUSH1 0x1E DUP3 PUSH2 0x950 SWAP2 SWAP1 PUSH2 0x1AC3 JUMP JUMPDEST SWAP1 POP PUSH0 PUSH1 0x2 PUSH1 0xFF AND DUP3 PUSH2 0x963 SWAP2 SWAP1 PUSH2 0x1AF3 JUMP JUMPDEST SWAP1 POP DUP4 PUSH1 0x4 ADD PUSH0 SWAP1 SLOAD SWAP1 PUSH2 0x100 EXP SWAP1 DIV PUSH1 0xFF AND PUSH1 0xFF AND DUP2 LT PUSH2 0x98B JUMPI PUSH0 SWAP5 POP POP POP POP POP PUSH2 0x9AE JUMP JUMPDEST DUP1 DUP5 PUSH1 0x4 ADD PUSH0 SWAP1 SLOAD SWAP1 PUSH2 0x100 EXP SWAP1 DIV PUSH1 0xFF AND PUSH2 0x9A7 SWAP2 SWAP1 PUSH2 0x1B34 JUMP JUMPDEST SWAP5 POP POP POP POP POP JUMPDEST SWAP2 SWAP1 POP JUMP JUMPDEST PUSH7 0xAA87BEE538000 DUP2 JUMP JUMPDEST PUSH1 0x1 PUSH1 0x20 MSTORE DUP2 PUSH0 MSTORE PUSH1 0x40 PUSH0 KECCAK256 DUP2 DUP2 SLOAD DUP2 LT PUSH2 0x9D7 JUMPI PUSH0 DUP1 REVERT JUMPDEST SWAP1 PUSH0 MSTORE PUSH1 0x20 PUSH0 KECCAK256 ADD PUSH0 SWAP2 POP SWAP2 POP POP SLOAD DUP2 JUMP JUMPDEST PUSH1 0x3 PUSH0 SWAP1 SLOAD SWAP1 PUSH2 0x100 EXP SWAP1 DIV PUSH20 0xFFFFFFFFFFFFFFFFFFFFFFFFFFFFFFFFFFFFFFFF AND DUP2 JUMP JUMPDEST PUSH0 PUSH1 0x20 MSTORE DUP1 PUSH0 MSTORE PUSH1 0x40 PUSH0 KECCAK256 PUSH0 SWAP2 POP SWAP1 POP DUP1 PUSH0 ADD SLOAD SWAP1 DUP1 PUSH1 0x1 ADD PUSH0 SWAP1 SLOAD SWAP1 PUSH2 0x100 EXP SWAP1 DIV PUSH20 0xFFFFFFFFFFFFFFFFFFFFFFFFFFFFFFFFFFFFFFFF AND SWAP1 DUP1 PUSH1 0x1 ADD PUSH1 0x14 SWAP1 SLOAD SWAP1 PUSH2 0x100 EXP SWAP1 DIV PUSH1 0xFF AND SWAP1 DUP1 PUSH1 0x2 ADD SLOAD SWAP1 DUP1 PUSH1 0x3 ADD SLOAD SWAP1 DUP1 PUSH1 0x4 ADD PUSH0 SWAP1 SLOAD SWAP1 PUSH2 0x100 EXP SWAP1 DIV PUSH1 0xFF AND SWAP1 DUP1 PUSH1 0x4 ADD PUSH1 0x1 SWAP1 SLOAD SWAP1 PUSH2 0x100 EXP SWAP1 DIV PUSH1 0xFF AND SWAP1 DUP1 PUSH1 0x4 ADD PUSH1 0x2 SWAP1 SLOAD SWAP1 PUSH2 0x100 EXP SWAP1 DIV PUSH1 0xFF AND SWAP1 POP DUP9 JUMP JUMPDEST PUSH0 PUSH0 PUSH0 DUP4 DUP2 MSTORE PUSH1 0x20 ADD SWAP1 DUP2 MSTORE PUSH1 0x20 ADD PUSH0 KECCAK256 SWAP1 POP DUP1 PUSH1 0x4 ADD PUSH1 0x1 SWAP1 SLOAD SWAP1 PUSH2 0x100 EXP SWAP1 DIV PUSH1 0xFF AND PUSH2 0xB07 JUMPI PUSH1 0x40 MLOAD PUSH32 0x8C379A000000000000000000000000000000000000000000000000000000000 DUP2 MSTORE PUSH1 0x4 ADD PUSH2 0xAFE SWAP1 PUSH2 0x1BB2 JUMP JUMPDEST PUSH1 0x40 MLOAD DUP1 SWAP2 SUB SWAP1 REVERT JUMPDEST DUP1 PUSH1 0x1 ADD PUSH0 SWAP1 SLOAD SWAP1 PUSH2 0x100 EXP SWAP1 DIV PUSH20 0xFFFFFFFFFFFFFFFFFFFFFFFFFFFFFFFFFFFFFFFF AND PUSH20 0xFFFFFFFFFFFFFFFFFFFFFFFFFFFFFFFFFFFFFFFF AND CALLER PUSH20 0xFFFFFFFFFFFFFFFFFFFFFFFFFFFFFFFFFFFFFFFF AND EQ PUSH2 0xB98 JUMPI PUSH1 0x40 MLOAD PUSH32 0x8C379A000000000000000000000000000000000000000000000000000000000 DUP2 MSTORE PUSH1 0x4 ADD PUSH2 0xB8F SWAP1 PUSH2 0x1C40 JUMP JUMPDEST PUSH1 0x40 MLOAD DUP1 SWAP2 SUB SWAP1 REVERT JUMPDEST DUP1 PUSH1 0x4 ADD PUSH1 0x2 SWAP1 SLOAD SWAP1 PUSH2 0x100 EXP SWAP1 DIV PUSH1 0xFF AND ISZERO PUSH2 0xBEA JUMPI PUSH1 0x40 MLOAD PUSH32 0x8C379A000000000000000000000000000000000000000000000000000000000 DUP2 MSTORE PUSH1 0x4 ADD PUSH2 0xBE1 SWAP1 PUSH2 0x1CCE JUMP JUMPDEST PUSH1 0x40 MLOAD DUP1 SWAP2 SUB SWAP1 REVERT JUMPDEST PUSH1 0x64 DUP2 PUSH1 0x4 ADD PUSH0 PUSH2 0x100 EXP DUP2 SLOAD DUP2 PUSH1 0xFF MUL NOT AND SWAP1 DUP4 PUSH1 0xFF AND MUL OR SWAP1 SSTORE POP TIMESTAMP DUP2 PUSH1 0x3 ADD DUP2 SWAP1 SSTORE POP DUP2 PUSH32 0xD4B742B9BA48FFFA1F14267075A7793851770764117C423FD0A6550DFC8CB574 PUSH1 0x64 PUSH1 0x40 MLOAD PUSH2 0xC41 SWAP2 SWAP1 PUSH2 0x1D2E JUMP JUMPDEST PUSH1 0x40 MLOAD DUP1 SWAP2 SUB SWAP1 LOG2 PUSH2 0xC52 DUP3 PUSH2 0xC6E JUMP JUMPDEST POP POP JUMP JUMPDEST PUSH1 0x2 SLOAD DUP2 JUMP JUMPDEST PUSH1 0x2 DUP2 JUMP JUMPDEST PUSH7 0x38D7EA4C68000 DUP2 JUMP JUMPDEST JUMP JUMPDEST PUSH0 PUSH0 PUSH0 DUP4 DUP2 MSTORE PUSH1 0x20 ADD SWAP1 DUP2 MSTORE PUSH1 0x20 ADD PUSH0 KECCAK256 SWAP1 POP DUP1 PUSH1 0x4 ADD PUSH1 0x1 SWAP1 SLOAD SWAP1 PUSH2 0x100 EXP SWAP1 DIV PUSH1 0xFF AND PUSH2 0xCD2 JUMPI PUSH1 0x40 MLOAD PUSH32 0x8C379A000000000000000000000000000000000000000000000000000000000 DUP2 MSTORE PUSH1 0x4 ADD PUSH2 0xCC9 SWAP1 PUSH2 0x1BB2 JUMP JUMPDEST PUSH1 0x40 MLOAD DUP1 SWAP2 SUB SWAP1 REVERT JUMPDEST PUSH2 0xCDB DUP3 PUSH2 0x12CA JUMP JUMPDEST DUP1 PUSH1 0x4 ADD PUSH1 0x2 SWAP1 SLOAD SWAP1 PUSH2 0x100 EXP SWAP1 DIV PUSH1 0xFF AND ISZERO PUSH2 0xCF8 JUMPI POP PUSH2 0xE6E JUMP JUMPDEST PUSH0 DUP2 PUSH1 0x2 ADD SLOAD TIMESTAMP PUSH2 0xD09 SWAP2 SWAP1 PUSH2 0x1A63 JUMP JUMPDEST SWAP1 POP PUSH0 DUP3 PUSH1 0x1 ADD PUSH1 0x14 SWAP1 SLOAD SWAP1 PUSH2 0x100 EXP SWAP1 DIV PUSH1 0xFF AND SWAP1 POP PUSH1 0x3C PUSH1 0x3 PUSH2 0xD2E SWAP2 SWAP1 PUSH2 0x1AF3 JUMP JUMPDEST DUP3 LT PUSH2 0xD66 JUMPI PUSH1 0x3 DUP4 PUSH1 0x1 ADD PUSH1 0x14 PUSH2 0x100 EXP DUP2 SLOAD DUP2 PUSH1 0xFF MUL NOT AND SWAP1 DUP4 PUSH1 0x3 DUP2 GT ISZERO PUSH2 0xD5C JUMPI PUSH2 0xD5B PUSH2 0x1667 JUMP JUMPDEST JUMPDEST MUL OR SWAP1 SSTORE POP PUSH2 0xDE4 JUMP JUMPDEST PUSH1 0x3C PUSH1 0x2 PUSH2 0xD74 SWAP2 SWAP1 PUSH2 0x1AF3 JUMP JUMPDEST DUP3 LT PUSH2 0xDAC JUMPI PUSH1 0x2 DUP4 PUSH1 0x1 ADD PUSH1 0x14 PUSH2 0x100 EXP DUP2 SLOAD DUP2 PUSH1 0xFF MUL NOT AND SWAP1 DUP4 PUSH1 0x3 DUP2 GT ISZERO PUSH2 0xDA2 JUMPI PUSH2 0xDA1 PUSH2 0x1667 JUMP JUMPDEST JUMPDEST MUL OR SWAP1 SSTORE POP PUSH2 0xDE3 JUMP JUMPDEST PUSH1 0x3C DUP3 LT PUSH2 0xDE2 JUMPI PUSH1 0x1 DUP4 PUSH1 0x1 ADD PUSH1 0x14 PUSH2 0x100 EXP DUP2 SLOAD DUP2 PUSH1 0xFF MUL NOT AND SWAP1 DUP4 PUSH1 0x3 DUP2 GT ISZERO PUSH2 0xDDC JUMPI PUSH2 0xDDB PUSH2 0x1667 JUMP JUMPDEST JUMPDEST MUL OR SWAP1 SSTORE POP JUMPDEST JUMPDEST JUMPDEST DUP1 PUSH1 0x3 DUP2 GT ISZERO PUSH2 0xDF7 JUMPI PUSH2 0xDF6 PUSH2 0x1667 JUMP JUMPDEST JUMPDEST DUP4 PUSH1 0x1 ADD PUSH1 0x14 SWAP1 SLOAD SWAP1 PUSH2 0x100 EXP SWAP1 DIV PUSH1 0xFF AND PUSH1 0x3 DUP2 GT ISZERO PUSH2 0xE1B JUMPI PUSH2 0xE1A PUSH2 0x1667 JUMP JUMPDEST JUMPDEST EQ PUSH2 0xE6A JUMPI DUP4 PUSH32 0x338B8976706F9DA67298DDDFA1EA4FF7D99CCE68B9CA39C4F348994F8E2124A8 DUP5 PUSH1 0x1 ADD PUSH1 0x14 SWAP1 SLOAD SWAP1 PUSH2 0x100 EXP SWAP1 DIV PUSH1 0xFF AND PUSH1 0x40 MLOAD PUSH2 0xE61 SWAP2 SWAP1 PUSH2 0x1D47 JUMP JUMPDEST PUSH1 0x40 MLOAD DUP1 SWAP2 SUB SWAP1 LOG2 JUMPDEST POP POP POP JUMPDEST POP JUMP JUMPDEST PUSH0 PUSH0 PUSH0 DUP4 DUP2 MSTORE PUSH1 0x20 ADD SWAP1 DUP2 MSTORE PUSH1 0x20 ADD PUSH0 KECCAK256 SWAP1 POP DUP1 PUSH1 0x4 ADD PUSH1 0x1 SWAP1 SLOAD SWAP1 PUSH2 0x100 EXP SWAP1 DIV PUSH1 0xFF AND PUSH2 0xED5 JUMPI PUSH1 0x40 MLOAD PUSH32 0x8C379A000000000000000000000000000000000000000000000000000000000 DUP2 MSTORE PUSH1 0x4 ADD PUSH2 0xECC SWAP1 PUSH2 0x1BB2 JUMP JUMPDEST PUSH1 0x40 MLOAD DUP1 SWAP2 SUB SWAP1 REVERT JUMPDEST DUP1 PUSH1 0x1 ADD PUSH0 SWAP1 SLOAD SWAP1 PUSH2 0x100 EXP SWAP1 DIV PUSH20 0xFFFFFFFFFFFFFFFFFFFFFFFFFFFFFFFFFFFFFFFF AND PUSH20 0xFFFFFFFFFFFFFFFFFFFFFFFFFFFFFFFFFFFFFFFF AND CALLER PUSH20 0xFFFFFFFFFFFFFFFFFFFFFFFFFFFFFFFFFFFFFFFF AND EQ PUSH2 0xF66 JUMPI PUSH1 0x40 MLOAD PUSH32 0x8C379A000000000000000000000000000000000000000000000000000000000 DUP2 MSTORE PUSH1 0x4 ADD PUSH2 0xF5D SWAP1 PUSH2 0x1DAA JUMP JUMPDEST PUSH1 0x40 MLOAD DUP1 SWAP2 SUB SWAP1 REVERT JUMPDEST DUP1 PUSH1 0x4 ADD PUSH1 0x2 SWAP1 SLOAD SWAP1 PUSH2 0x100 EXP SWAP1 DIV PUSH1 0xFF AND ISZERO PUSH2 0xFB8 JUMPI PUSH1 0x40 MLOAD PUSH32 0x8C379A000000000000000000000000000000000000000000000000000000000 DUP2 MSTORE PUSH1 0x4 ADD PUSH2 0xFAF SWAP1 PUSH2 0x1E38 JUMP JUMPDEST PUSH1 0x40 MLOAD DUP1 SWAP2 SUB SWAP1 REVERT JUMPDEST PUSH2 0xFC1 DUP3 PUSH2 0xC6E JUMP JUMPDEST PUSH1 0x3 DUP1 DUP2 GT ISZERO PUSH2 0xFD4 JUMPI PUSH2 0xFD3 PUSH2 0x1667 JUMP JUMPDEST JUMPDEST DUP2 PUSH1 0x1 ADD PUSH1 0x14 SWAP1 SLOAD SWAP1 PUSH2 0x100 EXP SWAP1 DIV PUSH1 0xFF AND PUSH1 0x3 DUP2 GT ISZERO PUSH2 0xFF8 JUMPI PUSH2 0xFF7 PUSH2 0x1667 JUMP JUMPDEST JUMPDEST EQ PUSH2 0x1038 JUMPI PUSH1 0x40 MLOAD PUSH32 0x8C379A000000000000000000000000000000000000000000000000000000000 DUP2 MSTORE PUSH1 0x4 ADD PUSH2 0x102F SWAP1 PUSH2 0x1EC6 JUMP JUMPDEST PUSH1 0x40 MLOAD DUP1 SWAP2 SUB SWAP1 REVERT JUMPDEST PUSH0 DUP2 PUSH1 0x4 ADD PUSH1 0x1 PUSH2 0x100 EXP DUP2 SLOAD DUP2 PUSH1 0xFF MUL NOT AND SWAP1 DUP4 ISZERO ISZERO MUL OR SWAP1 SSTORE POP DUP1 PUSH1 0x1 ADD PUSH0 SWAP1 SLOAD SWAP1 PUSH2 0x100 EXP SWAP1 DIV PUSH20 0xFFFFFFFFFFFFFFFFFFFFFFFFFFFFFFFFFFFFFFFF AND PUSH20 0xFFFFFFFFFFFFFFFFFFFFFFFFFFFFFFFFFFFFFFFF AND DUP3 PUSH32 0x79F2138EA100070FF95B59C265DA7AA3C7A0F61595FE1BB2F5FDA2762F398847 PUSH7 0xAA87BEE538000 PUSH1 0x40 MLOAD PUSH2 0x10C5 SWAP2 SWAP1 PUSH2 0x13FF JUMP JUMPDEST PUSH1 0x40 MLOAD DUP1 SWAP2 SUB SWAP1 LOG3 PUSH0 CALLER PUSH20 0xFFFFFFFFFFFFFFFFFFFFFFFFFFFFFFFFFFFFFFFF AND PUSH7 0xAA87BEE538000 PUSH1 0x40 MLOAD PUSH2 0x10F9 SWAP1 PUSH2 0x190B JUMP JUMPDEST PUSH0 PUSH1 0x40 MLOAD DUP1 DUP4 SUB DUP2 DUP6 DUP8 GAS CALL SWAP3 POP POP POP RETURNDATASIZE DUP1 PUSH0 DUP2 EQ PUSH2 0x1133 JUMPI PUSH1 0x40 MLOAD SWAP2 POP PUSH1 0x1F NOT PUSH1 0x3F RETURNDATASIZE ADD AND DUP3 ADD PUSH1 0x40 MSTORE RETURNDATASIZE DUP3 MSTORE RETURNDATASIZE PUSH0 PUSH1 0x20 DUP5 ADD RETURNDATACOPY PUSH2 0x1138 JUMP JUMPDEST PUSH1 0x60 SWAP2 POP JUMPDEST POP POP SWAP1 POP DUP1 PUSH2 0x117C JUMPI PUSH1 0x40 MLOAD PUSH32 0x8C379A000000000000000000000000000000000000000000000000000000000 DUP2 MSTORE PUSH1 0x4 ADD PUSH2 0x1173 SWAP1 PUSH2 0x1F2E JUMP JUMPDEST PUSH1 0x40 MLOAD DUP1 SWAP2 SUB SWAP1 REVERT JUMPDEST POP POP POP JUMP JUMPDEST PUSH2 0x1189 PUSH2 0x137B JUMP JUMPDEST PUSH0 PUSH0 PUSH0 DUP5 DUP2 MSTORE PUSH1 0x20 ADD SWAP1 DUP2 MSTORE PUSH1 0x20 ADD PUSH0 KECCAK256 PUSH1 0x40 MLOAD DUP1 PUSH2 0x100 ADD PUSH1 0x40 MSTORE SWAP1 DUP2 PUSH0 DUP3 ADD SLOAD DUP2 MSTORE PUSH1 0x20 ADD PUSH1 0x1 DUP3 ADD PUSH0 SWAP1 SLOAD SWAP1 PUSH2 0x100 EXP SWAP1 DIV PUSH20 0xFFFFFFFFFFFFFFFFFFFFFFFFFFFFFFFFFFFFFFFF AND PUSH20 0xFFFFFFFFFFFFFFFFFFFFFFFFFFFFFFFFFFFFFFFF AND PUSH20 0xFFFFFFFFFFFFFFFFFFFFFFFFFFFFFFFFFFFFFFFF AND DUP2 MSTORE PUSH1 0x20 ADD PUSH1 0x1 DUP3 ADD PUSH1 0x14 SWAP1 SLOAD SWAP1 PUSH2 0x100 EXP SWAP1 DIV PUSH1 0xFF AND PUSH1 0x3 DUP2 GT ISZERO PUSH2 0x1229 JUMPI PUSH2 0x1228 PUSH2 0x1667 JUMP JUMPDEST JUMPDEST PUSH1 0x3 DUP2 GT ISZERO PUSH2 0x123B JUMPI PUSH2 0x123A PUSH2 0x1667 JUMP JUMPDEST JUMPDEST DUP2 MSTORE PUSH1 0x20 ADD PUSH1 0x2 DUP3 ADD SLOAD DUP2 MSTORE PUSH1 0x20 ADD PUSH1 0x3 DUP3 ADD SLOAD DUP2 MSTORE PUSH1 0x20 ADD PUSH1 0x4 DUP3 ADD PUSH0 SWAP1 SLOAD SWAP1 PUSH2 0x100 EXP SWAP1 DIV PUSH1 0xFF AND PUSH1 0xFF AND PUSH1 0xFF AND DUP2 MSTORE PUSH1 0x20 ADD PUSH1 0x4 DUP3 ADD PUSH1 0x1 SWAP1 SLOAD SWAP1 PUSH2 0x100 EXP SWAP1 DIV PUSH1 0xFF AND ISZERO ISZERO ISZERO ISZERO DUP2 MSTORE PUSH1 0x20 ADD PUSH1 0x4 DUP3 ADD PUSH1 0x2 SWAP1 SLOAD SWAP1 PUSH2 0x100 EXP SWAP1 DIV PUSH1 0xFF AND ISZERO ISZERO ISZERO ISZERO DUP2 MSTORE POP POP SWAP1 POP PUSH2 0x12B0 DUP4 PUSH2 0x8E1 JUMP JUMPDEST DUP2 PUSH1 0xA0 ADD SWAP1 PUSH1 0xFF AND SWAP1 DUP2 PUSH1 0xFF AND DUP2 MSTORE POP POP DUP1 SWAP2 POP POP SWAP2 SWAP1 POP JUMP JUMPDEST PUSH0 PUSH0 PUSH0 DUP4 DUP2 MSTORE PUSH1 0x20 ADD SWAP1 DUP2 MSTORE PUSH1 0x20 ADD PUSH0 KECCAK256 SWAP1 POP PUSH0 PUSH2 0x12E7 DUP4 PUSH2 0x8E1 JUMP JUMPDEST SWAP1 POP DUP1 DUP3 PUSH1 0x4 ADD PUSH0 PUSH2 0x100 EXP DUP2 SLOAD DUP2 PUSH1 0xFF MUL NOT AND SWAP1 DUP4 PUSH1 0xFF AND MUL OR SWAP1 SSTORE POP PUSH0 DUP2 PUSH1 0xFF AND EQ DUP1 ISZERO PUSH2 0x1326 JUMPI POP DUP2 PUSH1 0x4 ADD PUSH1 0x2 SWAP1 SLOAD SWAP1 PUSH2 0x100 EXP SWAP1 DIV PUSH1 0xFF AND ISZERO JUMPDEST ISZERO PUSH2 0x1376 JUMPI PUSH1 0x1 DUP3 PUSH1 0x4 ADD PUSH1 0x2 PUSH2 0x100 EXP DUP2 SLOAD DUP2 PUSH1 0xFF MUL NOT AND SWAP1 DUP4 ISZERO ISZERO MUL OR SWAP1 SSTORE POP DUP3 PUSH32 0xCC296A21951F3E57F21AFB08547D835A0A9F0F06CC2867009CBE0CAE44D36BE9 PUSH1 0x40 MLOAD PUSH1 0x40 MLOAD DUP1 SWAP2 SUB SWAP1 LOG2 JUMPDEST POP POP POP JUMP JUMPDEST PUSH1 0x40 MLOAD DUP1 PUSH2 0x100 ADD PUSH1 0x40 MSTORE DUP1 PUSH0 DUP2 MSTORE PUSH1 0x20 ADD PUSH0 PUSH20 0xFFFFFFFFFFFFFFFFFFFFFFFFFFFFFFFFFFFFFFFF AND DUP2 MSTORE PUSH1 0x20 ADD PUSH0 PUSH1 0x3 DUP2 GT ISZERO PUSH2 0x13BC JUMPI PUSH2 0x13BB PUSH2 0x1667 JUMP JUMPDEST JUMPDEST DUP2 MSTORE PUSH1 0x20 ADD PUSH0 DUP2 MSTORE PUSH1 0x20 ADD PUSH0 DUP2 MSTORE PUSH1 0x20 ADD PUSH0 PUSH1 0xFF AND DUP2 MSTORE PUSH1 0x20 ADD PUSH0 ISZERO ISZERO DUP2 MSTORE PUSH1 0x20 ADD PUSH0 ISZERO ISZERO DUP2 MSTORE POP SWAP1 JUMP JUMPDEST PUSH0 DUP2 SWAP1 POP SWAP2 SWAP1 POP JUMP JUMPDEST PUSH2 0x13F9 DUP2 PUSH2 0x13E7 JUMP JUMPDEST DUP3 MSTORE POP POP JUMP JUMPDEST PUSH0 PUSH1 0x20 DUP3 ADD SWAP1 POP PUSH2 0x1412 PUSH0 DUP4 ADD DUP5 PUSH2 0x13F0 JUMP JUMPDEST SWAP3 SWAP2 POP POP JUMP JUMPDEST PUSH0 PUSH0 REVERT JUMPDEST PUSH0 PUSH20 0xFFFFFFFFFFFFFFFFFFFFFFFFFFFFFFFFFFFFFFFF DUP3 AND SWAP1 POP SWAP2 SWAP1 POP JUMP JUMPDEST PUSH0 PUSH2 0x1445 DUP3 PUSH2 0x141C JUMP JUMPDEST SWAP1 POP SWAP2 SWAP1 POP JUMP JUMPDEST PUSH2 0x1455 DUP2 PUSH2 0x143B JUMP JUMPDEST DUP2 EQ PUSH2 0x145F JUMPI PUSH0 PUSH0 REVERT JUMPDEST POP JUMP JUMPDEST PUSH0 DUP2 CALLDATALOAD SWAP1 POP PUSH2 0x1470 DUP2 PUSH2 0x144C JUMP JUMPDEST SWAP3 SWAP2 POP POP JUMP JUMPDEST PUSH0 PUSH1 0x20 DUP3 DUP5 SUB SLT ISZERO PUSH2 0x148B JUMPI PUSH2 0x148A PUSH2 0x1418 JUMP JUMPDEST JUMPDEST PUSH0 PUSH2 0x1498 DUP5 DUP3 DUP6 ADD PUSH2 0x1462 JUMP JUMPDEST SWAP2 POP POP SWAP3 SWAP2 POP POP JUMP JUMPDEST PUSH0 DUP2 MLOAD SWAP1 POP SWAP2 SWAP1 POP JUMP JUMPDEST PUSH0 DUP3 DUP3 MSTORE PUSH1 0x20 DUP3 ADD SWAP1 POP SWAP3 SWAP2 POP POP JUMP JUMPDEST PUSH0 DUP2 SWAP1 POP PUSH1 0x20 DUP3 ADD SWAP1 POP SWAP2 SWAP1 POP JUMP JUMPDEST PUSH2 0x14D3 DUP2 PUSH2 0x13E7 JUMP JUMPDEST DUP3 MSTORE POP POP JUMP JUMPDEST PUSH0 PUSH2 0x14E4 DUP4 DUP4 PUSH2 0x14CA JUMP JUMPDEST PUSH1 0x20 DUP4 ADD SWAP1 POP SWAP3 SWAP2 POP POP JUMP JUMPDEST PUSH0 PUSH1 0x20 DUP3 ADD SWAP1 POP SWAP2 SWAP1 POP JUMP JUMPDEST PUSH0 PUSH2 0x1506 DUP3 PUSH2 0x14A1 JUMP JUMPDEST PUSH2 0x1510 DUP2 DUP6 PUSH2 0x14AB JUMP JUMPDEST SWAP4 POP PUSH2 0x151B DUP4 PUSH2 0x14BB JUMP JUMPDEST DUP1 PUSH0 JUMPDEST DUP4 DUP2 LT ISZERO PUSH2 0x154B JUMPI DUP2 MLOAD PUSH2 0x1532 DUP9 DUP3 PUSH2 0x14D9 JUMP JUMPDEST SWAP8 POP PUSH2 0x153D DUP4 PUSH2 0x14F0 JUMP JUMPDEST SWAP3 POP POP PUSH1 0x1 DUP2 ADD SWAP1 POP PUSH2 0x151E JUMP JUMPDEST POP DUP6 SWAP4 POP POP POP POP SWAP3 SWAP2 POP POP JUMP JUMPDEST PUSH0 PUSH1 0x20 DUP3 ADD SWAP1 POP DUP2 DUP2 SUB PUSH0 DUP4 ADD MSTORE PUSH2 0x1570 DUP2 DUP5 PUSH2 0x14FC JUMP JUMPDEST SWAP1 POP SWAP3 SWAP2 POP POP JUMP JUMPDEST PUSH2 0x1581 DUP2 PUSH2 0x13E7 JUMP JUMPDEST DUP2 EQ PUSH2 0x158B JUMPI PUSH0 PUSH0 REVERT JUMPDEST POP JUMP JUMPDEST PUSH0 DUP2 CALLDATALOAD SWAP1 POP PUSH2 0x159C DUP2 PUSH2 0x1578 JUMP JUMPDEST SWAP3 SWAP2 POP POP JUMP JUMPDEST PUSH0 PUSH1 0x20 DUP3 DUP5 SUB SLT ISZERO PUSH2 0x15B7 JUMPI PUSH2 0x15B6 PUSH2 0x1418 JUMP JUMPDEST JUMPDEST PUSH0 PUSH2 0x15C4 DUP5 DUP3 DUP6 ADD PUSH2 0x158E JUMP JUMPDEST SWAP2 POP POP SWAP3 SWAP2 POP POP JUMP JUMPDEST PUSH0 PUSH1 0xFF DUP3 AND SWAP1 POP SWAP2 SWAP1 POP JUMP JUMPDEST PUSH2 0x15E2 DUP2 PUSH2 0x15CD JUMP JUMPDEST DUP3 MSTORE POP POP JUMP JUMPDEST PUSH0 PUSH1 0x20 DUP3 ADD SWAP1 POP PUSH2 0x15FB PUSH0 DUP4 ADD DUP5 PUSH2 0x15D9 JUMP JUMPDEST SWAP3 SWAP2 POP POP JUMP JUMPDEST PUSH0 PUSH0 PUSH1 0x40 DUP4 DUP6 SUB SLT ISZERO PUSH2 0x1617 JUMPI PUSH2 0x1616 PUSH2 0x1418 JUMP JUMPDEST JUMPDEST PUSH0 PUSH2 0x1624 DUP6 DUP3 DUP7 ADD PUSH2 0x1462 JUMP JUMPDEST SWAP3 POP POP PUSH1 0x20 PUSH2 0x1635 DUP6 DUP3 DUP7 ADD PUSH2 0x158E JUMP JUMPDEST SWAP2 POP POP SWAP3 POP SWAP3 SWAP1 POP JUMP JUMPDEST PUSH2 0x1648 DUP2 PUSH2 0x143B JUMP JUMPDEST DUP3 MSTORE POP POP JUMP JUMPDEST PUSH0 PUSH1 0x20 DUP3 ADD SWAP1 POP PUSH2 0x1661 PUSH0 DUP4 ADD DUP5 PUSH2 0x163F JUMP JUMPDEST SWAP3 SWAP2 POP POP JUMP JUMPDEST PUSH32 0x4E487B7100000000000000000000000000000000000000000000000000000000 PUSH0 MSTORE PUSH1 0x21 PUSH1 0x4 MSTORE PUSH1 0x24 PUSH0 REVERT JUMPDEST PUSH1 0x4 DUP2 LT PUSH2 0x16A5 JUMPI PUSH2 0x16A4 PUSH2 0x1667 JUMP JUMPDEST JUMPDEST POP JUMP JUMPDEST PUSH0 DUP2 SWAP1 POP PUSH2 0x16B5 DUP3 PUSH2 0x1694 JUMP JUMPDEST SWAP2 SWAP1 POP JUMP JUMPDEST PUSH0 PUSH2 0x16C4 DUP3 PUSH2 0x16A8 JUMP JUMPDEST SWAP1 POP SWAP2 SWAP1 POP JUMP JUMPDEST PUSH2 0x16D4 DUP2 PUSH2 0x16BA JUMP JUMPDEST DUP3 MSTORE POP POP JUMP JUMPDEST PUSH0 DUP2 ISZERO ISZERO SWAP1 POP SWAP2 SWAP1 POP JUMP JUMPDEST PUSH2 0x16EE DUP2 PUSH2 0x16DA JUMP JUMPDEST DUP3 MSTORE POP POP JUMP JUMPDEST PUSH0 PUSH2 0x100 DUP3 ADD SWAP1 POP PUSH2 0x1708 PUSH0 DUP4 ADD DUP12 PUSH2 0x13F0 JUMP JUMPDEST PUSH2 0x1715 PUSH1 0x20 DUP4 ADD DUP11 PUSH2 0x163F JUMP JUMPDEST PUSH2 0x1722 PUSH1 0x40 DUP4 ADD DUP10 PUSH2 0x16CB JUMP JUMPDEST PUSH2 0x172F PUSH1 0x60 DUP4 ADD DUP9 PUSH2 0x13F0 JUMP JUMPDEST PUSH2 0x173C PUSH1 0x80 DUP4 ADD DUP8 PUSH2 0x13F0 JUMP JUMPDEST PUSH2 0x1749 PUSH1 0xA0 DUP4 ADD DUP7 PUSH2 0x15D9 JUMP JUMPDEST PUSH2 0x1756 PUSH1 0xC0 DUP4 ADD DUP6 PUSH2 0x16E5 JUMP JUMPDEST PUSH2 0x1763 PUSH1 0xE0 DUP4 ADD DUP5 PUSH2 0x16E5 JUMP JUMPDEST SWAP10 SWAP9 POP POP POP POP POP POP POP POP POP JUMP JUMPDEST PUSH2 0x1779 DUP2 PUSH2 0x143B JUMP JUMPDEST DUP3 MSTORE POP POP JUMP JUMPDEST PUSH2 0x1788 DUP2 PUSH2 0x16BA JUMP JUMPDEST DUP3 MSTORE POP POP JUMP JUMPDEST PUSH2 0x1797 DUP2 PUSH2 0x15CD JUMP JUMPDEST DUP3 MSTORE POP POP JUMP JUMPDEST PUSH2 0x17A6 DUP2 PUSH2 0x16DA JUMP JUMPDEST DUP3 MSTORE POP POP JUMP JUMPDEST PUSH2 0x100 DUP3 ADD PUSH0 DUP3 ADD MLOAD PUSH2 0x17C1 PUSH0 DUP6 ADD DUP3 PUSH2 0x14CA JUMP JUMPDEST POP PUSH1 0x20 DUP3 ADD MLOAD PUSH2 0x17D4 PUSH1 0x20 DUP6 ADD DUP3 PUSH2 0x1770 JUMP JUMPDEST POP PUSH1 0x40 DUP3 ADD MLOAD PUSH2 0x17E7 PUSH1 0x40 DUP6 ADD DUP3 PUSH2 0x177F JUMP JUMPDEST POP PUSH1 0x60 DUP3 ADD MLOAD PUSH2 0x17FA PUSH1 0x60 DUP6 ADD DUP3 PUSH2 0x14CA JUMP JUMPDEST POP PUSH1 0x80 DUP3 ADD MLOAD PUSH2 0x180D PUSH1 0x80 DUP6 ADD DUP3 PUSH2 0x14CA JUMP JUMPDEST POP PUSH1 0xA0 DUP3 ADD MLOAD PUSH2 0x1820 PUSH1 0xA0 DUP6 ADD DUP3 PUSH2 0x178E JUMP JUMPDEST POP PUSH1 0xC0 DUP3 ADD MLOAD PUSH2 0x1833 PUSH1 0xC0 DUP6 ADD DUP3 PUSH2 0x179D JUMP JUMPDEST POP PUSH1 0xE0 DUP3 ADD MLOAD PUSH2 0x1846 PUSH1 0xE0 DUP6 ADD DUP3 PUSH2 0x179D JUMP JUMPDEST POP POP POP POP JUMP JUMPDEST PUSH0 PUSH2 0x100 DUP3 ADD SWAP1 POP PUSH2 0x1860 PUSH0 DUP4 ADD DUP5 PUSH2 0x17AC JUMP JUMPDEST SWAP3 SWAP2 POP POP JUMP JUMPDEST PUSH0 DUP3 DUP3 MSTORE PUSH1 0x20 DUP3 ADD SWAP1 POP SWAP3 SWAP2 POP POP JUMP JUMPDEST PUSH32 0x4E6F74206F776E65720000000000000000000000000000000000000000000000 PUSH0 DUP3 ADD MSTORE POP JUMP JUMPDEST PUSH0 PUSH2 0x18AA PUSH1 0x9 DUP4 PUSH2 0x1866 JUMP JUMPDEST SWAP2 POP PUSH2 0x18B5 DUP3 PUSH2 0x1876 JUMP JUMPDEST PUSH1 0x20 DUP3 ADD SWAP1 POP SWAP2 SWAP1 POP JUMP JUMPDEST PUSH0 PUSH1 0x20 DUP3 ADD SWAP1 POP DUP2 DUP2 SUB PUSH0 DUP4 ADD MSTORE PUSH2 0x18D7 DUP2 PUSH2 0x189E JUMP JUMPDEST SWAP1 POP SWAP2 SWAP1 POP JUMP JUMPDEST PUSH0 DUP2 SWAP1 POP SWAP3 SWAP2 POP POP JUMP JUMPDEST POP JUMP JUMPDEST PUSH0 PUSH2 0x18F6 PUSH0 DUP4 PUSH2 0x18DE JUMP JUMPDEST SWAP2 POP PUSH2 0x1901 DUP3 PUSH2 0x18E8 JUMP JUMPDEST PUSH0 DUP3 ADD SWAP1 POP SWAP2 SWAP1 POP JUMP JUMPDEST PUSH0 PUSH2 0x1915 DUP3 PUSH2 0x18EB JUMP JUMPDEST SWAP2 POP DUP2 SWAP1 POP SWAP2 SWAP1 POP JUMP JUMPDEST PUSH32 0x5472616E73666572206661696C65640000000000000000000000000000000000 PUSH0 DUP3 ADD MSTORE POP JUMP JUMPDEST PUSH0 PUSH2 0x1953 PUSH1 0xF DUP4 PUSH2 0x1866 JUMP JUMPDEST SWAP2 POP PUSH2 0x195E DUP3 PUSH2 0x191F JUMP JUMPDEST PUSH1 0x20 DUP3 ADD SWAP1 POP SWAP2 SWAP1 POP JUMP JUMPDEST PUSH0 PUSH1 0x20 DUP3 ADD SWAP1 POP DUP2 DUP2 SUB PUSH0 DUP4 ADD MSTORE PUSH2 0x1980 DUP2 PUSH2 0x1947 JUMP JUMPDEST SWAP1 POP SWAP2 SWAP1 POP JUMP JUMPDEST PUSH32 0x4E65656420302E30303120455448000000000000000000000000000000000000 PUSH0 DUP3 ADD MSTORE POP JUMP JUMPDEST PUSH0 PUSH2 0x19BB PUSH1 0xE DUP4 PUSH2 0x1866 JUMP JUMPDEST SWAP2 POP PUSH2 0x19C6 DUP3 PUSH2 0x1987 JUMP JUMPDEST PUSH1 0x20 DUP3 ADD SWAP1 POP SWAP2 SWAP1 POP JUMP JUMPDEST PUSH0 PUSH1 0x20 DUP3 ADD SWAP1 POP DUP2 DUP2 SUB PUSH0 DUP4 ADD MSTORE PUSH2 0x19E8 DUP2 PUSH2 0x19AF JUMP JUMPDEST SWAP1 POP SWAP2 SWAP1 POP JUMP JUMPDEST PUSH32 0x4E487B7100000000000000000000000000000000000000000000000000000000 PUSH0 MSTORE PUSH1 0x11 PUSH1 0x4 MSTORE PUSH1 0x24 PUSH0 REVERT JUMPDEST PUSH0 PUSH2 0x1A26 DUP3 PUSH2 0x13E7 JUMP JUMPDEST SWAP2 POP PUSH32 0xFFFFFFFFFFFFFFFFFFFFFFFFFFFFFFFFFFFFFFFFFFFFFFFFFFFFFFFFFFFFFFFF DUP3 SUB PUSH2 0x1A58 JUMPI PUSH2 0x1A57 PUSH2 0x19EF JUMP JUMPDEST JUMPDEST PUSH1 0x1 DUP3 ADD SWAP1 POP SWAP2 SWAP1 POP JUMP JUMPDEST PUSH0 PUSH2 0x1A6D DUP3 PUSH2 0x13E7 JUMP JUMPDEST SWAP2 POP PUSH2 0x1A78 DUP4 PUSH2 0x13E7 JUMP JUMPDEST SWAP3 POP DUP3 DUP3 SUB SWAP1 POP DUP2 DUP2 GT ISZERO PUSH2 0x1A90 JUMPI PUSH2 0x1A8F PUSH2 0x19EF JUMP JUMPDEST JUMPDEST SWAP3 SWAP2 POP POP JUMP JUMPDEST PUSH32 0x4E487B7100000000000000000000000000000000000000000000000000000000 PUSH0 MSTORE PUSH1 0x12 PUSH1 0x4 MSTORE PUSH1 0x24 PUSH0 REVERT JUMPDEST PUSH0 PUSH2 0x1ACD DUP3 PUSH2 0x13E7 JUMP JUMPDEST SWAP2 POP PUSH2 0x1AD8 DUP4 PUSH2 0x13E7 JUMP JUMPDEST SWAP3 POP DUP3 PUSH2 0x1AE8 JUMPI PUSH2 0x1AE7 PUSH2 0x1A96 JUMP JUMPDEST JUMPDEST DUP3 DUP3 DIV SWAP1 POP SWAP3 SWAP2 POP POP JUMP JUMPDEST PUSH0 PUSH2 0x1AFD DUP3 PUSH2 0x13E7 JUMP JUMPDEST SWAP2 POP PUSH2 0x1B08 DUP4 PUSH2 0x13E7 JUMP JUMPDEST SWAP3 POP DUP3 DUP3 MUL PUSH2 0x1B16 DUP2 PUSH2 0x13E7 JUMP JUMPDEST SWAP2 POP DUP3 DUP3 DIV DUP5 EQ DUP4 ISZERO OR PUSH2 0x1B2D JUMPI PUSH2 0x1B2C PUSH2 0x19EF JUMP JUMPDEST JUMPDEST POP SWAP3 SWAP2 POP POP JUMP JUMPDEST PUSH0 PUSH2 0x1B3E DUP3 PUSH2 0x15CD JUMP JUMPDEST SWAP2 POP PUSH2 0x1B49 DUP4 PUSH2 0x15CD JUMP JUMPDEST SWAP3 POP DUP3 DUP3 SUB SWAP1 POP PUSH1 0xFF DUP2 GT ISZERO PUSH2 0x1B62 JUMPI PUSH2 0x1B61 PUSH2 0x19EF JUMP JUMPDEST JUMPDEST SWAP3 SWAP2 POP POP JUMP JUMPDEST PUSH32 0x506C616E7420646F6573206E6F74206578697374000000000000000000000000 PUSH0 DUP3 ADD MSTORE POP JUMP JUMPDEST PUSH0 PUSH2 0x1B9C PUSH1 0x14 DUP4 PUSH2 0x1866 JUMP JUMPDEST SWAP2 POP PUSH2 0x1BA7 DUP3 PUSH2 0x1B68 JUMP JUMPDEST PUSH1 0x20 DUP3 ADD SWAP1 POP SWAP2 SWAP1 POP JUMP JUMPDEST PUSH0 PUSH1 0x20 DUP3 ADD SWAP1 POP DUP2 DUP2 SUB PUSH0 DUP4 ADD MSTORE PUSH2 0x1BC9 DUP2 PUSH2 0x1B90 JUMP JUMPDEST SWAP1 POP SWAP2 SWAP1 POP JUMP JUMPDEST PUSH32 0x4F6E6C792074686520706C616E74206F776E65722063616E2077617465722069 PUSH0 DUP3 ADD MSTORE PUSH32 0x7400000000000000000000000000000000000000000000000000000000000000 PUSH1 0x20 DUP3 ADD MSTORE POP JUMP JUMPDEST PUSH0 PUSH2 0x1C2A PUSH1 0x21 DUP4 PUSH2 0x1866 JUMP JUMPDEST SWAP2 POP PUSH2 0x1C35 DUP3 PUSH2 0x1BD0 JUMP JUMPDEST PUSH1 0x40 DUP3 ADD SWAP1 POP SWAP2 SWAP1 POP JUMP JUMPDEST PUSH0 PUSH1 0x20 DUP3 ADD SWAP1 POP DUP2 DUP2 SUB PUSH0 DUP4 ADD MSTORE PUSH2 0x1C57 DUP2 PUSH2 0x1C1E JUMP JUMPDEST SWAP1 POP SWAP2 SWAP1 POP JUMP JUMPDEST PUSH32 0x506C616E74206973206465616420616E642063616E6E6F742062652077617465 PUSH0 DUP3 ADD MSTORE PUSH32 0x7265640000000000000000000000000000000000000000000000000000000000 PUSH1 0x20 DUP3 ADD MSTORE POP JUMP JUMPDEST PUSH0 PUSH2 0x1CB8 PUSH1 0x23 DUP4 PUSH2 0x1866 JUMP JUMPDEST SWAP2 POP PUSH2 0x1CC3 DUP3 PUSH2 0x1C5E JUMP JUMPDEST PUSH1 0x40 DUP3 ADD SWAP1 POP SWAP2 SWAP1 POP JUMP JUMPDEST PUSH0 PUSH1 0x20 DUP3 ADD SWAP1 POP DUP2 DUP2 SUB PUSH0 DUP4 ADD MSTORE PUSH2 0x1CE5 DUP2 PUSH2 0x1CAC JUMP JUMPDEST SWAP1 POP SWAP2 SWAP1 POP JUMP JUMPDEST PUSH0 DUP2 SWAP1 POP SWAP2 SWAP1 POP JUMP JUMPDEST PUSH0 DUP2 SWAP1 POP SWAP2 SWAP1 POP JUMP JUMPDEST PUSH0 PUSH2 0x1D18 PUSH2 0x1D13 PUSH2 0x1D0E DUP5 PUSH2 0x1CEC JUMP JUMPDEST PUSH2 0x1CF5 JUMP JUMPDEST PUSH2 0x15CD JUMP JUMPDEST SWAP1 POP SWAP2 SWAP1 POP JUMP JUMPDEST PUSH2 0x1D28 DUP2 PUSH2 0x1CFE JUMP JUMPDEST DUP3 MSTORE POP POP JUMP JUMPDEST PUSH0 PUSH1 0x20 DUP3 ADD SWAP1 POP PUSH2 0x1D41 PUSH0 DUP4 ADD DUP5 PUSH2 0x1D1F JUMP JUMPDEST SWAP3 SWAP2 POP POP JUMP JUMPDEST PUSH0 PUSH1 0x20 DUP3 ADD SWAP1 POP PUSH2 0x1D5A PUSH0 DUP4 ADD DUP5 PUSH2 0x16CB JUMP JUMPDEST SWAP3 SWAP2 POP POP JUMP JUMPDEST PUSH32 0x4F6E6C792074686520706C616E74206F776E65722063616E2068617276657374 PUSH0 DUP3 ADD MSTORE POP JUMP JUMPDEST PUSH0 PUSH2 0x1D94 PUSH1 0x20 DUP4 PUSH2 0x1866 JUMP JUMPDEST SWAP2 POP PUSH2 0x1D9F DUP3 PUSH2 0x1D60 JUMP JUMPDEST PUSH1 0x20 DUP3 ADD SWAP1 POP SWAP2 SWAP1 POP JUMP JUMPDEST PUSH0 PUSH1 0x20 DUP3 ADD SWAP1 POP DUP2 DUP2 SUB PUSH0 DUP4 ADD MSTORE PUSH2 0x1DC1 DUP2 PUSH2 0x1D88 JUMP JUMPDEST SWAP1 POP SWAP2 SWAP1 POP JUMP JUMPDEST PUSH32 0x506C616E74206973206465616420616E642063616E6E6F742062652068617276 PUSH0 DUP3 ADD MSTORE PUSH32 0x6573746564000000000000000000000000000000000000000000000000000000 PUSH1 0x20 DUP3 ADD MSTORE POP JUMP JUMPDEST PUSH0 PUSH2 0x1E22 PUSH1 0x25 DUP4 PUSH2 0x1866 JUMP JUMPDEST SWAP2 POP PUSH2 0x1E2D DUP3 PUSH2 0x1DC8 JUMP JUMPDEST PUSH1 0x40 DUP3 ADD SWAP1 POP SWAP2 SWAP1 POP JUMP JUMPDEST PUSH0 PUSH1 0x20 DUP3 ADD SWAP1 POP DUP2 DUP2 SUB PUSH0 DUP4 ADD MSTORE PUSH2 0x1E4F DUP2 PUSH2 0x1E16 JUMP JUMPDEST SWAP1 POP SWAP2 SWAP1 POP JUMP JUMPDEST PUSH32 0x506C616E74206D75737420626520626C6F6F6D696E6720746F20686172766573 PUSH0 DUP3 ADD MSTORE PUSH32 0x7400000000000000000000000000000000000000000000000000000000000000 PUSH1 0x20 DUP3 ADD MSTORE POP JUMP JUMPDEST PUSH0 PUSH2 0x1EB0 PUSH1 0x21 DUP4 PUSH2 0x1866 JUMP JUMPDEST SWAP2 POP PUSH2 0x1EBB DUP3 PUSH2 0x1E56 JUMP JUMPDEST PUSH1 0x40 DUP3 ADD SWAP1 POP SWAP2 SWAP1 POP JUMP JUMPDEST PUSH0 PUSH1 0x20 DUP3 ADD SWAP1 POP DUP2 DUP2 SUB PUSH0 DUP4 ADD MSTORE PUSH2 0x1EDD DUP2 PUSH2 0x1EA4 JUMP JUMPDEST SWAP1 POP SWAP2 SWAP1 POP JUMP JUMPDEST PUSH32 0x4661696C656420746F2073656E64206861727665737420726577617264000000 PUSH0 DUP3 ADD MSTORE POP JUMP JUMPDEST PUSH0 PUSH2 0x1F18 PUSH1 0x1D DUP4 PUSH2 0x1866 JUMP JUMPDEST SWAP2 POP PUSH2 0x1F23 DUP3 PUSH2 0x1EE4 JUMP JUMPDEST PUSH1 0x20 DUP3 ADD SWAP1 POP SWAP2 SWAP1 POP JUMP JUMPDEST PUSH0 PUSH1 0x20 DUP3 ADD SWAP1 POP DUP2 DUP2 SUB PUSH0 DUP4 ADD MSTORE PUSH2 0x1F45 DUP2 PUSH2 0x1F0C JUMP JUMPDEST SWAP1 POP SWAP2 SWAP1 POP JUMP INVALID LOG2 PUSH5 0x6970667358 0x22 SLT KECCAK256 PUSH19 0xB2BFE510D08F6D7A136156D3CEC2C32BBB5A89 0xCF 0xE9 PUSH15 0x850619C02A79CD819D64736F6C6343 STOP ADDMOD 0x1E STOP CALLER "
				},
				"gasEstimates": {
					"creation": {
						"codeDepositCost": "1613200",
						"executionCost": "25957",
						"totalCost": "1639157"
					},
					"external": {
						"HARVEST_REWARD()": "414",
						"PLANT_PRICE()": "347",
						"STAGE_DURATION()": "348",
						"WATER_DEPLESSION_TIME()": "349",
						"WATER_DEPLETION_RATE()": "442",
						"calculateWaterLevel(uint256)": "infinite",
						"deposit()": "163",
						"getBalance()": "380",
						"getPlant(uint256)": "infinite",
						"getUserPlants(address)": "infinite",
						"harvestPlant(uint256)": "infinite",
						"owner()": "2531",
						"plantCounter()": "2514",
						"plantSeed()": "infinite",
						"plants(uint256)": "infinite",
						"updatePlantStage(uint256)": "infinite",
						"userPlants(address,uint256)": "infinite",
						"waterPlant(uint256)": "infinite",
						"withdraw()": "infinite"
					},
					"internal": {
						"updateWaterLevel(uint256)": "infinite"
					}
				},
				"methodIdentifiers": {
					"HARVEST_REWARD()": "891c0785",
					"PLANT_PRICE()": "cfc9a5f8",
					"STAGE_DURATION()": "51f9efde",
					"WATER_DEPLESSION_TIME()": "09d572fa",
					"WATER_DEPLETION_RATE()": "bacb5ebd",
					"calculateWaterLevel(uint256)": "754e150d",
					"deposit()": "d0e30db0",
					"getBalance()": "12065fe0",
					"getPlant(uint256)": "ed0b1f5f",
					"getUserPlants(address)": "30cec0eb",
					"harvestPlant(uint256)": "e38f8448",
					"owner()": "8da5cb5b",
					"plantCounter()": "9c471749",
					"plantSeed()": "74119a38",
					"plants(uint256)": "8dd2361c",
					"updatePlantStage(uint256)": "ddd42596",
					"userPlants(address,uint256)": "8aee578b",
					"waterPlant(uint256)": "9886bcfa",
					"withdraw()": "3ccfd60b"
				}
			},
			"storageLayout": {
				"storage": [
					{
						"astId": 29,
						"contract": "contracts/LiskGarden.sol:LiskGarden",
						"label": "plants",
						"offset": 0,
						"slot": "0",
						"type": "t_mapping(t_uint256,t_struct(Plant)24_storage)"
					},
					{
						"astId": 34,
						"contract": "contracts/LiskGarden.sol:LiskGarden",
						"label": "userPlants",
						"offset": 0,
						"slot": "1",
						"type": "t_mapping(t_address,t_array(t_uint256)dyn_storage)"
					},
					{
						"astId": 36,
						"contract": "contracts/LiskGarden.sol:LiskGarden",
						"label": "plantCounter",
						"offset": 0,
						"slot": "2",
						"type": "t_uint256"
					},
					{
						"astId": 38,
						"contract": "contracts/LiskGarden.sol:LiskGarden",
						"label": "owner",
						"offset": 0,
						"slot": "3",
						"type": "t_address"
					}
				],
				"types": {
					"t_address": {
						"encoding": "inplace",
						"label": "address",
						"numberOfBytes": "20"
					},
					"t_array(t_uint256)dyn_storage": {
						"base": "t_uint256",
						"encoding": "dynamic_array",
						"label": "uint256[]",
						"numberOfBytes": "32"
					},
					"t_bool": {
						"encoding": "inplace",
						"label": "bool",
						"numberOfBytes": "1"
					},
					"t_enum(GrowthStage)6": {
						"encoding": "inplace",
						"label": "enum LiskGarden.GrowthStage",
						"numberOfBytes": "1"
					},
					"t_mapping(t_address,t_array(t_uint256)dyn_storage)": {
						"encoding": "mapping",
						"key": "t_address",
						"label": "mapping(address => uint256[])",
						"numberOfBytes": "32",
						"value": "t_array(t_uint256)dyn_storage"
					},
					"t_mapping(t_uint256,t_struct(Plant)24_storage)": {
						"encoding": "mapping",
						"key": "t_uint256",
						"label": "mapping(uint256 => struct LiskGarden.Plant)",
						"numberOfBytes": "32",
						"value": "t_struct(Plant)24_storage"
					},
					"t_struct(Plant)24_storage": {
						"encoding": "inplace",
						"label": "struct LiskGarden.Plant",
						"members": [
							{
								"astId": 8,
								"contract": "contracts/LiskGarden.sol:LiskGarden",
								"label": "id",
								"offset": 0,
								"slot": "0",
								"type": "t_uint256"
							},
							{
								"astId": 10,
								"contract": "contracts/LiskGarden.sol:LiskGarden",
								"label": "owner",
								"offset": 0,
								"slot": "1",
								"type": "t_address"
							},
							{
								"astId": 13,
								"contract": "contracts/LiskGarden.sol:LiskGarden",
								"label": "stage",
								"offset": 20,
								"slot": "1",
								"type": "t_enum(GrowthStage)6"
							},
							{
								"astId": 15,
								"contract": "contracts/LiskGarden.sol:LiskGarden",
								"label": "plantedDate",
								"offset": 0,
								"slot": "2",
								"type": "t_uint256"
							},
							{
								"astId": 17,
								"contract": "contracts/LiskGarden.sol:LiskGarden",
								"label": "lastWatered",
								"offset": 0,
								"slot": "3",
								"type": "t_uint256"
							},
							{
								"astId": 19,
								"contract": "contracts/LiskGarden.sol:LiskGarden",
								"label": "waterLevel",
								"offset": 0,
								"slot": "4",
								"type": "t_uint8"
							},
							{
								"astId": 21,
								"contract": "contracts/LiskGarden.sol:LiskGarden",
								"label": "exists",
								"offset": 1,
								"slot": "4",
								"type": "t_bool"
							},
							{
								"astId": 23,
								"contract": "contracts/LiskGarden.sol:LiskGarden",
								"label": "isDead",
								"offset": 2,
								"slot": "4",
								"type": "t_bool"
							}
						],
						"numberOfBytes": "160"
					},
					"t_uint256": {
						"encoding": "inplace",
						"label": "uint256",
						"numberOfBytes": "32"
					},
					"t_uint8": {
						"encoding": "inplace",
						"label": "uint8",
						"numberOfBytes": "1"
					}
				}
			},
			"userdoc": {
				"kind": "user",
				"methods": {},
				"version": 1
			}
		}
	}
}